
DataLogger.elf:     file format elf32-avr

Sections:
Idx Name          Size      VMA       LMA       File off  Algn
  0 .data         0000009a  00800100  00001b86  00001c1a  2**0
                  CONTENTS, ALLOC, LOAD, DATA
  1 .text         00001b86  00000000  00000000  00000094  2**1
                  CONTENTS, ALLOC, LOAD, READONLY, CODE
  2 .bss          0000000c  0080019a  0080019a  00001cb4  2**0
                  ALLOC
  3 .comment      0000005c  00000000  00000000  00001cb4  2**0
                  CONTENTS, READONLY
  4 .note.gnu.avr.deviceinfo 00000040  00000000  00000000  00001d10  2**2
                  CONTENTS, READONLY
  5 .debug_aranges 000000d0  00000000  00000000  00001d50  2**0
                  CONTENTS, READONLY, DEBUGGING
  6 .debug_info   00000fb8  00000000  00000000  00001e20  2**0
                  CONTENTS, READONLY, DEBUGGING
  7 .debug_abbrev 000008f9  00000000  00000000  00002dd8  2**0
                  CONTENTS, READONLY, DEBUGGING
  8 .debug_line   000006cd  00000000  00000000  000036d1  2**0
                  CONTENTS, READONLY, DEBUGGING
  9 .debug_frame  000001c0  00000000  00000000  00003da0  2**2
                  CONTENTS, READONLY, DEBUGGING
 10 .debug_str    000005fe  00000000  00000000  00003f60  2**0
                  CONTENTS, READONLY, DEBUGGING
 11 .debug_loc    00000369  00000000  00000000  0000455e  2**0
                  CONTENTS, READONLY, DEBUGGING
 12 .debug_ranges 000000c8  00000000  00000000  000048c7  2**0
                  CONTENTS, READONLY, DEBUGGING

Disassembly of section .text:

00000000 <__vectors>:
       0:	0c 94 bb 00 	jmp	0x176	; 0x176 <__ctors_end>
       4:	0c 94 d8 00 	jmp	0x1b0	; 0x1b0 <__bad_interrupt>
       8:	0c 94 d8 00 	jmp	0x1b0	; 0x1b0 <__bad_interrupt>
       c:	0c 94 d8 00 	jmp	0x1b0	; 0x1b0 <__bad_interrupt>
      10:	0c 94 d8 00 	jmp	0x1b0	; 0x1b0 <__bad_interrupt>
      14:	0c 94 d8 00 	jmp	0x1b0	; 0x1b0 <__bad_interrupt>
      18:	0c 94 d8 00 	jmp	0x1b0	; 0x1b0 <__bad_interrupt>
      1c:	0c 94 d8 00 	jmp	0x1b0	; 0x1b0 <__bad_interrupt>
      20:	0c 94 d8 00 	jmp	0x1b0	; 0x1b0 <__bad_interrupt>
      24:	0c 94 d8 00 	jmp	0x1b0	; 0x1b0 <__bad_interrupt>
      28:	0c 94 d8 00 	jmp	0x1b0	; 0x1b0 <__bad_interrupt>
      2c:	0c 94 30 01 	jmp	0x260	; 0x260 <__vector_11>
      30:	0c 94 d8 00 	jmp	0x1b0	; 0x1b0 <__bad_interrupt>
      34:	0c 94 d8 00 	jmp	0x1b0	; 0x1b0 <__bad_interrupt>
      38:	0c 94 d8 00 	jmp	0x1b0	; 0x1b0 <__bad_interrupt>
      3c:	0c 94 d8 00 	jmp	0x1b0	; 0x1b0 <__bad_interrupt>
      40:	0c 94 0c 01 	jmp	0x218	; 0x218 <__vector_16>
      44:	0c 94 d8 00 	jmp	0x1b0	; 0x1b0 <__bad_interrupt>
      48:	0c 94 21 01 	jmp	0x242	; 0x242 <__vector_18>
      4c:	0c 94 d8 00 	jmp	0x1b0	; 0x1b0 <__bad_interrupt>
      50:	0c 94 d8 00 	jmp	0x1b0	; 0x1b0 <__bad_interrupt>
      54:	0c 94 d8 00 	jmp	0x1b0	; 0x1b0 <__bad_interrupt>
      58:	0c 94 d8 00 	jmp	0x1b0	; 0x1b0 <__bad_interrupt>
      5c:	0c 94 d8 00 	jmp	0x1b0	; 0x1b0 <__bad_interrupt>
      60:	0c 94 d8 00 	jmp	0x1b0	; 0x1b0 <__bad_interrupt>
      64:	0c 94 d8 00 	jmp	0x1b0	; 0x1b0 <__bad_interrupt>

00000068 <__trampolines_end>:
      68:	6e 61       	ori	r22, 0x1E	; 30
      6a:	6e 00       	.word	0x006e	; ????

0000006c <__c.2332>:
      6c:	69 6e 66 00 00 40 7a 10 f3 5a 00 a0 72 4e 18 09     inf..@z..Z..rN..
      7c:	00 10 a5 d4 e8 00 00 e8 76 48 17 00 00 e4 0b 54     ........vH.....T
      8c:	02 00 00 ca 9a 3b 00 00 00 e1 f5 05 00 00 80 96     .....;..........
      9c:	98 00 00 00 40 42 0f 00 00 00 a0 86 01 00 00 00     ....@B..........
      ac:	10 27 00 00 00 00 e8 03 00 00 00 00 64 00 00 00     .'..........d...
      bc:	00 00 0a 00 00 00 00 00 01 00 00 00 00 00 2c 76     ..............,v
      cc:	d8 88 dc 67 4f 08 23 df c1 df ae 59 e1 b1 b7 96     ...gO.#....Y....
      dc:	e5 e3 e4 53 c6 3a e6 51 99 76 96 e8 e6 c2 84 26     ...S.:.Q.v.....&
      ec:	eb 89 8c 9b 62 ed 40 7c 6f fc ef bc 9c 9f 40 f2     ....b.@|o.....@.
      fc:	ba a5 6f a5 f4 90 05 5a 2a f7 5c 93 6b 6c f9 67     ..o....Z*.\.kl.g
     10c:	6d c1 1b fc e0 e4 0d 47 fe f5 20 e6 b5 00 d0 ed     m......G.. .....
     11c:	90 2e 03 00 94 35 77 05 00 80 84 1e 08 00 00 20     .....5w........ 
     12c:	4e 0a 00 00 00 c8 0c 33 33 33 33 0f 98 6e 12 83     N......3333..n..
     13c:	11 41 ef 8d 21 14 89 3b e6 55 16 cf fe e6 db 18     .A..!..;.U......
     14c:	d1 84 4b 38 1b f7 7c 1d 90 1d a4 bb e4 24 20 32     ..K8..|......$ 2
     15c:	84 72 5e 22 81 00 c9 f1 24 ec a1 e5 3d 27           .r^"....$...='

0000016a <__c.2474>:
     16a:	63 64 69 6e 6f 70 73 75 78 58 5b 00                 cdinopsuxX[.

00000176 <__ctors_end>:
     176:	11 24       	eor	r1, r1
     178:	1f be       	out	0x3f, r1	; 63
     17a:	cf ef       	ldi	r28, 0xFF	; 255
     17c:	d8 e0       	ldi	r29, 0x08	; 8
     17e:	de bf       	out	0x3e, r29	; 62
     180:	cd bf       	out	0x3d, r28	; 61

00000182 <__do_copy_data>:
     182:	11 e0       	ldi	r17, 0x01	; 1
     184:	a0 e0       	ldi	r26, 0x00	; 0
     186:	b1 e0       	ldi	r27, 0x01	; 1
     188:	e6 e8       	ldi	r30, 0x86	; 134
     18a:	fb e1       	ldi	r31, 0x1B	; 27
     18c:	02 c0       	rjmp	.+4      	; 0x192 <__do_copy_data+0x10>
     18e:	05 90       	lpm	r0, Z+
     190:	0d 92       	st	X+, r0
     192:	aa 39       	cpi	r26, 0x9A	; 154
     194:	b1 07       	cpc	r27, r17
     196:	d9 f7       	brne	.-10     	; 0x18e <__do_copy_data+0xc>

00000198 <__do_clear_bss>:
     198:	21 e0       	ldi	r18, 0x01	; 1
     19a:	aa e9       	ldi	r26, 0x9A	; 154
     19c:	b1 e0       	ldi	r27, 0x01	; 1
     19e:	01 c0       	rjmp	.+2      	; 0x1a2 <.do_clear_bss_start>

000001a0 <.do_clear_bss_loop>:
     1a0:	1d 92       	st	X+, r1

000001a2 <.do_clear_bss_start>:
     1a2:	a6 3a       	cpi	r26, 0xA6	; 166
     1a4:	b2 07       	cpc	r27, r18
     1a6:	e1 f7       	brne	.-8      	; 0x1a0 <.do_clear_bss_loop>
     1a8:	0e 94 f0 01 	call	0x3e0	; 0x3e0 <main>
     1ac:	0c 94 c1 0d 	jmp	0x1b82	; 0x1b82 <_exit>

000001b0 <__bad_interrupt>:
     1b0:	0c 94 00 00 	jmp	0	; 0x0 <__vectors>

000001b4 <uart_putchar>:
     1b4:	cf 93       	push	r28
     1b6:	c8 2f       	mov	r28, r24
     1b8:	8a 30       	cpi	r24, 0x0A	; 10
     1ba:	19 f4       	brne	.+6      	; 0x1c2 <uart_putchar+0xe>
     1bc:	8d e0       	ldi	r24, 0x0D	; 13
     1be:	0e 94 da 00 	call	0x1b4	; 0x1b4 <uart_putchar>
     1c2:	e0 ec       	ldi	r30, 0xC0	; 192
     1c4:	f0 e0       	ldi	r31, 0x00	; 0
     1c6:	80 81       	ld	r24, Z
     1c8:	85 ff       	sbrs	r24, 5
     1ca:	fd cf       	rjmp	.-6      	; 0x1c6 <uart_putchar+0x12>
     1cc:	c0 93 c6 00 	sts	0x00C6, r28	; 0x8000c6 <__TEXT_REGION_LENGTH__+0x7e00c6>
     1d0:	80 e0       	ldi	r24, 0x00	; 0
     1d2:	90 e0       	ldi	r25, 0x00	; 0
     1d4:	cf 91       	pop	r28
     1d6:	08 95       	ret

000001d8 <uart_getchar>:
     1d8:	e0 ec       	ldi	r30, 0xC0	; 192
     1da:	f0 e0       	ldi	r31, 0x00	; 0
     1dc:	80 81       	ld	r24, Z
     1de:	88 23       	and	r24, r24
     1e0:	ec f7       	brge	.-6      	; 0x1dc <uart_getchar+0x4>
     1e2:	80 91 c6 00 	lds	r24, 0x00C6	; 0x8000c6 <__TEXT_REGION_LENGTH__+0x7e00c6>
     1e6:	90 e0       	ldi	r25, 0x00	; 0
     1e8:	08 95       	ret

000001ea <ioinit>:
     1ea:	10 92 c5 00 	sts	0x00C5, r1	; 0x8000c5 <__TEXT_REGION_LENGTH__+0x7e00c5>
     1ee:	87 e6       	ldi	r24, 0x67	; 103
     1f0:	80 93 c4 00 	sts	0x00C4, r24	; 0x8000c4 <__TEXT_REGION_LENGTH__+0x7e00c4>
     1f4:	e1 ec       	ldi	r30, 0xC1	; 193
     1f6:	f0 e0       	ldi	r31, 0x00	; 0
     1f8:	88 e1       	ldi	r24, 0x18	; 24
     1fa:	80 83       	st	Z, r24
     1fc:	80 81       	ld	r24, Z
     1fe:	80 68       	ori	r24, 0x80	; 128
     200:	80 83       	st	Z, r24
     202:	e0 ea       	ldi	r30, 0xA0	; 160
     204:	f1 e0       	ldi	r31, 0x01	; 1
     206:	8e e0       	ldi	r24, 0x0E	; 14
     208:	91 e0       	ldi	r25, 0x01	; 1
     20a:	93 83       	std	Z+3, r25	; 0x03
     20c:	82 83       	std	Z+2, r24	; 0x02
     20e:	80 e0       	ldi	r24, 0x00	; 0
     210:	91 e0       	ldi	r25, 0x01	; 1
     212:	91 83       	std	Z+1, r25	; 0x01
     214:	80 83       	st	Z, r24
     216:	08 95       	ret

00000218 <__vector_16>:
	temp = (ADC/204.8-0.5)/0.01;
	//temp = (temp_volts-0.5)/0.01;
	return temp;
}

void promptReady() {
     218:	1f 92       	push	r1
     21a:	0f 92       	push	r0
     21c:	0f b6       	in	r0, 0x3f	; 63
     21e:	0f 92       	push	r0
     220:	11 24       	eor	r1, r1
     222:	8f 93       	push	r24
     224:	1c 99       	sbic	0x03, 4	; 3
     226:	07 c0       	rjmp	.+14     	; 0x236 <__vector_16+0x1e>
     228:	80 91 9d 01 	lds	r24, 0x019D	; 0x80019d <btn1Pressed>
     22c:	81 11       	cpse	r24, r1
     22e:	03 c0       	rjmp	.+6      	; 0x236 <__vector_16+0x1e>
     230:	81 e0       	ldi	r24, 0x01	; 1
     232:	80 93 9d 01 	sts	0x019D, r24	; 0x80019d <btn1Pressed>
     236:	8f 91       	pop	r24
     238:	0f 90       	pop	r0
     23a:	0f be       	out	0x3f, r0	; 63
     23c:	0f 90       	pop	r0
     23e:	1f 90       	pop	r1
     240:	18 95       	reti

00000242 <__vector_18>:
     242:	1f 92       	push	r1
     244:	0f 92       	push	r0
     246:	0f b6       	in	r0, 0x3f	; 63
     248:	0f 92       	push	r0
     24a:	11 24       	eor	r1, r1
     24c:	8f 93       	push	r24
     24e:	81 e0       	ldi	r24, 0x01	; 1
     250:	80 93 9c 01 	sts	0x019C, r24	; 0x80019c <UartInput>
     254:	8f 91       	pop	r24
     256:	0f 90       	pop	r0
     258:	0f be       	out	0x3f, r0	; 63
     25a:	0f 90       	pop	r0
     25c:	1f 90       	pop	r1
     25e:	18 95       	reti

00000260 <__vector_11>:
     260:	1f 92       	push	r1
     262:	0f 92       	push	r0
     264:	0f b6       	in	r0, 0x3f	; 63
     266:	0f 92       	push	r0
     268:	11 24       	eor	r1, r1
     26a:	2f 93       	push	r18
     26c:	3f 93       	push	r19
     26e:	8f 93       	push	r24
     270:	9f 93       	push	r25
     272:	20 91 9a 01 	lds	r18, 0x019A	; 0x80019a <__data_end>
     276:	30 91 9b 01 	lds	r19, 0x019B	; 0x80019b <__data_end+0x1>
     27a:	81 e0       	ldi	r24, 0x01	; 1
     27c:	90 e0       	ldi	r25, 0x00	; 0
     27e:	23 2b       	or	r18, r19
     280:	11 f0       	breq	.+4      	; 0x286 <__vector_11+0x26>
     282:	80 e0       	ldi	r24, 0x00	; 0
     284:	90 e0       	ldi	r25, 0x00	; 0
     286:	90 93 9b 01 	sts	0x019B, r25	; 0x80019b <__data_end+0x1>
     28a:	80 93 9a 01 	sts	0x019A, r24	; 0x80019a <__data_end>
     28e:	9f 91       	pop	r25
     290:	8f 91       	pop	r24
     292:	3f 91       	pop	r19
     294:	2f 91       	pop	r18
     296:	0f 90       	pop	r0
     298:	0f be       	out	0x3f, r0	; 63
     29a:	0f 90       	pop	r0
     29c:	1f 90       	pop	r1
     29e:	18 95       	reti

000002a0 <setupTimer0>:
     2a0:	85 b5       	in	r24, 0x25	; 37
     2a2:	83 60       	ori	r24, 0x03	; 3
     2a4:	85 bd       	out	0x25, r24	; 37
     2a6:	ee e6       	ldi	r30, 0x6E	; 110
     2a8:	f0 e0       	ldi	r31, 0x00	; 0
     2aa:	80 81       	ld	r24, Z
     2ac:	81 60       	ori	r24, 0x01	; 1
     2ae:	80 83       	st	Z, r24
     2b0:	08 95       	ret

000002b2 <setup_timer1>:
     2b2:	89 e0       	ldi	r24, 0x09	; 9
     2b4:	9d e3       	ldi	r25, 0x3D	; 61
     2b6:	90 93 89 00 	sts	0x0089, r25	; 0x800089 <__TEXT_REGION_LENGTH__+0x7e0089>
     2ba:	80 93 88 00 	sts	0x0088, r24	; 0x800088 <__TEXT_REGION_LENGTH__+0x7e0088>
     2be:	e1 e8       	ldi	r30, 0x81	; 129
     2c0:	f0 e0       	ldi	r31, 0x00	; 0
     2c2:	80 81       	ld	r24, Z
     2c4:	88 60       	ori	r24, 0x08	; 8
     2c6:	80 83       	st	Z, r24
     2c8:	ef e6       	ldi	r30, 0x6F	; 111
     2ca:	f0 e0       	ldi	r31, 0x00	; 0
     2cc:	80 81       	ld	r24, Z
     2ce:	82 60       	ori	r24, 0x02	; 2
     2d0:	80 83       	st	Z, r24
     2d2:	08 95       	ret

000002d4 <start_timer1>:
     2d4:	e1 e8       	ldi	r30, 0x81	; 129
     2d6:	f0 e0       	ldi	r31, 0x00	; 0
     2d8:	80 81       	ld	r24, Z
     2da:	85 60       	ori	r24, 0x05	; 5
     2dc:	80 83       	st	Z, r24
     2de:	08 95       	ret

000002e0 <initPort>:
     2e0:	94 b1       	in	r25, 0x04	; 4
     2e2:	98 13       	cpse	r25, r24
     2e4:	03 c0       	rjmp	.+6      	; 0x2ec <initPort+0xc>
     2e6:	94 b1       	in	r25, 0x04	; 4
     2e8:	96 2b       	or	r25, r22
     2ea:	94 b9       	out	0x04, r25	; 4
     2ec:	97 b1       	in	r25, 0x07	; 7
     2ee:	89 13       	cpse	r24, r25
     2f0:	03 c0       	rjmp	.+6      	; 0x2f8 <initPort+0x18>
     2f2:	97 b1       	in	r25, 0x07	; 7
     2f4:	96 2b       	or	r25, r22
     2f6:	97 b9       	out	0x07, r25	; 7
     2f8:	9a b1       	in	r25, 0x0a	; 10
     2fa:	89 13       	cpse	r24, r25
     2fc:	03 c0       	rjmp	.+6      	; 0x304 <initPort+0x24>
     2fe:	8a b1       	in	r24, 0x0a	; 10
     300:	68 2b       	or	r22, r24
     302:	6a b9       	out	0x0a, r22	; 10
     304:	08 95       	ret

00000306 <enablePullup>:
     306:	95 b1       	in	r25, 0x05	; 5
     308:	98 13       	cpse	r25, r24
     30a:	03 c0       	rjmp	.+6      	; 0x312 <enablePullup+0xc>
     30c:	95 b1       	in	r25, 0x05	; 5
     30e:	96 2b       	or	r25, r22
     310:	95 b9       	out	0x05, r25	; 5
     312:	98 b1       	in	r25, 0x08	; 8
     314:	89 13       	cpse	r24, r25
     316:	03 c0       	rjmp	.+6      	; 0x31e <enablePullup+0x18>
     318:	98 b1       	in	r25, 0x08	; 8
     31a:	96 2b       	or	r25, r22
     31c:	98 b9       	out	0x08, r25	; 8
     31e:	9b b1       	in	r25, 0x0b	; 11
     320:	89 13       	cpse	r24, r25
     322:	03 c0       	rjmp	.+6      	; 0x32a <enablePullup+0x24>
     324:	8b b1       	in	r24, 0x0b	; 11
     326:	68 2b       	or	r22, r24
     328:	6b b9       	out	0x0b, r22	; 11
     32a:	08 95       	ret

0000032c <readLed>:
     32c:	93 b1       	in	r25, 0x03	; 3
     32e:	98 23       	and	r25, r24
     330:	81 e0       	ldi	r24, 0x01	; 1
     332:	09 f4       	brne	.+2      	; 0x336 <readLed+0xa>
     334:	80 e0       	ldi	r24, 0x00	; 0
     336:	08 95       	ret

00000338 <ledOn>:
     338:	95 b1       	in	r25, 0x05	; 5
     33a:	89 2b       	or	r24, r25
     33c:	85 b9       	out	0x05, r24	; 5
     33e:	08 95       	ret

00000340 <ledOff>:
     340:	95 b1       	in	r25, 0x05	; 5
     342:	80 95       	com	r24
     344:	98 23       	and	r25, r24
     346:	95 b9       	out	0x05, r25	; 5
     348:	08 95       	ret

0000034a <startConversion>:
     34a:	ea e7       	ldi	r30, 0x7A	; 122
     34c:	f0 e0       	ldi	r31, 0x00	; 0
     34e:	80 81       	ld	r24, Z
     350:	80 64       	ori	r24, 0x40	; 64
     352:	80 83       	st	Z, r24
     354:	60 91 78 00 	lds	r22, 0x0078	; 0x800078 <__TEXT_REGION_LENGTH__+0x7e0078>
     358:	70 91 79 00 	lds	r23, 0x0079	; 0x800079 <__TEXT_REGION_LENGTH__+0x7e0079>
     35c:	80 e0       	ldi	r24, 0x00	; 0
     35e:	90 e0       	ldi	r25, 0x00	; 0
     360:	0e 94 37 04 	call	0x86e	; 0x86e <__floatunsisf>
     364:	2d ec       	ldi	r18, 0xCD	; 205
     366:	3c ec       	ldi	r19, 0xCC	; 204
     368:	4c e4       	ldi	r20, 0x4C	; 76
     36a:	53 e4       	ldi	r21, 0x43	; 67
     36c:	0e 94 8f 03 	call	0x71e	; 0x71e <__divsf3>
     370:	20 e0       	ldi	r18, 0x00	; 0
     372:	30 e0       	ldi	r19, 0x00	; 0
     374:	40 e0       	ldi	r20, 0x00	; 0
     376:	5f e3       	ldi	r21, 0x3F	; 63
     378:	0e 94 22 03 	call	0x644	; 0x644 <__subsf3>
     37c:	2a e0       	ldi	r18, 0x0A	; 10
     37e:	37 ed       	ldi	r19, 0xD7	; 215
     380:	43 e2       	ldi	r20, 0x23	; 35
     382:	5c e3       	ldi	r21, 0x3C	; 60
     384:	0e 94 8f 03 	call	0x71e	; 0x71e <__divsf3>
     388:	0e 94 01 04 	call	0x802	; 0x802 <__fixsfsi>
     38c:	86 2f       	mov	r24, r22
     38e:	60 93 9e 01 	sts	0x019E, r22	; 0x80019e <temp>
     392:	70 93 9f 01 	sts	0x019F, r23	; 0x80019f <temp+0x1>
     396:	08 95       	ret

00000398 <setupADC>:
     398:	80 64       	ori	r24, 0x40	; 64
     39a:	80 93 7c 00 	sts	0x007C, r24	; 0x80007c <__TEXT_REGION_LENGTH__+0x7e007c>
     39e:	87 e8       	ldi	r24, 0x87	; 135
     3a0:	80 93 7a 00 	sts	0x007A, r24	; 0x80007a <__TEXT_REGION_LENGTH__+0x7e007a>
     3a4:	81 e0       	ldi	r24, 0x01	; 1
     3a6:	80 93 7e 00 	sts	0x007E, r24	; 0x80007e <__TEXT_REGION_LENGTH__+0x7e007e>
     3aa:	0e 94 a5 01 	call	0x34a	; 0x34a <startConversion>
     3ae:	08 95       	ret

000003b0 <error>:

void error(int blink, int led)
{
	//printf("%d",errorvar);
	//Turn off all status leds
	PORTB &= ~ledR;
     3b0:	2b 98       	cbi	0x05, 3	; 5
	PORTB &= ~ledG;
     3b2:	2a 98       	cbi	0x05, 2	; 5
	PORTB &= ~ledB;
     3b4:	29 98       	cbi	0x05, 1	; 5
	
	if (blink == 0)
     3b6:	89 2b       	or	r24, r25
     3b8:	21 f4       	brne	.+8      	; 0x3c2 <error+0x12>
	{
		//stop_timer1();
		PORTB |= led;
     3ba:	85 b1       	in	r24, 0x05	; 5
     3bc:	68 2b       	or	r22, r24
     3be:	65 b9       	out	0x05, r22	; 5
     3c0:	08 95       	ret
	}
	else
	{
		//start_timer1();
		if (LedBlink)
     3c2:	80 91 9a 01 	lds	r24, 0x019A	; 0x80019a <__data_end>
     3c6:	90 91 9b 01 	lds	r25, 0x019B	; 0x80019b <__data_end+0x1>
     3ca:	89 2b       	or	r24, r25
     3cc:	21 f0       	breq	.+8      	; 0x3d6 <error+0x26>
		{
			PORTB |= led;
     3ce:	85 b1       	in	r24, 0x05	; 5
     3d0:	68 2b       	or	r22, r24
     3d2:	65 b9       	out	0x05, r22	; 5
     3d4:	08 95       	ret
		}
		else
		{
			PORTB &= ~led;
     3d6:	85 b1       	in	r24, 0x05	; 5
     3d8:	60 95       	com	r22
     3da:	68 23       	and	r22, r24
     3dc:	65 b9       	out	0x05, r22	; 5
     3de:	08 95       	ret

000003e0 <main>:
char startConversion();
void promptReady();
void error(int blink, int led);

int main(void)
{
     3e0:	cf 93       	push	r28
     3e2:	df 93       	push	r29
     3e4:	cd b7       	in	r28, 0x3d	; 61
     3e6:	de b7       	in	r29, 0x3e	; 62
     3e8:	c1 54       	subi	r28, 0x41	; 65
     3ea:	d1 09       	sbc	r29, r1
     3ec:	0f b6       	in	r0, 0x3f	; 63
     3ee:	f8 94       	cli
     3f0:	de bf       	out	0x3e, r29	; 62
     3f2:	0f be       	out	0x3f, r0	; 63
     3f4:	cd bf       	out	0x3d, r28	; 61
	//Initialization
	ioinit(); //Setup UART and STDIO
     3f6:	0e 94 f5 00 	call	0x1ea	; 0x1ea <ioinit>
	setupADC(adcinput);
     3fa:	80 e0       	ldi	r24, 0x00	; 0
     3fc:	0e 94 cc 01 	call	0x398	; 0x398 <setupADC>
	initPort(DDRB, led1);
     400:	84 b1       	in	r24, 0x04	; 4
     402:	60 e2       	ldi	r22, 0x20	; 32
     404:	0e 94 70 01 	call	0x2e0	; 0x2e0 <initPort>
	initPort(DDRB, ledR);
     408:	84 b1       	in	r24, 0x04	; 4
     40a:	68 e0       	ldi	r22, 0x08	; 8
     40c:	0e 94 70 01 	call	0x2e0	; 0x2e0 <initPort>
	initPort(DDRB, ledG);
     410:	84 b1       	in	r24, 0x04	; 4
     412:	64 e0       	ldi	r22, 0x04	; 4
     414:	0e 94 70 01 	call	0x2e0	; 0x2e0 <initPort>
	initPort(DDRB, ledB);
     418:	84 b1       	in	r24, 0x04	; 4
     41a:	62 e0       	ldi	r22, 0x02	; 2
     41c:	0e 94 70 01 	call	0x2e0	; 0x2e0 <initPort>
	enablePullup(PORTB, btn1);
     420:	85 b1       	in	r24, 0x05	; 5
     422:	60 e1       	ldi	r22, 0x10	; 16
     424:	0e 94 83 01 	call	0x306	; 0x306 <enablePullup>
	char userinput[64]; //array to hold the userinput
	setupTimer0(); //used for button polling
     428:	0e 94 50 01 	call	0x2a0	; 0x2a0 <setupTimer0>
	setup_timer1(); //used for Status-LED blinking
     42c:	0e 94 59 01 	call	0x2b2	; 0x2b2 <setup_timer1>
	sei(); //enable interrupts	
     430:	78 94       	sei
	
	start_timer1();
     432:	0e 94 6a 01 	call	0x2d4	; 0x2d4 <start_timer1>
	while (1)
	{		
		if (UartInput)
		{	
			//printf("test");		
			scanf("%s", userinput); //read userinput
     436:	8e 01       	movw	r16, r28
     438:	0f 5f       	subi	r16, 0xFF	; 255
     43a:	1f 4f       	sbci	r17, 0xFF	; 255
     43c:	0f 2e       	mov	r0, r31
     43e:	fe e1       	ldi	r31, 0x1E	; 30
     440:	ef 2e       	mov	r14, r31
     442:	f1 e0       	ldi	r31, 0x01	; 1
     444:	ff 2e       	mov	r15, r31
     446:	f0 2d       	mov	r31, r0
				userinput[0] = 0;
				promptReady();
			}
			else if(strstr(userinput, "error=") != NULL) {
				char inputArray[1] = {userinput[6]};
				printf("error set to %d\n", atoi(inputArray));
     448:	0f 2e       	mov	r0, r31
     44a:	fd e5       	ldi	r31, 0x5D	; 93
     44c:	8f 2e       	mov	r8, r31
     44e:	f1 e0       	ldi	r31, 0x01	; 1
     450:	9f 2e       	mov	r9, r31
     452:	f0 2d       	mov	r31, r0
				btn1Pressed = false;
				userinput[0] = 0;
				promptReady();
			}			
			else if(strcmp(userinput, "getadcval")==0) {
				printf("%d", startConversion());				
     454:	0f 2e       	mov	r0, r31
     456:	f1 e4       	ldi	r31, 0x41	; 65
     458:	af 2e       	mov	r10, r31
     45a:	f1 e0       	ldi	r31, 0x01	; 1
     45c:	bf 2e       	mov	r11, r31
     45e:	f0 2d       	mov	r31, r0
				userinput[0] = 0;
				promptReady();
			}
			else if(strcmp(userinput, "led1off")==0) {
				ledOff(led1);
				printf("led1=%d\n", readLed(led1));
     460:	0f 2e       	mov	r0, r31
     462:	f8 e2       	ldi	r31, 0x28	; 40
     464:	cf 2e       	mov	r12, r31
     466:	f1 e0       	ldi	r31, 0x01	; 1
     468:	df 2e       	mov	r13, r31
     46a:	f0 2d       	mov	r31, r0
	
	promptReady();
	
	while (1)
	{		
		if (UartInput)
     46c:	80 91 9c 01 	lds	r24, 0x019C	; 0x80019c <UartInput>
     470:	88 23       	and	r24, r24
     472:	09 f4       	brne	.+2      	; 0x476 <__LOCK_REGION_LENGTH__+0x76>
     474:	a9 c0       	rjmp	.+338    	; 0x5c8 <__LOCK_REGION_LENGTH__+0x1c8>
		{	
			//printf("test");		
			scanf("%s", userinput); //read userinput
     476:	1f 93       	push	r17
     478:	0f 93       	push	r16
     47a:	ff 92       	push	r15
     47c:	ef 92       	push	r14
     47e:	0e 94 32 0a 	call	0x1464	; 0x1464 <scanf>
			//printf("%s\n", userinput);
			//promptReady();
			
			if(strcmp(userinput, "led1on")==0) {
     482:	61 e2       	ldi	r22, 0x21	; 33
     484:	71 e0       	ldi	r23, 0x01	; 1
     486:	c8 01       	movw	r24, r16
     488:	0e 94 7a 09 	call	0x12f4	; 0x12f4 <strcmp>
     48c:	0f 90       	pop	r0
     48e:	0f 90       	pop	r0
     490:	0f 90       	pop	r0
     492:	0f 90       	pop	r0
     494:	89 2b       	or	r24, r25
     496:	91 f4       	brne	.+36     	; 0x4bc <__LOCK_REGION_LENGTH__+0xbc>
				ledOn(led1);
     498:	80 e2       	ldi	r24, 0x20	; 32
     49a:	0e 94 9c 01 	call	0x338	; 0x338 <ledOn>
				printf("led1=%d\n", readLed(led1));				
     49e:	80 e2       	ldi	r24, 0x20	; 32
     4a0:	0e 94 96 01 	call	0x32c	; 0x32c <readLed>
     4a4:	1f 92       	push	r1
     4a6:	8f 93       	push	r24
     4a8:	df 92       	push	r13
     4aa:	cf 92       	push	r12
     4ac:	0e 94 ec 09 	call	0x13d8	; 0x13d8 <printf>
				userinput[0] = 0;
     4b0:	19 82       	std	Y+1, r1	; 0x01
     4b2:	0f 90       	pop	r0
     4b4:	0f 90       	pop	r0
     4b6:	0f 90       	pop	r0
     4b8:	0f 90       	pop	r0
     4ba:	84 c0       	rjmp	.+264    	; 0x5c4 <__LOCK_REGION_LENGTH__+0x1c4>
				promptReady();
			}
			else if(strcmp(userinput, "led1off")==0) {
     4bc:	61 e3       	ldi	r22, 0x31	; 49
     4be:	71 e0       	ldi	r23, 0x01	; 1
     4c0:	c8 01       	movw	r24, r16
     4c2:	0e 94 7a 09 	call	0x12f4	; 0x12f4 <strcmp>
     4c6:	89 2b       	or	r24, r25
     4c8:	91 f4       	brne	.+36     	; 0x4ee <__LOCK_REGION_LENGTH__+0xee>
				ledOff(led1);
     4ca:	80 e2       	ldi	r24, 0x20	; 32
     4cc:	0e 94 a0 01 	call	0x340	; 0x340 <ledOff>
				printf("led1=%d\n", readLed(led1));
     4d0:	80 e2       	ldi	r24, 0x20	; 32
     4d2:	0e 94 96 01 	call	0x32c	; 0x32c <readLed>
     4d6:	1f 92       	push	r1
     4d8:	8f 93       	push	r24
     4da:	df 92       	push	r13
     4dc:	cf 92       	push	r12
     4de:	0e 94 ec 09 	call	0x13d8	; 0x13d8 <printf>
				userinput[0] = 0;
     4e2:	19 82       	std	Y+1, r1	; 0x01
     4e4:	0f 90       	pop	r0
     4e6:	0f 90       	pop	r0
     4e8:	0f 90       	pop	r0
     4ea:	0f 90       	pop	r0
     4ec:	6b c0       	rjmp	.+214    	; 0x5c4 <__LOCK_REGION_LENGTH__+0x1c4>
				promptReady();
			}
			else if(strcmp(userinput, "led1val")==0) {
     4ee:	69 e3       	ldi	r22, 0x39	; 57
     4f0:	71 e0       	ldi	r23, 0x01	; 1
     4f2:	c8 01       	movw	r24, r16
     4f4:	0e 94 7a 09 	call	0x12f4	; 0x12f4 <strcmp>
     4f8:	89 2b       	or	r24, r25
     4fa:	79 f4       	brne	.+30     	; 0x51a <__LOCK_REGION_LENGTH__+0x11a>
				printf("%d", readLed(led1));
     4fc:	80 e2       	ldi	r24, 0x20	; 32
     4fe:	0e 94 96 01 	call	0x32c	; 0x32c <readLed>
     502:	1f 92       	push	r1
     504:	8f 93       	push	r24
     506:	bf 92       	push	r11
     508:	af 92       	push	r10
     50a:	0e 94 ec 09 	call	0x13d8	; 0x13d8 <printf>
				userinput[0] = 0;
     50e:	19 82       	std	Y+1, r1	; 0x01
     510:	0f 90       	pop	r0
     512:	0f 90       	pop	r0
     514:	0f 90       	pop	r0
     516:	0f 90       	pop	r0
     518:	55 c0       	rjmp	.+170    	; 0x5c4 <__LOCK_REGION_LENGTH__+0x1c4>
				promptReady();
			}			
			else if(strcmp(userinput, "getbtn1")==0) {
     51a:	64 e4       	ldi	r22, 0x44	; 68
     51c:	71 e0       	ldi	r23, 0x01	; 1
     51e:	c8 01       	movw	r24, r16
     520:	0e 94 7a 09 	call	0x12f4	; 0x12f4 <strcmp>
     524:	89 2b       	or	r24, r25
     526:	81 f4       	brne	.+32     	; 0x548 <__LOCK_REGION_LENGTH__+0x148>
				printf("%d", btn1Pressed);				
     528:	80 91 9d 01 	lds	r24, 0x019D	; 0x80019d <btn1Pressed>
     52c:	1f 92       	push	r1
     52e:	8f 93       	push	r24
     530:	bf 92       	push	r11
     532:	af 92       	push	r10
     534:	0e 94 ec 09 	call	0x13d8	; 0x13d8 <printf>
				btn1Pressed = false;
     538:	10 92 9d 01 	sts	0x019D, r1	; 0x80019d <btn1Pressed>
				userinput[0] = 0;
     53c:	19 82       	std	Y+1, r1	; 0x01
     53e:	0f 90       	pop	r0
     540:	0f 90       	pop	r0
     542:	0f 90       	pop	r0
     544:	0f 90       	pop	r0
     546:	3e c0       	rjmp	.+124    	; 0x5c4 <__LOCK_REGION_LENGTH__+0x1c4>
				promptReady();
			}			
			else if(strcmp(userinput, "getadcval")==0) {
     548:	6c e4       	ldi	r22, 0x4C	; 76
     54a:	71 e0       	ldi	r23, 0x01	; 1
     54c:	c8 01       	movw	r24, r16
     54e:	0e 94 7a 09 	call	0x12f4	; 0x12f4 <strcmp>
     552:	89 2b       	or	r24, r25
     554:	71 f4       	brne	.+28     	; 0x572 <__LOCK_REGION_LENGTH__+0x172>
				printf("%d", startConversion());				
     556:	0e 94 a5 01 	call	0x34a	; 0x34a <startConversion>
     55a:	1f 92       	push	r1
     55c:	8f 93       	push	r24
     55e:	bf 92       	push	r11
     560:	af 92       	push	r10
     562:	0e 94 ec 09 	call	0x13d8	; 0x13d8 <printf>
				userinput[0] = 0;
     566:	19 82       	std	Y+1, r1	; 0x01
     568:	0f 90       	pop	r0
     56a:	0f 90       	pop	r0
     56c:	0f 90       	pop	r0
     56e:	0f 90       	pop	r0
     570:	29 c0       	rjmp	.+82     	; 0x5c4 <__LOCK_REGION_LENGTH__+0x1c4>
				promptReady();
			}
			else if(strstr(userinput, "error=") != NULL) {
     572:	66 e5       	ldi	r22, 0x56	; 86
     574:	71 e0       	ldi	r23, 0x01	; 1
     576:	c8 01       	movw	r24, r16
     578:	0e 94 8e 09 	call	0x131c	; 0x131c <strstr>
     57c:	89 2b       	or	r24, r25
     57e:	f1 f0       	breq	.+60     	; 0x5bc <__LOCK_REGION_LENGTH__+0x1bc>
				char inputArray[1] = {userinput[6]};
     580:	8f 81       	ldd	r24, Y+7	; 0x07
     582:	22 96       	adiw	r28, 0x02	; 2
     584:	8f af       	std	Y+63, r24	; 0x3f
     586:	22 97       	sbiw	r28, 0x02	; 2
				printf("error set to %d\n", atoi(inputArray));
     588:	ce 01       	movw	r24, r28
     58a:	8f 5b       	subi	r24, 0xBF	; 191
     58c:	9f 4f       	sbci	r25, 0xFF	; 255
     58e:	0e 94 79 08 	call	0x10f2	; 0x10f2 <atoi>
     592:	9f 93       	push	r25
     594:	8f 93       	push	r24
     596:	9f 92       	push	r9
     598:	8f 92       	push	r8
     59a:	0e 94 ec 09 	call	0x13d8	; 0x13d8 <printf>
				errorvar = atoi(inputArray);
     59e:	ce 01       	movw	r24, r28
     5a0:	8f 5b       	subi	r24, 0xBF	; 191
     5a2:	9f 4f       	sbci	r25, 0xFF	; 255
     5a4:	0e 94 79 08 	call	0x10f2	; 0x10f2 <atoi>
     5a8:	90 93 1d 01 	sts	0x011D, r25	; 0x80011d <errorvar+0x1>
     5ac:	80 93 1c 01 	sts	0x011C, r24	; 0x80011c <errorvar>
				userinput[0] = 0;
     5b0:	19 82       	std	Y+1, r1	; 0x01
     5b2:	0f 90       	pop	r0
     5b4:	0f 90       	pop	r0
     5b6:	0f 90       	pop	r0
     5b8:	0f 90       	pop	r0
     5ba:	04 c0       	rjmp	.+8      	; 0x5c4 <__LOCK_REGION_LENGTH__+0x1c4>
				promptReady();
			}
			else {
				printf("I'm sorry Dave, I'm afraid I can't do that\n");
     5bc:	8e e6       	ldi	r24, 0x6E	; 110
     5be:	91 e0       	ldi	r25, 0x01	; 1
     5c0:	0e 94 02 0a 	call	0x1404	; 0x1404 <puts>
				promptReady();
			}
			UartInput = false;			
     5c4:	10 92 9c 01 	sts	0x019C, r1	; 0x80019c <UartInput>
		}
		switch(errorvar)
     5c8:	80 91 1c 01 	lds	r24, 0x011C	; 0x80011c <errorvar>
     5cc:	90 91 1d 01 	lds	r25, 0x011D	; 0x80011d <errorvar+0x1>
     5d0:	83 30       	cpi	r24, 0x03	; 3
     5d2:	91 05       	cpc	r25, r1
     5d4:	d9 f0       	breq	.+54     	; 0x60c <__LOCK_REGION_LENGTH__+0x20c>
     5d6:	30 f4       	brcc	.+12     	; 0x5e4 <__LOCK_REGION_LENGTH__+0x1e4>
     5d8:	81 30       	cpi	r24, 0x01	; 1
     5da:	91 05       	cpc	r25, r1
     5dc:	49 f0       	breq	.+18     	; 0x5f0 <__LOCK_REGION_LENGTH__+0x1f0>
     5de:	02 97       	sbiw	r24, 0x02	; 2
     5e0:	71 f0       	breq	.+28     	; 0x5fe <__LOCK_REGION_LENGTH__+0x1fe>
     5e2:	29 c0       	rjmp	.+82     	; 0x636 <__LOCK_REGION_LENGTH__+0x236>
     5e4:	84 30       	cpi	r24, 0x04	; 4
     5e6:	91 05       	cpc	r25, r1
     5e8:	c1 f0       	breq	.+48     	; 0x61a <__LOCK_REGION_LENGTH__+0x21a>
     5ea:	05 97       	sbiw	r24, 0x05	; 5
     5ec:	e9 f0       	breq	.+58     	; 0x628 <__LOCK_REGION_LENGTH__+0x228>
     5ee:	23 c0       	rjmp	.+70     	; 0x636 <__LOCK_REGION_LENGTH__+0x236>
		 {
			 case 1:
			 error(0, ledB);
     5f0:	62 e0       	ldi	r22, 0x02	; 2
     5f2:	70 e0       	ldi	r23, 0x00	; 0
     5f4:	80 e0       	ldi	r24, 0x00	; 0
     5f6:	90 e0       	ldi	r25, 0x00	; 0
     5f8:	0e 94 d8 01 	call	0x3b0	; 0x3b0 <error>
			 break;
     5fc:	37 cf       	rjmp	.-402    	; 0x46c <__LOCK_REGION_LENGTH__+0x6c>
			 
			 case 2:
			 error(0, ledR);
     5fe:	68 e0       	ldi	r22, 0x08	; 8
     600:	70 e0       	ldi	r23, 0x00	; 0
     602:	80 e0       	ldi	r24, 0x00	; 0
     604:	90 e0       	ldi	r25, 0x00	; 0
     606:	0e 94 d8 01 	call	0x3b0	; 0x3b0 <error>
			 break;
     60a:	30 cf       	rjmp	.-416    	; 0x46c <__LOCK_REGION_LENGTH__+0x6c>
			 
			 case 3:
			 error(1, ledR);
     60c:	68 e0       	ldi	r22, 0x08	; 8
     60e:	70 e0       	ldi	r23, 0x00	; 0
     610:	81 e0       	ldi	r24, 0x01	; 1
     612:	90 e0       	ldi	r25, 0x00	; 0
     614:	0e 94 d8 01 	call	0x3b0	; 0x3b0 <error>
			 break;
     618:	29 cf       	rjmp	.-430    	; 0x46c <__LOCK_REGION_LENGTH__+0x6c>
			 
			 case 4:
			 error(1, ledB);
     61a:	62 e0       	ldi	r22, 0x02	; 2
     61c:	70 e0       	ldi	r23, 0x00	; 0
     61e:	81 e0       	ldi	r24, 0x01	; 1
     620:	90 e0       	ldi	r25, 0x00	; 0
     622:	0e 94 d8 01 	call	0x3b0	; 0x3b0 <error>
			 break;
     626:	22 cf       	rjmp	.-444    	; 0x46c <__LOCK_REGION_LENGTH__+0x6c>
			 
			 case 5:
			 error(1, ledG);
     628:	64 e0       	ldi	r22, 0x04	; 4
     62a:	70 e0       	ldi	r23, 0x00	; 0
     62c:	81 e0       	ldi	r24, 0x01	; 1
     62e:	90 e0       	ldi	r25, 0x00	; 0
     630:	0e 94 d8 01 	call	0x3b0	; 0x3b0 <error>
			 break;
     634:	1b cf       	rjmp	.-458    	; 0x46c <__LOCK_REGION_LENGTH__+0x6c>
			 
			 default:
			 error(0, ledG);
     636:	64 e0       	ldi	r22, 0x04	; 4
     638:	70 e0       	ldi	r23, 0x00	; 0
     63a:	80 e0       	ldi	r24, 0x00	; 0
     63c:	90 e0       	ldi	r25, 0x00	; 0
     63e:	0e 94 d8 01 	call	0x3b0	; 0x3b0 <error>
			 break;
     642:	14 cf       	rjmp	.-472    	; 0x46c <__LOCK_REGION_LENGTH__+0x6c>

00000644 <__subsf3>:
     644:	50 58       	subi	r21, 0x80	; 128

00000646 <__addsf3>:
     646:	bb 27       	eor	r27, r27
     648:	aa 27       	eor	r26, r26
     64a:	0e 94 3a 03 	call	0x674	; 0x674 <__addsf3x>
     64e:	0c 94 8b 04 	jmp	0x916	; 0x916 <__fp_round>
     652:	0e 94 7d 04 	call	0x8fa	; 0x8fa <__fp_pscA>
     656:	38 f0       	brcs	.+14     	; 0x666 <__addsf3+0x20>
     658:	0e 94 84 04 	call	0x908	; 0x908 <__fp_pscB>
     65c:	20 f0       	brcs	.+8      	; 0x666 <__addsf3+0x20>
     65e:	39 f4       	brne	.+14     	; 0x66e <__addsf3+0x28>
     660:	9f 3f       	cpi	r25, 0xFF	; 255
     662:	19 f4       	brne	.+6      	; 0x66a <__addsf3+0x24>
     664:	26 f4       	brtc	.+8      	; 0x66e <__addsf3+0x28>
     666:	0c 94 7a 04 	jmp	0x8f4	; 0x8f4 <__fp_nan>
     66a:	0e f4       	brtc	.+2      	; 0x66e <__addsf3+0x28>
     66c:	e0 95       	com	r30
     66e:	e7 fb       	bst	r30, 7
     670:	0c 94 74 04 	jmp	0x8e8	; 0x8e8 <__fp_inf>

00000674 <__addsf3x>:
     674:	e9 2f       	mov	r30, r25
     676:	0e 94 9c 04 	call	0x938	; 0x938 <__fp_split3>
     67a:	58 f3       	brcs	.-42     	; 0x652 <__addsf3+0xc>
     67c:	ba 17       	cp	r27, r26
     67e:	62 07       	cpc	r22, r18
     680:	73 07       	cpc	r23, r19
     682:	84 07       	cpc	r24, r20
     684:	95 07       	cpc	r25, r21
     686:	20 f0       	brcs	.+8      	; 0x690 <__addsf3x+0x1c>
     688:	79 f4       	brne	.+30     	; 0x6a8 <__addsf3x+0x34>
     68a:	a6 f5       	brtc	.+104    	; 0x6f4 <__addsf3x+0x80>
     68c:	0c 94 be 04 	jmp	0x97c	; 0x97c <__fp_zero>
     690:	0e f4       	brtc	.+2      	; 0x694 <__addsf3x+0x20>
     692:	e0 95       	com	r30
     694:	0b 2e       	mov	r0, r27
     696:	ba 2f       	mov	r27, r26
     698:	a0 2d       	mov	r26, r0
     69a:	0b 01       	movw	r0, r22
     69c:	b9 01       	movw	r22, r18
     69e:	90 01       	movw	r18, r0
     6a0:	0c 01       	movw	r0, r24
     6a2:	ca 01       	movw	r24, r20
     6a4:	a0 01       	movw	r20, r0
     6a6:	11 24       	eor	r1, r1
     6a8:	ff 27       	eor	r31, r31
     6aa:	59 1b       	sub	r21, r25
     6ac:	99 f0       	breq	.+38     	; 0x6d4 <__addsf3x+0x60>
     6ae:	59 3f       	cpi	r21, 0xF9	; 249
     6b0:	50 f4       	brcc	.+20     	; 0x6c6 <__addsf3x+0x52>
     6b2:	50 3e       	cpi	r21, 0xE0	; 224
     6b4:	68 f1       	brcs	.+90     	; 0x710 <__addsf3x+0x9c>
     6b6:	1a 16       	cp	r1, r26
     6b8:	f0 40       	sbci	r31, 0x00	; 0
     6ba:	a2 2f       	mov	r26, r18
     6bc:	23 2f       	mov	r18, r19
     6be:	34 2f       	mov	r19, r20
     6c0:	44 27       	eor	r20, r20
     6c2:	58 5f       	subi	r21, 0xF8	; 248
     6c4:	f3 cf       	rjmp	.-26     	; 0x6ac <__addsf3x+0x38>
     6c6:	46 95       	lsr	r20
     6c8:	37 95       	ror	r19
     6ca:	27 95       	ror	r18
     6cc:	a7 95       	ror	r26
     6ce:	f0 40       	sbci	r31, 0x00	; 0
     6d0:	53 95       	inc	r21
     6d2:	c9 f7       	brne	.-14     	; 0x6c6 <__addsf3x+0x52>
     6d4:	7e f4       	brtc	.+30     	; 0x6f4 <__addsf3x+0x80>
     6d6:	1f 16       	cp	r1, r31
     6d8:	ba 0b       	sbc	r27, r26
     6da:	62 0b       	sbc	r22, r18
     6dc:	73 0b       	sbc	r23, r19
     6de:	84 0b       	sbc	r24, r20
     6e0:	ba f0       	brmi	.+46     	; 0x710 <__addsf3x+0x9c>
     6e2:	91 50       	subi	r25, 0x01	; 1
     6e4:	a1 f0       	breq	.+40     	; 0x70e <__addsf3x+0x9a>
     6e6:	ff 0f       	add	r31, r31
     6e8:	bb 1f       	adc	r27, r27
     6ea:	66 1f       	adc	r22, r22
     6ec:	77 1f       	adc	r23, r23
     6ee:	88 1f       	adc	r24, r24
     6f0:	c2 f7       	brpl	.-16     	; 0x6e2 <__addsf3x+0x6e>
     6f2:	0e c0       	rjmp	.+28     	; 0x710 <__addsf3x+0x9c>
     6f4:	ba 0f       	add	r27, r26
     6f6:	62 1f       	adc	r22, r18
     6f8:	73 1f       	adc	r23, r19
     6fa:	84 1f       	adc	r24, r20
     6fc:	48 f4       	brcc	.+18     	; 0x710 <__addsf3x+0x9c>
     6fe:	87 95       	ror	r24
     700:	77 95       	ror	r23
     702:	67 95       	ror	r22
     704:	b7 95       	ror	r27
     706:	f7 95       	ror	r31
     708:	9e 3f       	cpi	r25, 0xFE	; 254
     70a:	08 f0       	brcs	.+2      	; 0x70e <__addsf3x+0x9a>
     70c:	b0 cf       	rjmp	.-160    	; 0x66e <__addsf3+0x28>
     70e:	93 95       	inc	r25
     710:	88 0f       	add	r24, r24
     712:	08 f0       	brcs	.+2      	; 0x716 <__addsf3x+0xa2>
     714:	99 27       	eor	r25, r25
     716:	ee 0f       	add	r30, r30
     718:	97 95       	ror	r25
     71a:	87 95       	ror	r24
     71c:	08 95       	ret

0000071e <__divsf3>:
     71e:	0e 94 a3 03 	call	0x746	; 0x746 <__divsf3x>
     722:	0c 94 8b 04 	jmp	0x916	; 0x916 <__fp_round>
     726:	0e 94 84 04 	call	0x908	; 0x908 <__fp_pscB>
     72a:	58 f0       	brcs	.+22     	; 0x742 <__divsf3+0x24>
     72c:	0e 94 7d 04 	call	0x8fa	; 0x8fa <__fp_pscA>
     730:	40 f0       	brcs	.+16     	; 0x742 <__divsf3+0x24>
     732:	29 f4       	brne	.+10     	; 0x73e <__divsf3+0x20>
     734:	5f 3f       	cpi	r21, 0xFF	; 255
     736:	29 f0       	breq	.+10     	; 0x742 <__divsf3+0x24>
     738:	0c 94 74 04 	jmp	0x8e8	; 0x8e8 <__fp_inf>
     73c:	51 11       	cpse	r21, r1
     73e:	0c 94 bf 04 	jmp	0x97e	; 0x97e <__fp_szero>
     742:	0c 94 7a 04 	jmp	0x8f4	; 0x8f4 <__fp_nan>

00000746 <__divsf3x>:
     746:	0e 94 9c 04 	call	0x938	; 0x938 <__fp_split3>
     74a:	68 f3       	brcs	.-38     	; 0x726 <__divsf3+0x8>

0000074c <__divsf3_pse>:
     74c:	99 23       	and	r25, r25
     74e:	b1 f3       	breq	.-20     	; 0x73c <__divsf3+0x1e>
     750:	55 23       	and	r21, r21
     752:	91 f3       	breq	.-28     	; 0x738 <__divsf3+0x1a>
     754:	95 1b       	sub	r25, r21
     756:	55 0b       	sbc	r21, r21
     758:	bb 27       	eor	r27, r27
     75a:	aa 27       	eor	r26, r26
     75c:	62 17       	cp	r22, r18
     75e:	73 07       	cpc	r23, r19
     760:	84 07       	cpc	r24, r20
     762:	38 f0       	brcs	.+14     	; 0x772 <__divsf3_pse+0x26>
     764:	9f 5f       	subi	r25, 0xFF	; 255
     766:	5f 4f       	sbci	r21, 0xFF	; 255
     768:	22 0f       	add	r18, r18
     76a:	33 1f       	adc	r19, r19
     76c:	44 1f       	adc	r20, r20
     76e:	aa 1f       	adc	r26, r26
     770:	a9 f3       	breq	.-22     	; 0x75c <__divsf3_pse+0x10>
     772:	35 d0       	rcall	.+106    	; 0x7de <__divsf3_pse+0x92>
     774:	0e 2e       	mov	r0, r30
     776:	3a f0       	brmi	.+14     	; 0x786 <__divsf3_pse+0x3a>
     778:	e0 e8       	ldi	r30, 0x80	; 128
     77a:	32 d0       	rcall	.+100    	; 0x7e0 <__divsf3_pse+0x94>
     77c:	91 50       	subi	r25, 0x01	; 1
     77e:	50 40       	sbci	r21, 0x00	; 0
     780:	e6 95       	lsr	r30
     782:	00 1c       	adc	r0, r0
     784:	ca f7       	brpl	.-14     	; 0x778 <__divsf3_pse+0x2c>
     786:	2b d0       	rcall	.+86     	; 0x7de <__divsf3_pse+0x92>
     788:	fe 2f       	mov	r31, r30
     78a:	29 d0       	rcall	.+82     	; 0x7de <__divsf3_pse+0x92>
     78c:	66 0f       	add	r22, r22
     78e:	77 1f       	adc	r23, r23
     790:	88 1f       	adc	r24, r24
     792:	bb 1f       	adc	r27, r27
     794:	26 17       	cp	r18, r22
     796:	37 07       	cpc	r19, r23
     798:	48 07       	cpc	r20, r24
     79a:	ab 07       	cpc	r26, r27
     79c:	b0 e8       	ldi	r27, 0x80	; 128
     79e:	09 f0       	breq	.+2      	; 0x7a2 <__divsf3_pse+0x56>
     7a0:	bb 0b       	sbc	r27, r27
     7a2:	80 2d       	mov	r24, r0
     7a4:	bf 01       	movw	r22, r30
     7a6:	ff 27       	eor	r31, r31
     7a8:	93 58       	subi	r25, 0x83	; 131
     7aa:	5f 4f       	sbci	r21, 0xFF	; 255
     7ac:	3a f0       	brmi	.+14     	; 0x7bc <__divsf3_pse+0x70>
     7ae:	9e 3f       	cpi	r25, 0xFE	; 254
     7b0:	51 05       	cpc	r21, r1
     7b2:	78 f0       	brcs	.+30     	; 0x7d2 <__divsf3_pse+0x86>
     7b4:	0c 94 74 04 	jmp	0x8e8	; 0x8e8 <__fp_inf>
     7b8:	0c 94 bf 04 	jmp	0x97e	; 0x97e <__fp_szero>
     7bc:	5f 3f       	cpi	r21, 0xFF	; 255
     7be:	e4 f3       	brlt	.-8      	; 0x7b8 <__divsf3_pse+0x6c>
     7c0:	98 3e       	cpi	r25, 0xE8	; 232
     7c2:	d4 f3       	brlt	.-12     	; 0x7b8 <__divsf3_pse+0x6c>
     7c4:	86 95       	lsr	r24
     7c6:	77 95       	ror	r23
     7c8:	67 95       	ror	r22
     7ca:	b7 95       	ror	r27
     7cc:	f7 95       	ror	r31
     7ce:	9f 5f       	subi	r25, 0xFF	; 255
     7d0:	c9 f7       	brne	.-14     	; 0x7c4 <__divsf3_pse+0x78>
     7d2:	88 0f       	add	r24, r24
     7d4:	91 1d       	adc	r25, r1
     7d6:	96 95       	lsr	r25
     7d8:	87 95       	ror	r24
     7da:	97 f9       	bld	r25, 7
     7dc:	08 95       	ret
     7de:	e1 e0       	ldi	r30, 0x01	; 1
     7e0:	66 0f       	add	r22, r22
     7e2:	77 1f       	adc	r23, r23
     7e4:	88 1f       	adc	r24, r24
     7e6:	bb 1f       	adc	r27, r27
     7e8:	62 17       	cp	r22, r18
     7ea:	73 07       	cpc	r23, r19
     7ec:	84 07       	cpc	r24, r20
     7ee:	ba 07       	cpc	r27, r26
     7f0:	20 f0       	brcs	.+8      	; 0x7fa <__divsf3_pse+0xae>
     7f2:	62 1b       	sub	r22, r18
     7f4:	73 0b       	sbc	r23, r19
     7f6:	84 0b       	sbc	r24, r20
     7f8:	ba 0b       	sbc	r27, r26
     7fa:	ee 1f       	adc	r30, r30
     7fc:	88 f7       	brcc	.-30     	; 0x7e0 <__divsf3_pse+0x94>
     7fe:	e0 95       	com	r30
     800:	08 95       	ret

00000802 <__fixsfsi>:
     802:	0e 94 08 04 	call	0x810	; 0x810 <__fixunssfsi>
     806:	68 94       	set
     808:	b1 11       	cpse	r27, r1
     80a:	0c 94 bf 04 	jmp	0x97e	; 0x97e <__fp_szero>
     80e:	08 95       	ret

00000810 <__fixunssfsi>:
     810:	0e 94 a4 04 	call	0x948	; 0x948 <__fp_splitA>
     814:	88 f0       	brcs	.+34     	; 0x838 <__fixunssfsi+0x28>
     816:	9f 57       	subi	r25, 0x7F	; 127
     818:	98 f0       	brcs	.+38     	; 0x840 <__fixunssfsi+0x30>
     81a:	b9 2f       	mov	r27, r25
     81c:	99 27       	eor	r25, r25
     81e:	b7 51       	subi	r27, 0x17	; 23
     820:	b0 f0       	brcs	.+44     	; 0x84e <__fixunssfsi+0x3e>
     822:	e1 f0       	breq	.+56     	; 0x85c <__fixunssfsi+0x4c>
     824:	66 0f       	add	r22, r22
     826:	77 1f       	adc	r23, r23
     828:	88 1f       	adc	r24, r24
     82a:	99 1f       	adc	r25, r25
     82c:	1a f0       	brmi	.+6      	; 0x834 <__fixunssfsi+0x24>
     82e:	ba 95       	dec	r27
     830:	c9 f7       	brne	.-14     	; 0x824 <__fixunssfsi+0x14>
     832:	14 c0       	rjmp	.+40     	; 0x85c <__fixunssfsi+0x4c>
     834:	b1 30       	cpi	r27, 0x01	; 1
     836:	91 f0       	breq	.+36     	; 0x85c <__fixunssfsi+0x4c>
     838:	0e 94 be 04 	call	0x97c	; 0x97c <__fp_zero>
     83c:	b1 e0       	ldi	r27, 0x01	; 1
     83e:	08 95       	ret
     840:	0c 94 be 04 	jmp	0x97c	; 0x97c <__fp_zero>
     844:	67 2f       	mov	r22, r23
     846:	78 2f       	mov	r23, r24
     848:	88 27       	eor	r24, r24
     84a:	b8 5f       	subi	r27, 0xF8	; 248
     84c:	39 f0       	breq	.+14     	; 0x85c <__fixunssfsi+0x4c>
     84e:	b9 3f       	cpi	r27, 0xF9	; 249
     850:	cc f3       	brlt	.-14     	; 0x844 <__fixunssfsi+0x34>
     852:	86 95       	lsr	r24
     854:	77 95       	ror	r23
     856:	67 95       	ror	r22
     858:	b3 95       	inc	r27
     85a:	d9 f7       	brne	.-10     	; 0x852 <__fixunssfsi+0x42>
     85c:	3e f4       	brtc	.+14     	; 0x86c <__fixunssfsi+0x5c>
     85e:	90 95       	com	r25
     860:	80 95       	com	r24
     862:	70 95       	com	r23
     864:	61 95       	neg	r22
     866:	7f 4f       	sbci	r23, 0xFF	; 255
     868:	8f 4f       	sbci	r24, 0xFF	; 255
     86a:	9f 4f       	sbci	r25, 0xFF	; 255
     86c:	08 95       	ret

0000086e <__floatunsisf>:
     86e:	e8 94       	clt
     870:	09 c0       	rjmp	.+18     	; 0x884 <__floatsisf+0x12>

00000872 <__floatsisf>:
     872:	97 fb       	bst	r25, 7
     874:	3e f4       	brtc	.+14     	; 0x884 <__floatsisf+0x12>
     876:	90 95       	com	r25
     878:	80 95       	com	r24
     87a:	70 95       	com	r23
     87c:	61 95       	neg	r22
     87e:	7f 4f       	sbci	r23, 0xFF	; 255
     880:	8f 4f       	sbci	r24, 0xFF	; 255
     882:	9f 4f       	sbci	r25, 0xFF	; 255
     884:	99 23       	and	r25, r25
     886:	a9 f0       	breq	.+42     	; 0x8b2 <__floatsisf+0x40>
     888:	f9 2f       	mov	r31, r25
     88a:	96 e9       	ldi	r25, 0x96	; 150
     88c:	bb 27       	eor	r27, r27
     88e:	93 95       	inc	r25
     890:	f6 95       	lsr	r31
     892:	87 95       	ror	r24
     894:	77 95       	ror	r23
     896:	67 95       	ror	r22
     898:	b7 95       	ror	r27
     89a:	f1 11       	cpse	r31, r1
     89c:	f8 cf       	rjmp	.-16     	; 0x88e <__floatsisf+0x1c>
     89e:	fa f4       	brpl	.+62     	; 0x8de <__floatsisf+0x6c>
     8a0:	bb 0f       	add	r27, r27
     8a2:	11 f4       	brne	.+4      	; 0x8a8 <__floatsisf+0x36>
     8a4:	60 ff       	sbrs	r22, 0
     8a6:	1b c0       	rjmp	.+54     	; 0x8de <__floatsisf+0x6c>
     8a8:	6f 5f       	subi	r22, 0xFF	; 255
     8aa:	7f 4f       	sbci	r23, 0xFF	; 255
     8ac:	8f 4f       	sbci	r24, 0xFF	; 255
     8ae:	9f 4f       	sbci	r25, 0xFF	; 255
     8b0:	16 c0       	rjmp	.+44     	; 0x8de <__floatsisf+0x6c>
     8b2:	88 23       	and	r24, r24
     8b4:	11 f0       	breq	.+4      	; 0x8ba <__floatsisf+0x48>
     8b6:	96 e9       	ldi	r25, 0x96	; 150
     8b8:	11 c0       	rjmp	.+34     	; 0x8dc <__floatsisf+0x6a>
     8ba:	77 23       	and	r23, r23
     8bc:	21 f0       	breq	.+8      	; 0x8c6 <__floatsisf+0x54>
     8be:	9e e8       	ldi	r25, 0x8E	; 142
     8c0:	87 2f       	mov	r24, r23
     8c2:	76 2f       	mov	r23, r22
     8c4:	05 c0       	rjmp	.+10     	; 0x8d0 <__floatsisf+0x5e>
     8c6:	66 23       	and	r22, r22
     8c8:	71 f0       	breq	.+28     	; 0x8e6 <__floatsisf+0x74>
     8ca:	96 e8       	ldi	r25, 0x86	; 134
     8cc:	86 2f       	mov	r24, r22
     8ce:	70 e0       	ldi	r23, 0x00	; 0
     8d0:	60 e0       	ldi	r22, 0x00	; 0
     8d2:	2a f0       	brmi	.+10     	; 0x8de <__floatsisf+0x6c>
     8d4:	9a 95       	dec	r25
     8d6:	66 0f       	add	r22, r22
     8d8:	77 1f       	adc	r23, r23
     8da:	88 1f       	adc	r24, r24
     8dc:	da f7       	brpl	.-10     	; 0x8d4 <__floatsisf+0x62>
     8de:	88 0f       	add	r24, r24
     8e0:	96 95       	lsr	r25
     8e2:	87 95       	ror	r24
     8e4:	97 f9       	bld	r25, 7
     8e6:	08 95       	ret

000008e8 <__fp_inf>:
     8e8:	97 f9       	bld	r25, 7
     8ea:	9f 67       	ori	r25, 0x7F	; 127
     8ec:	80 e8       	ldi	r24, 0x80	; 128
     8ee:	70 e0       	ldi	r23, 0x00	; 0
     8f0:	60 e0       	ldi	r22, 0x00	; 0
     8f2:	08 95       	ret

000008f4 <__fp_nan>:
     8f4:	9f ef       	ldi	r25, 0xFF	; 255
     8f6:	80 ec       	ldi	r24, 0xC0	; 192
     8f8:	08 95       	ret

000008fa <__fp_pscA>:
     8fa:	00 24       	eor	r0, r0
     8fc:	0a 94       	dec	r0
     8fe:	16 16       	cp	r1, r22
     900:	17 06       	cpc	r1, r23
     902:	18 06       	cpc	r1, r24
     904:	09 06       	cpc	r0, r25
     906:	08 95       	ret

00000908 <__fp_pscB>:
     908:	00 24       	eor	r0, r0
     90a:	0a 94       	dec	r0
     90c:	12 16       	cp	r1, r18
     90e:	13 06       	cpc	r1, r19
     910:	14 06       	cpc	r1, r20
     912:	05 06       	cpc	r0, r21
     914:	08 95       	ret

00000916 <__fp_round>:
     916:	09 2e       	mov	r0, r25
     918:	03 94       	inc	r0
     91a:	00 0c       	add	r0, r0
     91c:	11 f4       	brne	.+4      	; 0x922 <__fp_round+0xc>
     91e:	88 23       	and	r24, r24
     920:	52 f0       	brmi	.+20     	; 0x936 <__fp_round+0x20>
     922:	bb 0f       	add	r27, r27
     924:	40 f4       	brcc	.+16     	; 0x936 <__fp_round+0x20>
     926:	bf 2b       	or	r27, r31
     928:	11 f4       	brne	.+4      	; 0x92e <__fp_round+0x18>
     92a:	60 ff       	sbrs	r22, 0
     92c:	04 c0       	rjmp	.+8      	; 0x936 <__fp_round+0x20>
     92e:	6f 5f       	subi	r22, 0xFF	; 255
     930:	7f 4f       	sbci	r23, 0xFF	; 255
     932:	8f 4f       	sbci	r24, 0xFF	; 255
     934:	9f 4f       	sbci	r25, 0xFF	; 255
     936:	08 95       	ret

00000938 <__fp_split3>:
     938:	57 fd       	sbrc	r21, 7
     93a:	90 58       	subi	r25, 0x80	; 128
     93c:	44 0f       	add	r20, r20
     93e:	55 1f       	adc	r21, r21
     940:	59 f0       	breq	.+22     	; 0x958 <__fp_splitA+0x10>
     942:	5f 3f       	cpi	r21, 0xFF	; 255
     944:	71 f0       	breq	.+28     	; 0x962 <__fp_splitA+0x1a>
     946:	47 95       	ror	r20

00000948 <__fp_splitA>:
     948:	88 0f       	add	r24, r24
     94a:	97 fb       	bst	r25, 7
     94c:	99 1f       	adc	r25, r25
     94e:	61 f0       	breq	.+24     	; 0x968 <__fp_splitA+0x20>
     950:	9f 3f       	cpi	r25, 0xFF	; 255
     952:	79 f0       	breq	.+30     	; 0x972 <__fp_splitA+0x2a>
     954:	87 95       	ror	r24
     956:	08 95       	ret
     958:	12 16       	cp	r1, r18
     95a:	13 06       	cpc	r1, r19
     95c:	14 06       	cpc	r1, r20
     95e:	55 1f       	adc	r21, r21
     960:	f2 cf       	rjmp	.-28     	; 0x946 <__fp_split3+0xe>
     962:	46 95       	lsr	r20
     964:	f1 df       	rcall	.-30     	; 0x948 <__fp_splitA>
     966:	08 c0       	rjmp	.+16     	; 0x978 <__fp_splitA+0x30>
     968:	16 16       	cp	r1, r22
     96a:	17 06       	cpc	r1, r23
     96c:	18 06       	cpc	r1, r24
     96e:	99 1f       	adc	r25, r25
     970:	f1 cf       	rjmp	.-30     	; 0x954 <__fp_splitA+0xc>
     972:	86 95       	lsr	r24
     974:	71 05       	cpc	r23, r1
     976:	61 05       	cpc	r22, r1
     978:	08 94       	sec
     97a:	08 95       	ret

0000097c <__fp_zero>:
     97c:	e8 94       	clt

0000097e <__fp_szero>:
     97e:	bb 27       	eor	r27, r27
     980:	66 27       	eor	r22, r22
     982:	77 27       	eor	r23, r23
     984:	cb 01       	movw	r24, r22
     986:	97 f9       	bld	r25, 7
     988:	08 95       	ret

0000098a <vfprintf>:
     98a:	a0 e1       	ldi	r26, 0x10	; 16
     98c:	b0 e0       	ldi	r27, 0x00	; 0
     98e:	eb ec       	ldi	r30, 0xCB	; 203
     990:	f4 e0       	ldi	r31, 0x04	; 4
     992:	0c 94 42 08 	jmp	0x1084	; 0x1084 <__prologue_saves__>
     996:	7c 01       	movw	r14, r24
     998:	1b 01       	movw	r2, r22
     99a:	6a 01       	movw	r12, r20
     99c:	fc 01       	movw	r30, r24
     99e:	17 82       	std	Z+7, r1	; 0x07
     9a0:	16 82       	std	Z+6, r1	; 0x06
     9a2:	83 81       	ldd	r24, Z+3	; 0x03
     9a4:	81 ff       	sbrs	r24, 1
     9a6:	44 c3       	rjmp	.+1672   	; 0x1030 <vfprintf+0x6a6>
     9a8:	9e 01       	movw	r18, r28
     9aa:	2f 5f       	subi	r18, 0xFF	; 255
     9ac:	3f 4f       	sbci	r19, 0xFF	; 255
     9ae:	39 01       	movw	r6, r18
     9b0:	f7 01       	movw	r30, r14
     9b2:	93 81       	ldd	r25, Z+3	; 0x03
     9b4:	f1 01       	movw	r30, r2
     9b6:	93 fd       	sbrc	r25, 3
     9b8:	85 91       	lpm	r24, Z+
     9ba:	93 ff       	sbrs	r25, 3
     9bc:	81 91       	ld	r24, Z+
     9be:	1f 01       	movw	r2, r30
     9c0:	88 23       	and	r24, r24
     9c2:	09 f4       	brne	.+2      	; 0x9c6 <vfprintf+0x3c>
     9c4:	31 c3       	rjmp	.+1634   	; 0x1028 <vfprintf+0x69e>
     9c6:	85 32       	cpi	r24, 0x25	; 37
     9c8:	39 f4       	brne	.+14     	; 0x9d8 <vfprintf+0x4e>
     9ca:	93 fd       	sbrc	r25, 3
     9cc:	85 91       	lpm	r24, Z+
     9ce:	93 ff       	sbrs	r25, 3
     9d0:	81 91       	ld	r24, Z+
     9d2:	1f 01       	movw	r2, r30
     9d4:	85 32       	cpi	r24, 0x25	; 37
     9d6:	39 f4       	brne	.+14     	; 0x9e6 <vfprintf+0x5c>
     9d8:	b7 01       	movw	r22, r14
     9da:	90 e0       	ldi	r25, 0x00	; 0
     9dc:	0e 94 b0 09 	call	0x1360	; 0x1360 <fputc>
     9e0:	56 01       	movw	r10, r12
     9e2:	65 01       	movw	r12, r10
     9e4:	e5 cf       	rjmp	.-54     	; 0x9b0 <vfprintf+0x26>
     9e6:	10 e0       	ldi	r17, 0x00	; 0
     9e8:	51 2c       	mov	r5, r1
     9ea:	91 2c       	mov	r9, r1
     9ec:	ff e1       	ldi	r31, 0x1F	; 31
     9ee:	f9 15       	cp	r31, r9
     9f0:	d8 f0       	brcs	.+54     	; 0xa28 <vfprintf+0x9e>
     9f2:	8b 32       	cpi	r24, 0x2B	; 43
     9f4:	79 f0       	breq	.+30     	; 0xa14 <vfprintf+0x8a>
     9f6:	38 f4       	brcc	.+14     	; 0xa06 <vfprintf+0x7c>
     9f8:	80 32       	cpi	r24, 0x20	; 32
     9fa:	79 f0       	breq	.+30     	; 0xa1a <vfprintf+0x90>
     9fc:	83 32       	cpi	r24, 0x23	; 35
     9fe:	a1 f4       	brne	.+40     	; 0xa28 <vfprintf+0x9e>
     a00:	f9 2d       	mov	r31, r9
     a02:	f0 61       	ori	r31, 0x10	; 16
     a04:	2e c0       	rjmp	.+92     	; 0xa62 <vfprintf+0xd8>
     a06:	8d 32       	cpi	r24, 0x2D	; 45
     a08:	61 f0       	breq	.+24     	; 0xa22 <vfprintf+0x98>
     a0a:	80 33       	cpi	r24, 0x30	; 48
     a0c:	69 f4       	brne	.+26     	; 0xa28 <vfprintf+0x9e>
     a0e:	29 2d       	mov	r18, r9
     a10:	21 60       	ori	r18, 0x01	; 1
     a12:	2d c0       	rjmp	.+90     	; 0xa6e <vfprintf+0xe4>
     a14:	39 2d       	mov	r19, r9
     a16:	32 60       	ori	r19, 0x02	; 2
     a18:	93 2e       	mov	r9, r19
     a1a:	89 2d       	mov	r24, r9
     a1c:	84 60       	ori	r24, 0x04	; 4
     a1e:	98 2e       	mov	r9, r24
     a20:	2a c0       	rjmp	.+84     	; 0xa76 <vfprintf+0xec>
     a22:	e9 2d       	mov	r30, r9
     a24:	e8 60       	ori	r30, 0x08	; 8
     a26:	15 c0       	rjmp	.+42     	; 0xa52 <vfprintf+0xc8>
     a28:	97 fc       	sbrc	r9, 7
     a2a:	2d c0       	rjmp	.+90     	; 0xa86 <vfprintf+0xfc>
     a2c:	20 ed       	ldi	r18, 0xD0	; 208
     a2e:	28 0f       	add	r18, r24
     a30:	2a 30       	cpi	r18, 0x0A	; 10
     a32:	88 f4       	brcc	.+34     	; 0xa56 <vfprintf+0xcc>
     a34:	96 fe       	sbrs	r9, 6
     a36:	06 c0       	rjmp	.+12     	; 0xa44 <vfprintf+0xba>
     a38:	3a e0       	ldi	r19, 0x0A	; 10
     a3a:	13 9f       	mul	r17, r19
     a3c:	20 0d       	add	r18, r0
     a3e:	11 24       	eor	r1, r1
     a40:	12 2f       	mov	r17, r18
     a42:	19 c0       	rjmp	.+50     	; 0xa76 <vfprintf+0xec>
     a44:	8a e0       	ldi	r24, 0x0A	; 10
     a46:	58 9e       	mul	r5, r24
     a48:	20 0d       	add	r18, r0
     a4a:	11 24       	eor	r1, r1
     a4c:	52 2e       	mov	r5, r18
     a4e:	e9 2d       	mov	r30, r9
     a50:	e0 62       	ori	r30, 0x20	; 32
     a52:	9e 2e       	mov	r9, r30
     a54:	10 c0       	rjmp	.+32     	; 0xa76 <vfprintf+0xec>
     a56:	8e 32       	cpi	r24, 0x2E	; 46
     a58:	31 f4       	brne	.+12     	; 0xa66 <vfprintf+0xdc>
     a5a:	96 fc       	sbrc	r9, 6
     a5c:	e5 c2       	rjmp	.+1482   	; 0x1028 <vfprintf+0x69e>
     a5e:	f9 2d       	mov	r31, r9
     a60:	f0 64       	ori	r31, 0x40	; 64
     a62:	9f 2e       	mov	r9, r31
     a64:	08 c0       	rjmp	.+16     	; 0xa76 <vfprintf+0xec>
     a66:	8c 36       	cpi	r24, 0x6C	; 108
     a68:	21 f4       	brne	.+8      	; 0xa72 <vfprintf+0xe8>
     a6a:	29 2d       	mov	r18, r9
     a6c:	20 68       	ori	r18, 0x80	; 128
     a6e:	92 2e       	mov	r9, r18
     a70:	02 c0       	rjmp	.+4      	; 0xa76 <vfprintf+0xec>
     a72:	88 36       	cpi	r24, 0x68	; 104
     a74:	41 f4       	brne	.+16     	; 0xa86 <vfprintf+0xfc>
     a76:	f1 01       	movw	r30, r2
     a78:	93 fd       	sbrc	r25, 3
     a7a:	85 91       	lpm	r24, Z+
     a7c:	93 ff       	sbrs	r25, 3
     a7e:	81 91       	ld	r24, Z+
     a80:	1f 01       	movw	r2, r30
     a82:	81 11       	cpse	r24, r1
     a84:	b3 cf       	rjmp	.-154    	; 0x9ec <vfprintf+0x62>
     a86:	9b eb       	ldi	r25, 0xBB	; 187
     a88:	98 0f       	add	r25, r24
     a8a:	93 30       	cpi	r25, 0x03	; 3
     a8c:	20 f4       	brcc	.+8      	; 0xa96 <vfprintf+0x10c>
     a8e:	99 2d       	mov	r25, r9
     a90:	90 61       	ori	r25, 0x10	; 16
     a92:	80 5e       	subi	r24, 0xE0	; 224
     a94:	07 c0       	rjmp	.+14     	; 0xaa4 <vfprintf+0x11a>
     a96:	9b e9       	ldi	r25, 0x9B	; 155
     a98:	98 0f       	add	r25, r24
     a9a:	93 30       	cpi	r25, 0x03	; 3
     a9c:	08 f0       	brcs	.+2      	; 0xaa0 <vfprintf+0x116>
     a9e:	66 c1       	rjmp	.+716    	; 0xd6c <vfprintf+0x3e2>
     aa0:	99 2d       	mov	r25, r9
     aa2:	9f 7e       	andi	r25, 0xEF	; 239
     aa4:	96 ff       	sbrs	r25, 6
     aa6:	16 e0       	ldi	r17, 0x06	; 6
     aa8:	9f 73       	andi	r25, 0x3F	; 63
     aaa:	99 2e       	mov	r9, r25
     aac:	85 36       	cpi	r24, 0x65	; 101
     aae:	19 f4       	brne	.+6      	; 0xab6 <vfprintf+0x12c>
     ab0:	90 64       	ori	r25, 0x40	; 64
     ab2:	99 2e       	mov	r9, r25
     ab4:	08 c0       	rjmp	.+16     	; 0xac6 <vfprintf+0x13c>
     ab6:	86 36       	cpi	r24, 0x66	; 102
     ab8:	21 f4       	brne	.+8      	; 0xac2 <vfprintf+0x138>
     aba:	39 2f       	mov	r19, r25
     abc:	30 68       	ori	r19, 0x80	; 128
     abe:	93 2e       	mov	r9, r19
     ac0:	02 c0       	rjmp	.+4      	; 0xac6 <vfprintf+0x13c>
     ac2:	11 11       	cpse	r17, r1
     ac4:	11 50       	subi	r17, 0x01	; 1
     ac6:	97 fe       	sbrs	r9, 7
     ac8:	07 c0       	rjmp	.+14     	; 0xad8 <vfprintf+0x14e>
     aca:	1c 33       	cpi	r17, 0x3C	; 60
     acc:	50 f4       	brcc	.+20     	; 0xae2 <vfprintf+0x158>
     ace:	44 24       	eor	r4, r4
     ad0:	43 94       	inc	r4
     ad2:	41 0e       	add	r4, r17
     ad4:	27 e0       	ldi	r18, 0x07	; 7
     ad6:	0b c0       	rjmp	.+22     	; 0xaee <vfprintf+0x164>
     ad8:	18 30       	cpi	r17, 0x08	; 8
     ada:	38 f0       	brcs	.+14     	; 0xaea <vfprintf+0x160>
     adc:	27 e0       	ldi	r18, 0x07	; 7
     ade:	17 e0       	ldi	r17, 0x07	; 7
     ae0:	05 c0       	rjmp	.+10     	; 0xaec <vfprintf+0x162>
     ae2:	27 e0       	ldi	r18, 0x07	; 7
     ae4:	9c e3       	ldi	r25, 0x3C	; 60
     ae6:	49 2e       	mov	r4, r25
     ae8:	02 c0       	rjmp	.+4      	; 0xaee <vfprintf+0x164>
     aea:	21 2f       	mov	r18, r17
     aec:	41 2c       	mov	r4, r1
     aee:	56 01       	movw	r10, r12
     af0:	84 e0       	ldi	r24, 0x04	; 4
     af2:	a8 0e       	add	r10, r24
     af4:	b1 1c       	adc	r11, r1
     af6:	f6 01       	movw	r30, r12
     af8:	60 81       	ld	r22, Z
     afa:	71 81       	ldd	r23, Z+1	; 0x01
     afc:	82 81       	ldd	r24, Z+2	; 0x02
     afe:	93 81       	ldd	r25, Z+3	; 0x03
     b00:	04 2d       	mov	r16, r4
     b02:	a3 01       	movw	r20, r6
     b04:	0e 94 97 08 	call	0x112e	; 0x112e <__ftoa_engine>
     b08:	6c 01       	movw	r12, r24
     b0a:	f9 81       	ldd	r31, Y+1	; 0x01
     b0c:	fc 87       	std	Y+12, r31	; 0x0c
     b0e:	f0 ff       	sbrs	r31, 0
     b10:	02 c0       	rjmp	.+4      	; 0xb16 <vfprintf+0x18c>
     b12:	f3 ff       	sbrs	r31, 3
     b14:	06 c0       	rjmp	.+12     	; 0xb22 <vfprintf+0x198>
     b16:	91 fc       	sbrc	r9, 1
     b18:	06 c0       	rjmp	.+12     	; 0xb26 <vfprintf+0x19c>
     b1a:	92 fe       	sbrs	r9, 2
     b1c:	06 c0       	rjmp	.+12     	; 0xb2a <vfprintf+0x1a0>
     b1e:	00 e2       	ldi	r16, 0x20	; 32
     b20:	05 c0       	rjmp	.+10     	; 0xb2c <vfprintf+0x1a2>
     b22:	0d e2       	ldi	r16, 0x2D	; 45
     b24:	03 c0       	rjmp	.+6      	; 0xb2c <vfprintf+0x1a2>
     b26:	0b e2       	ldi	r16, 0x2B	; 43
     b28:	01 c0       	rjmp	.+2      	; 0xb2c <vfprintf+0x1a2>
     b2a:	00 e0       	ldi	r16, 0x00	; 0
     b2c:	8c 85       	ldd	r24, Y+12	; 0x0c
     b2e:	8c 70       	andi	r24, 0x0C	; 12
     b30:	19 f0       	breq	.+6      	; 0xb38 <vfprintf+0x1ae>
     b32:	01 11       	cpse	r16, r1
     b34:	5a c2       	rjmp	.+1204   	; 0xfea <vfprintf+0x660>
     b36:	9b c2       	rjmp	.+1334   	; 0x106e <vfprintf+0x6e4>
     b38:	97 fe       	sbrs	r9, 7
     b3a:	10 c0       	rjmp	.+32     	; 0xb5c <vfprintf+0x1d2>
     b3c:	4c 0c       	add	r4, r12
     b3e:	fc 85       	ldd	r31, Y+12	; 0x0c
     b40:	f4 ff       	sbrs	r31, 4
     b42:	04 c0       	rjmp	.+8      	; 0xb4c <vfprintf+0x1c2>
     b44:	8a 81       	ldd	r24, Y+2	; 0x02
     b46:	81 33       	cpi	r24, 0x31	; 49
     b48:	09 f4       	brne	.+2      	; 0xb4c <vfprintf+0x1c2>
     b4a:	4a 94       	dec	r4
     b4c:	14 14       	cp	r1, r4
     b4e:	74 f5       	brge	.+92     	; 0xbac <vfprintf+0x222>
     b50:	28 e0       	ldi	r18, 0x08	; 8
     b52:	24 15       	cp	r18, r4
     b54:	78 f5       	brcc	.+94     	; 0xbb4 <vfprintf+0x22a>
     b56:	88 e0       	ldi	r24, 0x08	; 8
     b58:	48 2e       	mov	r4, r24
     b5a:	2c c0       	rjmp	.+88     	; 0xbb4 <vfprintf+0x22a>
     b5c:	96 fc       	sbrc	r9, 6
     b5e:	2a c0       	rjmp	.+84     	; 0xbb4 <vfprintf+0x22a>
     b60:	81 2f       	mov	r24, r17
     b62:	90 e0       	ldi	r25, 0x00	; 0
     b64:	8c 15       	cp	r24, r12
     b66:	9d 05       	cpc	r25, r13
     b68:	9c f0       	brlt	.+38     	; 0xb90 <vfprintf+0x206>
     b6a:	3c ef       	ldi	r19, 0xFC	; 252
     b6c:	c3 16       	cp	r12, r19
     b6e:	3f ef       	ldi	r19, 0xFF	; 255
     b70:	d3 06       	cpc	r13, r19
     b72:	74 f0       	brlt	.+28     	; 0xb90 <vfprintf+0x206>
     b74:	89 2d       	mov	r24, r9
     b76:	80 68       	ori	r24, 0x80	; 128
     b78:	98 2e       	mov	r9, r24
     b7a:	0a c0       	rjmp	.+20     	; 0xb90 <vfprintf+0x206>
     b7c:	e2 e0       	ldi	r30, 0x02	; 2
     b7e:	f0 e0       	ldi	r31, 0x00	; 0
     b80:	ec 0f       	add	r30, r28
     b82:	fd 1f       	adc	r31, r29
     b84:	e1 0f       	add	r30, r17
     b86:	f1 1d       	adc	r31, r1
     b88:	80 81       	ld	r24, Z
     b8a:	80 33       	cpi	r24, 0x30	; 48
     b8c:	19 f4       	brne	.+6      	; 0xb94 <vfprintf+0x20a>
     b8e:	11 50       	subi	r17, 0x01	; 1
     b90:	11 11       	cpse	r17, r1
     b92:	f4 cf       	rjmp	.-24     	; 0xb7c <vfprintf+0x1f2>
     b94:	97 fe       	sbrs	r9, 7
     b96:	0e c0       	rjmp	.+28     	; 0xbb4 <vfprintf+0x22a>
     b98:	44 24       	eor	r4, r4
     b9a:	43 94       	inc	r4
     b9c:	41 0e       	add	r4, r17
     b9e:	81 2f       	mov	r24, r17
     ba0:	90 e0       	ldi	r25, 0x00	; 0
     ba2:	c8 16       	cp	r12, r24
     ba4:	d9 06       	cpc	r13, r25
     ba6:	2c f4       	brge	.+10     	; 0xbb2 <vfprintf+0x228>
     ba8:	1c 19       	sub	r17, r12
     baa:	04 c0       	rjmp	.+8      	; 0xbb4 <vfprintf+0x22a>
     bac:	44 24       	eor	r4, r4
     bae:	43 94       	inc	r4
     bb0:	01 c0       	rjmp	.+2      	; 0xbb4 <vfprintf+0x22a>
     bb2:	10 e0       	ldi	r17, 0x00	; 0
     bb4:	97 fe       	sbrs	r9, 7
     bb6:	06 c0       	rjmp	.+12     	; 0xbc4 <vfprintf+0x23a>
     bb8:	1c 14       	cp	r1, r12
     bba:	1d 04       	cpc	r1, r13
     bbc:	34 f4       	brge	.+12     	; 0xbca <vfprintf+0x240>
     bbe:	c6 01       	movw	r24, r12
     bc0:	01 96       	adiw	r24, 0x01	; 1
     bc2:	05 c0       	rjmp	.+10     	; 0xbce <vfprintf+0x244>
     bc4:	85 e0       	ldi	r24, 0x05	; 5
     bc6:	90 e0       	ldi	r25, 0x00	; 0
     bc8:	02 c0       	rjmp	.+4      	; 0xbce <vfprintf+0x244>
     bca:	81 e0       	ldi	r24, 0x01	; 1
     bcc:	90 e0       	ldi	r25, 0x00	; 0
     bce:	01 11       	cpse	r16, r1
     bd0:	01 96       	adiw	r24, 0x01	; 1
     bd2:	11 23       	and	r17, r17
     bd4:	31 f0       	breq	.+12     	; 0xbe2 <vfprintf+0x258>
     bd6:	21 2f       	mov	r18, r17
     bd8:	30 e0       	ldi	r19, 0x00	; 0
     bda:	2f 5f       	subi	r18, 0xFF	; 255
     bdc:	3f 4f       	sbci	r19, 0xFF	; 255
     bde:	82 0f       	add	r24, r18
     be0:	93 1f       	adc	r25, r19
     be2:	25 2d       	mov	r18, r5
     be4:	30 e0       	ldi	r19, 0x00	; 0
     be6:	82 17       	cp	r24, r18
     be8:	93 07       	cpc	r25, r19
     bea:	14 f4       	brge	.+4      	; 0xbf0 <vfprintf+0x266>
     bec:	58 1a       	sub	r5, r24
     bee:	01 c0       	rjmp	.+2      	; 0xbf2 <vfprintf+0x268>
     bf0:	51 2c       	mov	r5, r1
     bf2:	89 2d       	mov	r24, r9
     bf4:	89 70       	andi	r24, 0x09	; 9
     bf6:	49 f4       	brne	.+18     	; 0xc0a <vfprintf+0x280>
     bf8:	55 20       	and	r5, r5
     bfa:	39 f0       	breq	.+14     	; 0xc0a <vfprintf+0x280>
     bfc:	b7 01       	movw	r22, r14
     bfe:	80 e2       	ldi	r24, 0x20	; 32
     c00:	90 e0       	ldi	r25, 0x00	; 0
     c02:	0e 94 b0 09 	call	0x1360	; 0x1360 <fputc>
     c06:	5a 94       	dec	r5
     c08:	f7 cf       	rjmp	.-18     	; 0xbf8 <vfprintf+0x26e>
     c0a:	00 23       	and	r16, r16
     c0c:	29 f0       	breq	.+10     	; 0xc18 <vfprintf+0x28e>
     c0e:	b7 01       	movw	r22, r14
     c10:	80 2f       	mov	r24, r16
     c12:	90 e0       	ldi	r25, 0x00	; 0
     c14:	0e 94 b0 09 	call	0x1360	; 0x1360 <fputc>
     c18:	93 fc       	sbrc	r9, 3
     c1a:	09 c0       	rjmp	.+18     	; 0xc2e <vfprintf+0x2a4>
     c1c:	55 20       	and	r5, r5
     c1e:	39 f0       	breq	.+14     	; 0xc2e <vfprintf+0x2a4>
     c20:	b7 01       	movw	r22, r14
     c22:	80 e3       	ldi	r24, 0x30	; 48
     c24:	90 e0       	ldi	r25, 0x00	; 0
     c26:	0e 94 b0 09 	call	0x1360	; 0x1360 <fputc>
     c2a:	5a 94       	dec	r5
     c2c:	f7 cf       	rjmp	.-18     	; 0xc1c <vfprintf+0x292>
     c2e:	97 fe       	sbrs	r9, 7
     c30:	4c c0       	rjmp	.+152    	; 0xcca <vfprintf+0x340>
     c32:	46 01       	movw	r8, r12
     c34:	d7 fe       	sbrs	r13, 7
     c36:	02 c0       	rjmp	.+4      	; 0xc3c <vfprintf+0x2b2>
     c38:	81 2c       	mov	r8, r1
     c3a:	91 2c       	mov	r9, r1
     c3c:	c6 01       	movw	r24, r12
     c3e:	88 19       	sub	r24, r8
     c40:	99 09       	sbc	r25, r9
     c42:	f3 01       	movw	r30, r6
     c44:	e8 0f       	add	r30, r24
     c46:	f9 1f       	adc	r31, r25
     c48:	fe 87       	std	Y+14, r31	; 0x0e
     c4a:	ed 87       	std	Y+13, r30	; 0x0d
     c4c:	96 01       	movw	r18, r12
     c4e:	24 19       	sub	r18, r4
     c50:	31 09       	sbc	r19, r1
     c52:	38 8b       	std	Y+16, r19	; 0x10
     c54:	2f 87       	std	Y+15, r18	; 0x0f
     c56:	01 2f       	mov	r16, r17
     c58:	10 e0       	ldi	r17, 0x00	; 0
     c5a:	11 95       	neg	r17
     c5c:	01 95       	neg	r16
     c5e:	11 09       	sbc	r17, r1
     c60:	3f ef       	ldi	r19, 0xFF	; 255
     c62:	83 16       	cp	r8, r19
     c64:	93 06       	cpc	r9, r19
     c66:	29 f4       	brne	.+10     	; 0xc72 <vfprintf+0x2e8>
     c68:	b7 01       	movw	r22, r14
     c6a:	8e e2       	ldi	r24, 0x2E	; 46
     c6c:	90 e0       	ldi	r25, 0x00	; 0
     c6e:	0e 94 b0 09 	call	0x1360	; 0x1360 <fputc>
     c72:	c8 14       	cp	r12, r8
     c74:	d9 04       	cpc	r13, r9
     c76:	4c f0       	brlt	.+18     	; 0xc8a <vfprintf+0x300>
     c78:	8f 85       	ldd	r24, Y+15	; 0x0f
     c7a:	98 89       	ldd	r25, Y+16	; 0x10
     c7c:	88 15       	cp	r24, r8
     c7e:	99 05       	cpc	r25, r9
     c80:	24 f4       	brge	.+8      	; 0xc8a <vfprintf+0x300>
     c82:	ed 85       	ldd	r30, Y+13	; 0x0d
     c84:	fe 85       	ldd	r31, Y+14	; 0x0e
     c86:	81 81       	ldd	r24, Z+1	; 0x01
     c88:	01 c0       	rjmp	.+2      	; 0xc8c <vfprintf+0x302>
     c8a:	80 e3       	ldi	r24, 0x30	; 48
     c8c:	f1 e0       	ldi	r31, 0x01	; 1
     c8e:	8f 1a       	sub	r8, r31
     c90:	91 08       	sbc	r9, r1
     c92:	2d 85       	ldd	r18, Y+13	; 0x0d
     c94:	3e 85       	ldd	r19, Y+14	; 0x0e
     c96:	2f 5f       	subi	r18, 0xFF	; 255
     c98:	3f 4f       	sbci	r19, 0xFF	; 255
     c9a:	3e 87       	std	Y+14, r19	; 0x0e
     c9c:	2d 87       	std	Y+13, r18	; 0x0d
     c9e:	80 16       	cp	r8, r16
     ca0:	91 06       	cpc	r9, r17
     ca2:	2c f0       	brlt	.+10     	; 0xcae <vfprintf+0x324>
     ca4:	b7 01       	movw	r22, r14
     ca6:	90 e0       	ldi	r25, 0x00	; 0
     ca8:	0e 94 b0 09 	call	0x1360	; 0x1360 <fputc>
     cac:	d9 cf       	rjmp	.-78     	; 0xc60 <vfprintf+0x2d6>
     cae:	c8 14       	cp	r12, r8
     cb0:	d9 04       	cpc	r13, r9
     cb2:	41 f4       	brne	.+16     	; 0xcc4 <vfprintf+0x33a>
     cb4:	9a 81       	ldd	r25, Y+2	; 0x02
     cb6:	96 33       	cpi	r25, 0x36	; 54
     cb8:	20 f4       	brcc	.+8      	; 0xcc2 <vfprintf+0x338>
     cba:	95 33       	cpi	r25, 0x35	; 53
     cbc:	19 f4       	brne	.+6      	; 0xcc4 <vfprintf+0x33a>
     cbe:	3c 85       	ldd	r19, Y+12	; 0x0c
     cc0:	34 ff       	sbrs	r19, 4
     cc2:	81 e3       	ldi	r24, 0x31	; 49
     cc4:	b7 01       	movw	r22, r14
     cc6:	90 e0       	ldi	r25, 0x00	; 0
     cc8:	4e c0       	rjmp	.+156    	; 0xd66 <vfprintf+0x3dc>
     cca:	8a 81       	ldd	r24, Y+2	; 0x02
     ccc:	81 33       	cpi	r24, 0x31	; 49
     cce:	19 f0       	breq	.+6      	; 0xcd6 <vfprintf+0x34c>
     cd0:	9c 85       	ldd	r25, Y+12	; 0x0c
     cd2:	9f 7e       	andi	r25, 0xEF	; 239
     cd4:	9c 87       	std	Y+12, r25	; 0x0c
     cd6:	b7 01       	movw	r22, r14
     cd8:	90 e0       	ldi	r25, 0x00	; 0
     cda:	0e 94 b0 09 	call	0x1360	; 0x1360 <fputc>
     cde:	11 11       	cpse	r17, r1
     ce0:	05 c0       	rjmp	.+10     	; 0xcec <vfprintf+0x362>
     ce2:	94 fc       	sbrc	r9, 4
     ce4:	18 c0       	rjmp	.+48     	; 0xd16 <vfprintf+0x38c>
     ce6:	85 e6       	ldi	r24, 0x65	; 101
     ce8:	90 e0       	ldi	r25, 0x00	; 0
     cea:	17 c0       	rjmp	.+46     	; 0xd1a <vfprintf+0x390>
     cec:	b7 01       	movw	r22, r14
     cee:	8e e2       	ldi	r24, 0x2E	; 46
     cf0:	90 e0       	ldi	r25, 0x00	; 0
     cf2:	0e 94 b0 09 	call	0x1360	; 0x1360 <fputc>
     cf6:	1e 5f       	subi	r17, 0xFE	; 254
     cf8:	82 e0       	ldi	r24, 0x02	; 2
     cfa:	01 e0       	ldi	r16, 0x01	; 1
     cfc:	08 0f       	add	r16, r24
     cfe:	f3 01       	movw	r30, r6
     d00:	e8 0f       	add	r30, r24
     d02:	f1 1d       	adc	r31, r1
     d04:	80 81       	ld	r24, Z
     d06:	b7 01       	movw	r22, r14
     d08:	90 e0       	ldi	r25, 0x00	; 0
     d0a:	0e 94 b0 09 	call	0x1360	; 0x1360 <fputc>
     d0e:	80 2f       	mov	r24, r16
     d10:	01 13       	cpse	r16, r17
     d12:	f3 cf       	rjmp	.-26     	; 0xcfa <vfprintf+0x370>
     d14:	e6 cf       	rjmp	.-52     	; 0xce2 <vfprintf+0x358>
     d16:	85 e4       	ldi	r24, 0x45	; 69
     d18:	90 e0       	ldi	r25, 0x00	; 0
     d1a:	b7 01       	movw	r22, r14
     d1c:	0e 94 b0 09 	call	0x1360	; 0x1360 <fputc>
     d20:	d7 fc       	sbrc	r13, 7
     d22:	06 c0       	rjmp	.+12     	; 0xd30 <vfprintf+0x3a6>
     d24:	c1 14       	cp	r12, r1
     d26:	d1 04       	cpc	r13, r1
     d28:	41 f4       	brne	.+16     	; 0xd3a <vfprintf+0x3b0>
     d2a:	ec 85       	ldd	r30, Y+12	; 0x0c
     d2c:	e4 ff       	sbrs	r30, 4
     d2e:	05 c0       	rjmp	.+10     	; 0xd3a <vfprintf+0x3b0>
     d30:	d1 94       	neg	r13
     d32:	c1 94       	neg	r12
     d34:	d1 08       	sbc	r13, r1
     d36:	8d e2       	ldi	r24, 0x2D	; 45
     d38:	01 c0       	rjmp	.+2      	; 0xd3c <vfprintf+0x3b2>
     d3a:	8b e2       	ldi	r24, 0x2B	; 43
     d3c:	b7 01       	movw	r22, r14
     d3e:	90 e0       	ldi	r25, 0x00	; 0
     d40:	0e 94 b0 09 	call	0x1360	; 0x1360 <fputc>
     d44:	80 e3       	ldi	r24, 0x30	; 48
     d46:	2a e0       	ldi	r18, 0x0A	; 10
     d48:	c2 16       	cp	r12, r18
     d4a:	d1 04       	cpc	r13, r1
     d4c:	2c f0       	brlt	.+10     	; 0xd58 <vfprintf+0x3ce>
     d4e:	8f 5f       	subi	r24, 0xFF	; 255
     d50:	fa e0       	ldi	r31, 0x0A	; 10
     d52:	cf 1a       	sub	r12, r31
     d54:	d1 08       	sbc	r13, r1
     d56:	f7 cf       	rjmp	.-18     	; 0xd46 <vfprintf+0x3bc>
     d58:	b7 01       	movw	r22, r14
     d5a:	90 e0       	ldi	r25, 0x00	; 0
     d5c:	0e 94 b0 09 	call	0x1360	; 0x1360 <fputc>
     d60:	b7 01       	movw	r22, r14
     d62:	c6 01       	movw	r24, r12
     d64:	c0 96       	adiw	r24, 0x30	; 48
     d66:	0e 94 b0 09 	call	0x1360	; 0x1360 <fputc>
     d6a:	54 c1       	rjmp	.+680    	; 0x1014 <vfprintf+0x68a>
     d6c:	83 36       	cpi	r24, 0x63	; 99
     d6e:	31 f0       	breq	.+12     	; 0xd7c <vfprintf+0x3f2>
     d70:	83 37       	cpi	r24, 0x73	; 115
     d72:	79 f0       	breq	.+30     	; 0xd92 <vfprintf+0x408>
     d74:	83 35       	cpi	r24, 0x53	; 83
     d76:	09 f0       	breq	.+2      	; 0xd7a <vfprintf+0x3f0>
     d78:	56 c0       	rjmp	.+172    	; 0xe26 <vfprintf+0x49c>
     d7a:	20 c0       	rjmp	.+64     	; 0xdbc <vfprintf+0x432>
     d7c:	56 01       	movw	r10, r12
     d7e:	32 e0       	ldi	r19, 0x02	; 2
     d80:	a3 0e       	add	r10, r19
     d82:	b1 1c       	adc	r11, r1
     d84:	f6 01       	movw	r30, r12
     d86:	80 81       	ld	r24, Z
     d88:	89 83       	std	Y+1, r24	; 0x01
     d8a:	01 e0       	ldi	r16, 0x01	; 1
     d8c:	10 e0       	ldi	r17, 0x00	; 0
     d8e:	63 01       	movw	r12, r6
     d90:	12 c0       	rjmp	.+36     	; 0xdb6 <vfprintf+0x42c>
     d92:	56 01       	movw	r10, r12
     d94:	f2 e0       	ldi	r31, 0x02	; 2
     d96:	af 0e       	add	r10, r31
     d98:	b1 1c       	adc	r11, r1
     d9a:	f6 01       	movw	r30, r12
     d9c:	c0 80       	ld	r12, Z
     d9e:	d1 80       	ldd	r13, Z+1	; 0x01
     da0:	96 fe       	sbrs	r9, 6
     da2:	03 c0       	rjmp	.+6      	; 0xdaa <vfprintf+0x420>
     da4:	61 2f       	mov	r22, r17
     da6:	70 e0       	ldi	r23, 0x00	; 0
     da8:	02 c0       	rjmp	.+4      	; 0xdae <vfprintf+0x424>
     daa:	6f ef       	ldi	r22, 0xFF	; 255
     dac:	7f ef       	ldi	r23, 0xFF	; 255
     dae:	c6 01       	movw	r24, r12
     db0:	0e 94 83 09 	call	0x1306	; 0x1306 <strnlen>
     db4:	8c 01       	movw	r16, r24
     db6:	f9 2d       	mov	r31, r9
     db8:	ff 77       	andi	r31, 0x7F	; 127
     dba:	14 c0       	rjmp	.+40     	; 0xde4 <vfprintf+0x45a>
     dbc:	56 01       	movw	r10, r12
     dbe:	22 e0       	ldi	r18, 0x02	; 2
     dc0:	a2 0e       	add	r10, r18
     dc2:	b1 1c       	adc	r11, r1
     dc4:	f6 01       	movw	r30, r12
     dc6:	c0 80       	ld	r12, Z
     dc8:	d1 80       	ldd	r13, Z+1	; 0x01
     dca:	96 fe       	sbrs	r9, 6
     dcc:	03 c0       	rjmp	.+6      	; 0xdd4 <vfprintf+0x44a>
     dce:	61 2f       	mov	r22, r17
     dd0:	70 e0       	ldi	r23, 0x00	; 0
     dd2:	02 c0       	rjmp	.+4      	; 0xdd8 <vfprintf+0x44e>
     dd4:	6f ef       	ldi	r22, 0xFF	; 255
     dd6:	7f ef       	ldi	r23, 0xFF	; 255
     dd8:	c6 01       	movw	r24, r12
     dda:	0e 94 6f 09 	call	0x12de	; 0x12de <strnlen_P>
     dde:	8c 01       	movw	r16, r24
     de0:	f9 2d       	mov	r31, r9
     de2:	f0 68       	ori	r31, 0x80	; 128
     de4:	9f 2e       	mov	r9, r31
     de6:	f3 fd       	sbrc	r31, 3
     de8:	1a c0       	rjmp	.+52     	; 0xe1e <vfprintf+0x494>
     dea:	85 2d       	mov	r24, r5
     dec:	90 e0       	ldi	r25, 0x00	; 0
     dee:	08 17       	cp	r16, r24
     df0:	19 07       	cpc	r17, r25
     df2:	a8 f4       	brcc	.+42     	; 0xe1e <vfprintf+0x494>
     df4:	b7 01       	movw	r22, r14
     df6:	80 e2       	ldi	r24, 0x20	; 32
     df8:	90 e0       	ldi	r25, 0x00	; 0
     dfa:	0e 94 b0 09 	call	0x1360	; 0x1360 <fputc>
     dfe:	5a 94       	dec	r5
     e00:	f4 cf       	rjmp	.-24     	; 0xdea <vfprintf+0x460>
     e02:	f6 01       	movw	r30, r12
     e04:	97 fc       	sbrc	r9, 7
     e06:	85 91       	lpm	r24, Z+
     e08:	97 fe       	sbrs	r9, 7
     e0a:	81 91       	ld	r24, Z+
     e0c:	6f 01       	movw	r12, r30
     e0e:	b7 01       	movw	r22, r14
     e10:	90 e0       	ldi	r25, 0x00	; 0
     e12:	0e 94 b0 09 	call	0x1360	; 0x1360 <fputc>
     e16:	51 10       	cpse	r5, r1
     e18:	5a 94       	dec	r5
     e1a:	01 50       	subi	r16, 0x01	; 1
     e1c:	11 09       	sbc	r17, r1
     e1e:	01 15       	cp	r16, r1
     e20:	11 05       	cpc	r17, r1
     e22:	79 f7       	brne	.-34     	; 0xe02 <vfprintf+0x478>
     e24:	f7 c0       	rjmp	.+494    	; 0x1014 <vfprintf+0x68a>
     e26:	84 36       	cpi	r24, 0x64	; 100
     e28:	11 f0       	breq	.+4      	; 0xe2e <vfprintf+0x4a4>
     e2a:	89 36       	cpi	r24, 0x69	; 105
     e2c:	61 f5       	brne	.+88     	; 0xe86 <vfprintf+0x4fc>
     e2e:	56 01       	movw	r10, r12
     e30:	97 fe       	sbrs	r9, 7
     e32:	09 c0       	rjmp	.+18     	; 0xe46 <vfprintf+0x4bc>
     e34:	24 e0       	ldi	r18, 0x04	; 4
     e36:	a2 0e       	add	r10, r18
     e38:	b1 1c       	adc	r11, r1
     e3a:	f6 01       	movw	r30, r12
     e3c:	60 81       	ld	r22, Z
     e3e:	71 81       	ldd	r23, Z+1	; 0x01
     e40:	82 81       	ldd	r24, Z+2	; 0x02
     e42:	93 81       	ldd	r25, Z+3	; 0x03
     e44:	0a c0       	rjmp	.+20     	; 0xe5a <vfprintf+0x4d0>
     e46:	f2 e0       	ldi	r31, 0x02	; 2
     e48:	af 0e       	add	r10, r31
     e4a:	b1 1c       	adc	r11, r1
     e4c:	f6 01       	movw	r30, r12
     e4e:	60 81       	ld	r22, Z
     e50:	71 81       	ldd	r23, Z+1	; 0x01
     e52:	07 2e       	mov	r0, r23
     e54:	00 0c       	add	r0, r0
     e56:	88 0b       	sbc	r24, r24
     e58:	99 0b       	sbc	r25, r25
     e5a:	f9 2d       	mov	r31, r9
     e5c:	ff 76       	andi	r31, 0x6F	; 111
     e5e:	9f 2e       	mov	r9, r31
     e60:	97 ff       	sbrs	r25, 7
     e62:	09 c0       	rjmp	.+18     	; 0xe76 <vfprintf+0x4ec>
     e64:	90 95       	com	r25
     e66:	80 95       	com	r24
     e68:	70 95       	com	r23
     e6a:	61 95       	neg	r22
     e6c:	7f 4f       	sbci	r23, 0xFF	; 255
     e6e:	8f 4f       	sbci	r24, 0xFF	; 255
     e70:	9f 4f       	sbci	r25, 0xFF	; 255
     e72:	f0 68       	ori	r31, 0x80	; 128
     e74:	9f 2e       	mov	r9, r31
     e76:	2a e0       	ldi	r18, 0x0A	; 10
     e78:	30 e0       	ldi	r19, 0x00	; 0
     e7a:	a3 01       	movw	r20, r6
     e7c:	0e 94 48 0a 	call	0x1490	; 0x1490 <__ultoa_invert>
     e80:	c8 2e       	mov	r12, r24
     e82:	c6 18       	sub	r12, r6
     e84:	3f c0       	rjmp	.+126    	; 0xf04 <vfprintf+0x57a>
     e86:	09 2d       	mov	r16, r9
     e88:	85 37       	cpi	r24, 0x75	; 117
     e8a:	21 f4       	brne	.+8      	; 0xe94 <vfprintf+0x50a>
     e8c:	0f 7e       	andi	r16, 0xEF	; 239
     e8e:	2a e0       	ldi	r18, 0x0A	; 10
     e90:	30 e0       	ldi	r19, 0x00	; 0
     e92:	1d c0       	rjmp	.+58     	; 0xece <vfprintf+0x544>
     e94:	09 7f       	andi	r16, 0xF9	; 249
     e96:	8f 36       	cpi	r24, 0x6F	; 111
     e98:	91 f0       	breq	.+36     	; 0xebe <vfprintf+0x534>
     e9a:	18 f4       	brcc	.+6      	; 0xea2 <vfprintf+0x518>
     e9c:	88 35       	cpi	r24, 0x58	; 88
     e9e:	59 f0       	breq	.+22     	; 0xeb6 <vfprintf+0x52c>
     ea0:	c3 c0       	rjmp	.+390    	; 0x1028 <vfprintf+0x69e>
     ea2:	80 37       	cpi	r24, 0x70	; 112
     ea4:	19 f0       	breq	.+6      	; 0xeac <vfprintf+0x522>
     ea6:	88 37       	cpi	r24, 0x78	; 120
     ea8:	11 f0       	breq	.+4      	; 0xeae <vfprintf+0x524>
     eaa:	be c0       	rjmp	.+380    	; 0x1028 <vfprintf+0x69e>
     eac:	00 61       	ori	r16, 0x10	; 16
     eae:	04 ff       	sbrs	r16, 4
     eb0:	09 c0       	rjmp	.+18     	; 0xec4 <vfprintf+0x53a>
     eb2:	04 60       	ori	r16, 0x04	; 4
     eb4:	07 c0       	rjmp	.+14     	; 0xec4 <vfprintf+0x53a>
     eb6:	94 fe       	sbrs	r9, 4
     eb8:	08 c0       	rjmp	.+16     	; 0xeca <vfprintf+0x540>
     eba:	06 60       	ori	r16, 0x06	; 6
     ebc:	06 c0       	rjmp	.+12     	; 0xeca <vfprintf+0x540>
     ebe:	28 e0       	ldi	r18, 0x08	; 8
     ec0:	30 e0       	ldi	r19, 0x00	; 0
     ec2:	05 c0       	rjmp	.+10     	; 0xece <vfprintf+0x544>
     ec4:	20 e1       	ldi	r18, 0x10	; 16
     ec6:	30 e0       	ldi	r19, 0x00	; 0
     ec8:	02 c0       	rjmp	.+4      	; 0xece <vfprintf+0x544>
     eca:	20 e1       	ldi	r18, 0x10	; 16
     ecc:	32 e0       	ldi	r19, 0x02	; 2
     ece:	56 01       	movw	r10, r12
     ed0:	07 ff       	sbrs	r16, 7
     ed2:	09 c0       	rjmp	.+18     	; 0xee6 <vfprintf+0x55c>
     ed4:	84 e0       	ldi	r24, 0x04	; 4
     ed6:	a8 0e       	add	r10, r24
     ed8:	b1 1c       	adc	r11, r1
     eda:	f6 01       	movw	r30, r12
     edc:	60 81       	ld	r22, Z
     ede:	71 81       	ldd	r23, Z+1	; 0x01
     ee0:	82 81       	ldd	r24, Z+2	; 0x02
     ee2:	93 81       	ldd	r25, Z+3	; 0x03
     ee4:	08 c0       	rjmp	.+16     	; 0xef6 <vfprintf+0x56c>
     ee6:	f2 e0       	ldi	r31, 0x02	; 2
     ee8:	af 0e       	add	r10, r31
     eea:	b1 1c       	adc	r11, r1
     eec:	f6 01       	movw	r30, r12
     eee:	60 81       	ld	r22, Z
     ef0:	71 81       	ldd	r23, Z+1	; 0x01
     ef2:	80 e0       	ldi	r24, 0x00	; 0
     ef4:	90 e0       	ldi	r25, 0x00	; 0
     ef6:	a3 01       	movw	r20, r6
     ef8:	0e 94 48 0a 	call	0x1490	; 0x1490 <__ultoa_invert>
     efc:	c8 2e       	mov	r12, r24
     efe:	c6 18       	sub	r12, r6
     f00:	0f 77       	andi	r16, 0x7F	; 127
     f02:	90 2e       	mov	r9, r16
     f04:	96 fe       	sbrs	r9, 6
     f06:	0b c0       	rjmp	.+22     	; 0xf1e <vfprintf+0x594>
     f08:	09 2d       	mov	r16, r9
     f0a:	0e 7f       	andi	r16, 0xFE	; 254
     f0c:	c1 16       	cp	r12, r17
     f0e:	50 f4       	brcc	.+20     	; 0xf24 <vfprintf+0x59a>
     f10:	94 fe       	sbrs	r9, 4
     f12:	0a c0       	rjmp	.+20     	; 0xf28 <vfprintf+0x59e>
     f14:	92 fc       	sbrc	r9, 2
     f16:	08 c0       	rjmp	.+16     	; 0xf28 <vfprintf+0x59e>
     f18:	09 2d       	mov	r16, r9
     f1a:	0e 7e       	andi	r16, 0xEE	; 238
     f1c:	05 c0       	rjmp	.+10     	; 0xf28 <vfprintf+0x59e>
     f1e:	dc 2c       	mov	r13, r12
     f20:	09 2d       	mov	r16, r9
     f22:	03 c0       	rjmp	.+6      	; 0xf2a <vfprintf+0x5a0>
     f24:	dc 2c       	mov	r13, r12
     f26:	01 c0       	rjmp	.+2      	; 0xf2a <vfprintf+0x5a0>
     f28:	d1 2e       	mov	r13, r17
     f2a:	04 ff       	sbrs	r16, 4
     f2c:	0d c0       	rjmp	.+26     	; 0xf48 <vfprintf+0x5be>
     f2e:	fe 01       	movw	r30, r28
     f30:	ec 0d       	add	r30, r12
     f32:	f1 1d       	adc	r31, r1
     f34:	80 81       	ld	r24, Z
     f36:	80 33       	cpi	r24, 0x30	; 48
     f38:	11 f4       	brne	.+4      	; 0xf3e <vfprintf+0x5b4>
     f3a:	09 7e       	andi	r16, 0xE9	; 233
     f3c:	09 c0       	rjmp	.+18     	; 0xf50 <vfprintf+0x5c6>
     f3e:	02 ff       	sbrs	r16, 2
     f40:	06 c0       	rjmp	.+12     	; 0xf4e <vfprintf+0x5c4>
     f42:	d3 94       	inc	r13
     f44:	d3 94       	inc	r13
     f46:	04 c0       	rjmp	.+8      	; 0xf50 <vfprintf+0x5c6>
     f48:	80 2f       	mov	r24, r16
     f4a:	86 78       	andi	r24, 0x86	; 134
     f4c:	09 f0       	breq	.+2      	; 0xf50 <vfprintf+0x5c6>
     f4e:	d3 94       	inc	r13
     f50:	03 fd       	sbrc	r16, 3
     f52:	11 c0       	rjmp	.+34     	; 0xf76 <vfprintf+0x5ec>
     f54:	00 ff       	sbrs	r16, 0
     f56:	06 c0       	rjmp	.+12     	; 0xf64 <vfprintf+0x5da>
     f58:	1c 2d       	mov	r17, r12
     f5a:	d5 14       	cp	r13, r5
     f5c:	80 f4       	brcc	.+32     	; 0xf7e <vfprintf+0x5f4>
     f5e:	15 0d       	add	r17, r5
     f60:	1d 19       	sub	r17, r13
     f62:	0d c0       	rjmp	.+26     	; 0xf7e <vfprintf+0x5f4>
     f64:	d5 14       	cp	r13, r5
     f66:	58 f4       	brcc	.+22     	; 0xf7e <vfprintf+0x5f4>
     f68:	b7 01       	movw	r22, r14
     f6a:	80 e2       	ldi	r24, 0x20	; 32
     f6c:	90 e0       	ldi	r25, 0x00	; 0
     f6e:	0e 94 b0 09 	call	0x1360	; 0x1360 <fputc>
     f72:	d3 94       	inc	r13
     f74:	f7 cf       	rjmp	.-18     	; 0xf64 <vfprintf+0x5da>
     f76:	d5 14       	cp	r13, r5
     f78:	10 f4       	brcc	.+4      	; 0xf7e <vfprintf+0x5f4>
     f7a:	5d 18       	sub	r5, r13
     f7c:	01 c0       	rjmp	.+2      	; 0xf80 <vfprintf+0x5f6>
     f7e:	51 2c       	mov	r5, r1
     f80:	04 ff       	sbrs	r16, 4
     f82:	10 c0       	rjmp	.+32     	; 0xfa4 <vfprintf+0x61a>
     f84:	b7 01       	movw	r22, r14
     f86:	80 e3       	ldi	r24, 0x30	; 48
     f88:	90 e0       	ldi	r25, 0x00	; 0
     f8a:	0e 94 b0 09 	call	0x1360	; 0x1360 <fputc>
     f8e:	02 ff       	sbrs	r16, 2
     f90:	17 c0       	rjmp	.+46     	; 0xfc0 <vfprintf+0x636>
     f92:	01 fd       	sbrc	r16, 1
     f94:	03 c0       	rjmp	.+6      	; 0xf9c <vfprintf+0x612>
     f96:	88 e7       	ldi	r24, 0x78	; 120
     f98:	90 e0       	ldi	r25, 0x00	; 0
     f9a:	02 c0       	rjmp	.+4      	; 0xfa0 <vfprintf+0x616>
     f9c:	88 e5       	ldi	r24, 0x58	; 88
     f9e:	90 e0       	ldi	r25, 0x00	; 0
     fa0:	b7 01       	movw	r22, r14
     fa2:	0c c0       	rjmp	.+24     	; 0xfbc <vfprintf+0x632>
     fa4:	80 2f       	mov	r24, r16
     fa6:	86 78       	andi	r24, 0x86	; 134
     fa8:	59 f0       	breq	.+22     	; 0xfc0 <vfprintf+0x636>
     faa:	01 ff       	sbrs	r16, 1
     fac:	02 c0       	rjmp	.+4      	; 0xfb2 <vfprintf+0x628>
     fae:	8b e2       	ldi	r24, 0x2B	; 43
     fb0:	01 c0       	rjmp	.+2      	; 0xfb4 <vfprintf+0x62a>
     fb2:	80 e2       	ldi	r24, 0x20	; 32
     fb4:	07 fd       	sbrc	r16, 7
     fb6:	8d e2       	ldi	r24, 0x2D	; 45
     fb8:	b7 01       	movw	r22, r14
     fba:	90 e0       	ldi	r25, 0x00	; 0
     fbc:	0e 94 b0 09 	call	0x1360	; 0x1360 <fputc>
     fc0:	c1 16       	cp	r12, r17
     fc2:	38 f4       	brcc	.+14     	; 0xfd2 <vfprintf+0x648>
     fc4:	b7 01       	movw	r22, r14
     fc6:	80 e3       	ldi	r24, 0x30	; 48
     fc8:	90 e0       	ldi	r25, 0x00	; 0
     fca:	0e 94 b0 09 	call	0x1360	; 0x1360 <fputc>
     fce:	11 50       	subi	r17, 0x01	; 1
     fd0:	f7 cf       	rjmp	.-18     	; 0xfc0 <vfprintf+0x636>
     fd2:	ca 94       	dec	r12
     fd4:	f3 01       	movw	r30, r6
     fd6:	ec 0d       	add	r30, r12
     fd8:	f1 1d       	adc	r31, r1
     fda:	80 81       	ld	r24, Z
     fdc:	b7 01       	movw	r22, r14
     fde:	90 e0       	ldi	r25, 0x00	; 0
     fe0:	0e 94 b0 09 	call	0x1360	; 0x1360 <fputc>
     fe4:	c1 10       	cpse	r12, r1
     fe6:	f5 cf       	rjmp	.-22     	; 0xfd2 <vfprintf+0x648>
     fe8:	15 c0       	rjmp	.+42     	; 0x1014 <vfprintf+0x68a>
     fea:	f4 e0       	ldi	r31, 0x04	; 4
     fec:	f5 15       	cp	r31, r5
     fee:	60 f5       	brcc	.+88     	; 0x1048 <vfprintf+0x6be>
     ff0:	84 e0       	ldi	r24, 0x04	; 4
     ff2:	58 1a       	sub	r5, r24
     ff4:	93 fe       	sbrs	r9, 3
     ff6:	1f c0       	rjmp	.+62     	; 0x1036 <vfprintf+0x6ac>
     ff8:	01 11       	cpse	r16, r1
     ffa:	27 c0       	rjmp	.+78     	; 0x104a <vfprintf+0x6c0>
     ffc:	2c 85       	ldd	r18, Y+12	; 0x0c
     ffe:	23 ff       	sbrs	r18, 3
    1000:	2a c0       	rjmp	.+84     	; 0x1056 <vfprintf+0x6cc>
    1002:	08 e6       	ldi	r16, 0x68	; 104
    1004:	10 e0       	ldi	r17, 0x00	; 0
    1006:	39 2d       	mov	r19, r9
    1008:	30 71       	andi	r19, 0x10	; 16
    100a:	93 2e       	mov	r9, r19
    100c:	f8 01       	movw	r30, r16
    100e:	84 91       	lpm	r24, Z
    1010:	81 11       	cpse	r24, r1
    1012:	24 c0       	rjmp	.+72     	; 0x105c <vfprintf+0x6d2>
    1014:	55 20       	and	r5, r5
    1016:	09 f4       	brne	.+2      	; 0x101a <vfprintf+0x690>
    1018:	e4 cc       	rjmp	.-1592   	; 0x9e2 <vfprintf+0x58>
    101a:	b7 01       	movw	r22, r14
    101c:	80 e2       	ldi	r24, 0x20	; 32
    101e:	90 e0       	ldi	r25, 0x00	; 0
    1020:	0e 94 b0 09 	call	0x1360	; 0x1360 <fputc>
    1024:	5a 94       	dec	r5
    1026:	f6 cf       	rjmp	.-20     	; 0x1014 <vfprintf+0x68a>
    1028:	f7 01       	movw	r30, r14
    102a:	86 81       	ldd	r24, Z+6	; 0x06
    102c:	97 81       	ldd	r25, Z+7	; 0x07
    102e:	26 c0       	rjmp	.+76     	; 0x107c <vfprintf+0x6f2>
    1030:	8f ef       	ldi	r24, 0xFF	; 255
    1032:	9f ef       	ldi	r25, 0xFF	; 255
    1034:	23 c0       	rjmp	.+70     	; 0x107c <vfprintf+0x6f2>
    1036:	b7 01       	movw	r22, r14
    1038:	80 e2       	ldi	r24, 0x20	; 32
    103a:	90 e0       	ldi	r25, 0x00	; 0
    103c:	0e 94 b0 09 	call	0x1360	; 0x1360 <fputc>
    1040:	5a 94       	dec	r5
    1042:	51 10       	cpse	r5, r1
    1044:	f8 cf       	rjmp	.-16     	; 0x1036 <vfprintf+0x6ac>
    1046:	d8 cf       	rjmp	.-80     	; 0xff8 <vfprintf+0x66e>
    1048:	51 2c       	mov	r5, r1
    104a:	b7 01       	movw	r22, r14
    104c:	80 2f       	mov	r24, r16
    104e:	90 e0       	ldi	r25, 0x00	; 0
    1050:	0e 94 b0 09 	call	0x1360	; 0x1360 <fputc>
    1054:	d3 cf       	rjmp	.-90     	; 0xffc <vfprintf+0x672>
    1056:	0c e6       	ldi	r16, 0x6C	; 108
    1058:	10 e0       	ldi	r17, 0x00	; 0
    105a:	d5 cf       	rjmp	.-86     	; 0x1006 <vfprintf+0x67c>
    105c:	91 10       	cpse	r9, r1
    105e:	80 52       	subi	r24, 0x20	; 32
    1060:	b7 01       	movw	r22, r14
    1062:	90 e0       	ldi	r25, 0x00	; 0
    1064:	0e 94 b0 09 	call	0x1360	; 0x1360 <fputc>
    1068:	0f 5f       	subi	r16, 0xFF	; 255
    106a:	1f 4f       	sbci	r17, 0xFF	; 255
    106c:	cf cf       	rjmp	.-98     	; 0x100c <vfprintf+0x682>
    106e:	23 e0       	ldi	r18, 0x03	; 3
    1070:	25 15       	cp	r18, r5
    1072:	10 f4       	brcc	.+4      	; 0x1078 <vfprintf+0x6ee>
    1074:	83 e0       	ldi	r24, 0x03	; 3
    1076:	bd cf       	rjmp	.-134    	; 0xff2 <vfprintf+0x668>
    1078:	51 2c       	mov	r5, r1
    107a:	c0 cf       	rjmp	.-128    	; 0xffc <vfprintf+0x672>
    107c:	60 96       	adiw	r28, 0x10	; 16
    107e:	e2 e1       	ldi	r30, 0x12	; 18
    1080:	0c 94 5e 08 	jmp	0x10bc	; 0x10bc <__epilogue_restores__>

00001084 <__prologue_saves__>:
    1084:	2f 92       	push	r2
    1086:	3f 92       	push	r3
    1088:	4f 92       	push	r4
    108a:	5f 92       	push	r5
    108c:	6f 92       	push	r6
    108e:	7f 92       	push	r7
    1090:	8f 92       	push	r8
    1092:	9f 92       	push	r9
    1094:	af 92       	push	r10
    1096:	bf 92       	push	r11
    1098:	cf 92       	push	r12
    109a:	df 92       	push	r13
    109c:	ef 92       	push	r14
    109e:	ff 92       	push	r15
    10a0:	0f 93       	push	r16
    10a2:	1f 93       	push	r17
    10a4:	cf 93       	push	r28
    10a6:	df 93       	push	r29
    10a8:	cd b7       	in	r28, 0x3d	; 61
    10aa:	de b7       	in	r29, 0x3e	; 62
    10ac:	ca 1b       	sub	r28, r26
    10ae:	db 0b       	sbc	r29, r27
    10b0:	0f b6       	in	r0, 0x3f	; 63
    10b2:	f8 94       	cli
    10b4:	de bf       	out	0x3e, r29	; 62
    10b6:	0f be       	out	0x3f, r0	; 63
    10b8:	cd bf       	out	0x3d, r28	; 61
    10ba:	09 94       	ijmp

000010bc <__epilogue_restores__>:
    10bc:	2a 88       	ldd	r2, Y+18	; 0x12
    10be:	39 88       	ldd	r3, Y+17	; 0x11
    10c0:	48 88       	ldd	r4, Y+16	; 0x10
    10c2:	5f 84       	ldd	r5, Y+15	; 0x0f
    10c4:	6e 84       	ldd	r6, Y+14	; 0x0e
    10c6:	7d 84       	ldd	r7, Y+13	; 0x0d
    10c8:	8c 84       	ldd	r8, Y+12	; 0x0c
    10ca:	9b 84       	ldd	r9, Y+11	; 0x0b
    10cc:	aa 84       	ldd	r10, Y+10	; 0x0a
    10ce:	b9 84       	ldd	r11, Y+9	; 0x09
    10d0:	c8 84       	ldd	r12, Y+8	; 0x08
    10d2:	df 80       	ldd	r13, Y+7	; 0x07
    10d4:	ee 80       	ldd	r14, Y+6	; 0x06
    10d6:	fd 80       	ldd	r15, Y+5	; 0x05
    10d8:	0c 81       	ldd	r16, Y+4	; 0x04
    10da:	1b 81       	ldd	r17, Y+3	; 0x03
    10dc:	aa 81       	ldd	r26, Y+2	; 0x02
    10de:	b9 81       	ldd	r27, Y+1	; 0x01
    10e0:	ce 0f       	add	r28, r30
    10e2:	d1 1d       	adc	r29, r1
    10e4:	0f b6       	in	r0, 0x3f	; 63
    10e6:	f8 94       	cli
    10e8:	de bf       	out	0x3e, r29	; 62
    10ea:	0f be       	out	0x3f, r0	; 63
    10ec:	cd bf       	out	0x3d, r28	; 61
    10ee:	ed 01       	movw	r28, r26
    10f0:	08 95       	ret

000010f2 <atoi>:
    10f2:	fc 01       	movw	r30, r24
    10f4:	88 27       	eor	r24, r24
    10f6:	99 27       	eor	r25, r25
    10f8:	e8 94       	clt
    10fa:	21 91       	ld	r18, Z+
    10fc:	20 32       	cpi	r18, 0x20	; 32
    10fe:	e9 f3       	breq	.-6      	; 0x10fa <atoi+0x8>
    1100:	29 30       	cpi	r18, 0x09	; 9
    1102:	10 f0       	brcs	.+4      	; 0x1108 <atoi+0x16>
    1104:	2e 30       	cpi	r18, 0x0E	; 14
    1106:	c8 f3       	brcs	.-14     	; 0x10fa <atoi+0x8>
    1108:	2b 32       	cpi	r18, 0x2B	; 43
    110a:	41 f0       	breq	.+16     	; 0x111c <atoi+0x2a>
    110c:	2d 32       	cpi	r18, 0x2D	; 45
    110e:	39 f4       	brne	.+14     	; 0x111e <atoi+0x2c>
    1110:	68 94       	set
    1112:	04 c0       	rjmp	.+8      	; 0x111c <atoi+0x2a>
    1114:	0e 94 a8 09 	call	0x1350	; 0x1350 <__mulhi_const_10>
    1118:	82 0f       	add	r24, r18
    111a:	91 1d       	adc	r25, r1
    111c:	21 91       	ld	r18, Z+
    111e:	20 53       	subi	r18, 0x30	; 48
    1120:	2a 30       	cpi	r18, 0x0A	; 10
    1122:	c0 f3       	brcs	.-16     	; 0x1114 <atoi+0x22>
    1124:	1e f4       	brtc	.+6      	; 0x112c <atoi+0x3a>
    1126:	90 95       	com	r25
    1128:	81 95       	neg	r24
    112a:	9f 4f       	sbci	r25, 0xFF	; 255
    112c:	08 95       	ret

0000112e <__ftoa_engine>:
    112e:	28 30       	cpi	r18, 0x08	; 8
    1130:	08 f0       	brcs	.+2      	; 0x1134 <__ftoa_engine+0x6>
    1132:	27 e0       	ldi	r18, 0x07	; 7
    1134:	33 27       	eor	r19, r19
    1136:	da 01       	movw	r26, r20
    1138:	99 0f       	add	r25, r25
    113a:	31 1d       	adc	r19, r1
    113c:	87 fd       	sbrc	r24, 7
    113e:	91 60       	ori	r25, 0x01	; 1
    1140:	00 96       	adiw	r24, 0x00	; 0
    1142:	61 05       	cpc	r22, r1
    1144:	71 05       	cpc	r23, r1
    1146:	39 f4       	brne	.+14     	; 0x1156 <__ftoa_engine+0x28>
    1148:	32 60       	ori	r19, 0x02	; 2
    114a:	2e 5f       	subi	r18, 0xFE	; 254
    114c:	3d 93       	st	X+, r19
    114e:	30 e3       	ldi	r19, 0x30	; 48
    1150:	2a 95       	dec	r18
    1152:	e1 f7       	brne	.-8      	; 0x114c <__ftoa_engine+0x1e>
    1154:	08 95       	ret
    1156:	9f 3f       	cpi	r25, 0xFF	; 255
    1158:	30 f0       	brcs	.+12     	; 0x1166 <__ftoa_engine+0x38>
    115a:	80 38       	cpi	r24, 0x80	; 128
    115c:	71 05       	cpc	r23, r1
    115e:	61 05       	cpc	r22, r1
    1160:	09 f0       	breq	.+2      	; 0x1164 <__ftoa_engine+0x36>
    1162:	3c 5f       	subi	r19, 0xFC	; 252
    1164:	3c 5f       	subi	r19, 0xFC	; 252
    1166:	3d 93       	st	X+, r19
    1168:	91 30       	cpi	r25, 0x01	; 1
    116a:	08 f0       	brcs	.+2      	; 0x116e <__ftoa_engine+0x40>
    116c:	80 68       	ori	r24, 0x80	; 128
    116e:	91 1d       	adc	r25, r1
    1170:	df 93       	push	r29
    1172:	cf 93       	push	r28
    1174:	1f 93       	push	r17
    1176:	0f 93       	push	r16
    1178:	ff 92       	push	r15
    117a:	ef 92       	push	r14
    117c:	19 2f       	mov	r17, r25
    117e:	98 7f       	andi	r25, 0xF8	; 248
    1180:	96 95       	lsr	r25
    1182:	e9 2f       	mov	r30, r25
    1184:	96 95       	lsr	r25
    1186:	96 95       	lsr	r25
    1188:	e9 0f       	add	r30, r25
    118a:	ff 27       	eor	r31, r31
    118c:	e6 53       	subi	r30, 0x36	; 54
    118e:	ff 4f       	sbci	r31, 0xFF	; 255
    1190:	99 27       	eor	r25, r25
    1192:	33 27       	eor	r19, r19
    1194:	ee 24       	eor	r14, r14
    1196:	ff 24       	eor	r15, r15
    1198:	a7 01       	movw	r20, r14
    119a:	e7 01       	movw	r28, r14
    119c:	05 90       	lpm	r0, Z+
    119e:	08 94       	sec
    11a0:	07 94       	ror	r0
    11a2:	28 f4       	brcc	.+10     	; 0x11ae <__ftoa_engine+0x80>
    11a4:	36 0f       	add	r19, r22
    11a6:	e7 1e       	adc	r14, r23
    11a8:	f8 1e       	adc	r15, r24
    11aa:	49 1f       	adc	r20, r25
    11ac:	51 1d       	adc	r21, r1
    11ae:	66 0f       	add	r22, r22
    11b0:	77 1f       	adc	r23, r23
    11b2:	88 1f       	adc	r24, r24
    11b4:	99 1f       	adc	r25, r25
    11b6:	06 94       	lsr	r0
    11b8:	a1 f7       	brne	.-24     	; 0x11a2 <__ftoa_engine+0x74>
    11ba:	05 90       	lpm	r0, Z+
    11bc:	07 94       	ror	r0
    11be:	28 f4       	brcc	.+10     	; 0x11ca <__ftoa_engine+0x9c>
    11c0:	e7 0e       	add	r14, r23
    11c2:	f8 1e       	adc	r15, r24
    11c4:	49 1f       	adc	r20, r25
    11c6:	56 1f       	adc	r21, r22
    11c8:	c1 1d       	adc	r28, r1
    11ca:	77 0f       	add	r23, r23
    11cc:	88 1f       	adc	r24, r24
    11ce:	99 1f       	adc	r25, r25
    11d0:	66 1f       	adc	r22, r22
    11d2:	06 94       	lsr	r0
    11d4:	a1 f7       	brne	.-24     	; 0x11be <__ftoa_engine+0x90>
    11d6:	05 90       	lpm	r0, Z+
    11d8:	07 94       	ror	r0
    11da:	28 f4       	brcc	.+10     	; 0x11e6 <__ftoa_engine+0xb8>
    11dc:	f8 0e       	add	r15, r24
    11de:	49 1f       	adc	r20, r25
    11e0:	56 1f       	adc	r21, r22
    11e2:	c7 1f       	adc	r28, r23
    11e4:	d1 1d       	adc	r29, r1
    11e6:	88 0f       	add	r24, r24
    11e8:	99 1f       	adc	r25, r25
    11ea:	66 1f       	adc	r22, r22
    11ec:	77 1f       	adc	r23, r23
    11ee:	06 94       	lsr	r0
    11f0:	a1 f7       	brne	.-24     	; 0x11da <__ftoa_engine+0xac>
    11f2:	05 90       	lpm	r0, Z+
    11f4:	07 94       	ror	r0
    11f6:	20 f4       	brcc	.+8      	; 0x1200 <__ftoa_engine+0xd2>
    11f8:	49 0f       	add	r20, r25
    11fa:	56 1f       	adc	r21, r22
    11fc:	c7 1f       	adc	r28, r23
    11fe:	d8 1f       	adc	r29, r24
    1200:	99 0f       	add	r25, r25
    1202:	66 1f       	adc	r22, r22
    1204:	77 1f       	adc	r23, r23
    1206:	88 1f       	adc	r24, r24
    1208:	06 94       	lsr	r0
    120a:	a9 f7       	brne	.-22     	; 0x11f6 <__ftoa_engine+0xc8>
    120c:	84 91       	lpm	r24, Z
    120e:	10 95       	com	r17
    1210:	17 70       	andi	r17, 0x07	; 7
    1212:	41 f0       	breq	.+16     	; 0x1224 <__ftoa_engine+0xf6>
    1214:	d6 95       	lsr	r29
    1216:	c7 95       	ror	r28
    1218:	57 95       	ror	r21
    121a:	47 95       	ror	r20
    121c:	f7 94       	ror	r15
    121e:	e7 94       	ror	r14
    1220:	1a 95       	dec	r17
    1222:	c1 f7       	brne	.-16     	; 0x1214 <__ftoa_engine+0xe6>
    1224:	e0 e7       	ldi	r30, 0x70	; 112
    1226:	f0 e0       	ldi	r31, 0x00	; 0
    1228:	68 94       	set
    122a:	15 90       	lpm	r1, Z+
    122c:	15 91       	lpm	r17, Z+
    122e:	35 91       	lpm	r19, Z+
    1230:	65 91       	lpm	r22, Z+
    1232:	95 91       	lpm	r25, Z+
    1234:	05 90       	lpm	r0, Z+
    1236:	7f e2       	ldi	r23, 0x2F	; 47
    1238:	73 95       	inc	r23
    123a:	e1 18       	sub	r14, r1
    123c:	f1 0a       	sbc	r15, r17
    123e:	43 0b       	sbc	r20, r19
    1240:	56 0b       	sbc	r21, r22
    1242:	c9 0b       	sbc	r28, r25
    1244:	d0 09       	sbc	r29, r0
    1246:	c0 f7       	brcc	.-16     	; 0x1238 <__ftoa_engine+0x10a>
    1248:	e1 0c       	add	r14, r1
    124a:	f1 1e       	adc	r15, r17
    124c:	43 1f       	adc	r20, r19
    124e:	56 1f       	adc	r21, r22
    1250:	c9 1f       	adc	r28, r25
    1252:	d0 1d       	adc	r29, r0
    1254:	7e f4       	brtc	.+30     	; 0x1274 <__ftoa_engine+0x146>
    1256:	70 33       	cpi	r23, 0x30	; 48
    1258:	11 f4       	brne	.+4      	; 0x125e <__ftoa_engine+0x130>
    125a:	8a 95       	dec	r24
    125c:	e6 cf       	rjmp	.-52     	; 0x122a <__ftoa_engine+0xfc>
    125e:	e8 94       	clt
    1260:	01 50       	subi	r16, 0x01	; 1
    1262:	30 f0       	brcs	.+12     	; 0x1270 <__ftoa_engine+0x142>
    1264:	08 0f       	add	r16, r24
    1266:	0a f4       	brpl	.+2      	; 0x126a <__ftoa_engine+0x13c>
    1268:	00 27       	eor	r16, r16
    126a:	02 17       	cp	r16, r18
    126c:	08 f4       	brcc	.+2      	; 0x1270 <__ftoa_engine+0x142>
    126e:	20 2f       	mov	r18, r16
    1270:	23 95       	inc	r18
    1272:	02 2f       	mov	r16, r18
    1274:	7a 33       	cpi	r23, 0x3A	; 58
    1276:	28 f0       	brcs	.+10     	; 0x1282 <__ftoa_engine+0x154>
    1278:	79 e3       	ldi	r23, 0x39	; 57
    127a:	7d 93       	st	X+, r23
    127c:	2a 95       	dec	r18
    127e:	e9 f7       	brne	.-6      	; 0x127a <__ftoa_engine+0x14c>
    1280:	10 c0       	rjmp	.+32     	; 0x12a2 <__ftoa_engine+0x174>
    1282:	7d 93       	st	X+, r23
    1284:	2a 95       	dec	r18
    1286:	89 f6       	brne	.-94     	; 0x122a <__ftoa_engine+0xfc>
    1288:	06 94       	lsr	r0
    128a:	97 95       	ror	r25
    128c:	67 95       	ror	r22
    128e:	37 95       	ror	r19
    1290:	17 95       	ror	r17
    1292:	17 94       	ror	r1
    1294:	e1 18       	sub	r14, r1
    1296:	f1 0a       	sbc	r15, r17
    1298:	43 0b       	sbc	r20, r19
    129a:	56 0b       	sbc	r21, r22
    129c:	c9 0b       	sbc	r28, r25
    129e:	d0 09       	sbc	r29, r0
    12a0:	98 f0       	brcs	.+38     	; 0x12c8 <__ftoa_engine+0x19a>
    12a2:	23 95       	inc	r18
    12a4:	7e 91       	ld	r23, -X
    12a6:	73 95       	inc	r23
    12a8:	7a 33       	cpi	r23, 0x3A	; 58
    12aa:	08 f0       	brcs	.+2      	; 0x12ae <__ftoa_engine+0x180>
    12ac:	70 e3       	ldi	r23, 0x30	; 48
    12ae:	7c 93       	st	X, r23
    12b0:	20 13       	cpse	r18, r16
    12b2:	b8 f7       	brcc	.-18     	; 0x12a2 <__ftoa_engine+0x174>
    12b4:	7e 91       	ld	r23, -X
    12b6:	70 61       	ori	r23, 0x10	; 16
    12b8:	7d 93       	st	X+, r23
    12ba:	30 f0       	brcs	.+12     	; 0x12c8 <__ftoa_engine+0x19a>
    12bc:	83 95       	inc	r24
    12be:	71 e3       	ldi	r23, 0x31	; 49
    12c0:	7d 93       	st	X+, r23
    12c2:	70 e3       	ldi	r23, 0x30	; 48
    12c4:	2a 95       	dec	r18
    12c6:	e1 f7       	brne	.-8      	; 0x12c0 <__ftoa_engine+0x192>
    12c8:	11 24       	eor	r1, r1
    12ca:	ef 90       	pop	r14
    12cc:	ff 90       	pop	r15
    12ce:	0f 91       	pop	r16
    12d0:	1f 91       	pop	r17
    12d2:	cf 91       	pop	r28
    12d4:	df 91       	pop	r29
    12d6:	99 27       	eor	r25, r25
    12d8:	87 fd       	sbrc	r24, 7
    12da:	90 95       	com	r25
    12dc:	08 95       	ret

000012de <strnlen_P>:
    12de:	fc 01       	movw	r30, r24
    12e0:	05 90       	lpm	r0, Z+
    12e2:	61 50       	subi	r22, 0x01	; 1
    12e4:	70 40       	sbci	r23, 0x00	; 0
    12e6:	01 10       	cpse	r0, r1
    12e8:	d8 f7       	brcc	.-10     	; 0x12e0 <strnlen_P+0x2>
    12ea:	80 95       	com	r24
    12ec:	90 95       	com	r25
    12ee:	8e 0f       	add	r24, r30
    12f0:	9f 1f       	adc	r25, r31
    12f2:	08 95       	ret

000012f4 <strcmp>:
    12f4:	fb 01       	movw	r30, r22
    12f6:	dc 01       	movw	r26, r24
    12f8:	8d 91       	ld	r24, X+
    12fa:	01 90       	ld	r0, Z+
    12fc:	80 19       	sub	r24, r0
    12fe:	01 10       	cpse	r0, r1
    1300:	d9 f3       	breq	.-10     	; 0x12f8 <strcmp+0x4>
    1302:	99 0b       	sbc	r25, r25
    1304:	08 95       	ret

00001306 <strnlen>:
    1306:	fc 01       	movw	r30, r24
    1308:	61 50       	subi	r22, 0x01	; 1
    130a:	70 40       	sbci	r23, 0x00	; 0
    130c:	01 90       	ld	r0, Z+
    130e:	01 10       	cpse	r0, r1
    1310:	d8 f7       	brcc	.-10     	; 0x1308 <strnlen+0x2>
    1312:	80 95       	com	r24
    1314:	90 95       	com	r25
    1316:	8e 0f       	add	r24, r30
    1318:	9f 1f       	adc	r25, r31
    131a:	08 95       	ret

0000131c <strstr>:
    131c:	fb 01       	movw	r30, r22
    131e:	51 91       	ld	r21, Z+
    1320:	55 23       	and	r21, r21
    1322:	a9 f0       	breq	.+42     	; 0x134e <strstr+0x32>
    1324:	bf 01       	movw	r22, r30
    1326:	dc 01       	movw	r26, r24
    1328:	4d 91       	ld	r20, X+
    132a:	45 17       	cp	r20, r21
    132c:	41 11       	cpse	r20, r1
    132e:	e1 f7       	brne	.-8      	; 0x1328 <strstr+0xc>
    1330:	59 f4       	brne	.+22     	; 0x1348 <strstr+0x2c>
    1332:	cd 01       	movw	r24, r26
    1334:	01 90       	ld	r0, Z+
    1336:	00 20       	and	r0, r0
    1338:	49 f0       	breq	.+18     	; 0x134c <strstr+0x30>
    133a:	4d 91       	ld	r20, X+
    133c:	40 15       	cp	r20, r0
    133e:	41 11       	cpse	r20, r1
    1340:	c9 f3       	breq	.-14     	; 0x1334 <strstr+0x18>
    1342:	fb 01       	movw	r30, r22
    1344:	41 11       	cpse	r20, r1
    1346:	ef cf       	rjmp	.-34     	; 0x1326 <strstr+0xa>
    1348:	81 e0       	ldi	r24, 0x01	; 1
    134a:	90 e0       	ldi	r25, 0x00	; 0
    134c:	01 97       	sbiw	r24, 0x01	; 1
    134e:	08 95       	ret

00001350 <__mulhi_const_10>:
    1350:	7a e0       	ldi	r23, 0x0A	; 10
    1352:	97 9f       	mul	r25, r23
    1354:	90 2d       	mov	r25, r0
    1356:	87 9f       	mul	r24, r23
    1358:	80 2d       	mov	r24, r0
    135a:	91 0d       	add	r25, r1
    135c:	11 24       	eor	r1, r1
    135e:	08 95       	ret

00001360 <fputc>:
    1360:	0f 93       	push	r16
    1362:	1f 93       	push	r17
    1364:	cf 93       	push	r28
    1366:	df 93       	push	r29
    1368:	fb 01       	movw	r30, r22
    136a:	23 81       	ldd	r18, Z+3	; 0x03
    136c:	21 fd       	sbrc	r18, 1
    136e:	03 c0       	rjmp	.+6      	; 0x1376 <fputc+0x16>
    1370:	8f ef       	ldi	r24, 0xFF	; 255
    1372:	9f ef       	ldi	r25, 0xFF	; 255
    1374:	2c c0       	rjmp	.+88     	; 0x13ce <fputc+0x6e>
    1376:	22 ff       	sbrs	r18, 2
    1378:	16 c0       	rjmp	.+44     	; 0x13a6 <fputc+0x46>
    137a:	46 81       	ldd	r20, Z+6	; 0x06
    137c:	57 81       	ldd	r21, Z+7	; 0x07
    137e:	24 81       	ldd	r18, Z+4	; 0x04
    1380:	35 81       	ldd	r19, Z+5	; 0x05
    1382:	42 17       	cp	r20, r18
    1384:	53 07       	cpc	r21, r19
    1386:	44 f4       	brge	.+16     	; 0x1398 <fputc+0x38>
    1388:	a0 81       	ld	r26, Z
    138a:	b1 81       	ldd	r27, Z+1	; 0x01
    138c:	9d 01       	movw	r18, r26
    138e:	2f 5f       	subi	r18, 0xFF	; 255
    1390:	3f 4f       	sbci	r19, 0xFF	; 255
    1392:	31 83       	std	Z+1, r19	; 0x01
    1394:	20 83       	st	Z, r18
    1396:	8c 93       	st	X, r24
    1398:	26 81       	ldd	r18, Z+6	; 0x06
    139a:	37 81       	ldd	r19, Z+7	; 0x07
    139c:	2f 5f       	subi	r18, 0xFF	; 255
    139e:	3f 4f       	sbci	r19, 0xFF	; 255
    13a0:	37 83       	std	Z+7, r19	; 0x07
    13a2:	26 83       	std	Z+6, r18	; 0x06
    13a4:	14 c0       	rjmp	.+40     	; 0x13ce <fputc+0x6e>
    13a6:	8b 01       	movw	r16, r22
    13a8:	ec 01       	movw	r28, r24
    13aa:	fb 01       	movw	r30, r22
    13ac:	00 84       	ldd	r0, Z+8	; 0x08
    13ae:	f1 85       	ldd	r31, Z+9	; 0x09
    13b0:	e0 2d       	mov	r30, r0
    13b2:	09 95       	icall
    13b4:	89 2b       	or	r24, r25
    13b6:	e1 f6       	brne	.-72     	; 0x1370 <fputc+0x10>
    13b8:	d8 01       	movw	r26, r16
    13ba:	16 96       	adiw	r26, 0x06	; 6
    13bc:	8d 91       	ld	r24, X+
    13be:	9c 91       	ld	r25, X
    13c0:	17 97       	sbiw	r26, 0x07	; 7
    13c2:	01 96       	adiw	r24, 0x01	; 1
    13c4:	17 96       	adiw	r26, 0x07	; 7
    13c6:	9c 93       	st	X, r25
    13c8:	8e 93       	st	-X, r24
    13ca:	16 97       	sbiw	r26, 0x06	; 6
    13cc:	ce 01       	movw	r24, r28
    13ce:	df 91       	pop	r29
    13d0:	cf 91       	pop	r28
    13d2:	1f 91       	pop	r17
    13d4:	0f 91       	pop	r16
    13d6:	08 95       	ret

000013d8 <printf>:
    13d8:	a0 e0       	ldi	r26, 0x00	; 0
    13da:	b0 e0       	ldi	r27, 0x00	; 0
    13dc:	e2 ef       	ldi	r30, 0xF2	; 242
    13de:	f9 e0       	ldi	r31, 0x09	; 9
    13e0:	0c 94 52 08 	jmp	0x10a4	; 0x10a4 <__prologue_saves__+0x20>
    13e4:	ae 01       	movw	r20, r28
    13e6:	4b 5f       	subi	r20, 0xFB	; 251
    13e8:	5f 4f       	sbci	r21, 0xFF	; 255
    13ea:	fa 01       	movw	r30, r20
    13ec:	61 91       	ld	r22, Z+
    13ee:	71 91       	ld	r23, Z+
    13f0:	af 01       	movw	r20, r30
    13f2:	80 91 a2 01 	lds	r24, 0x01A2	; 0x8001a2 <__iob+0x2>
    13f6:	90 91 a3 01 	lds	r25, 0x01A3	; 0x8001a3 <__iob+0x3>
    13fa:	0e 94 c5 04 	call	0x98a	; 0x98a <vfprintf>
    13fe:	e2 e0       	ldi	r30, 0x02	; 2
    1400:	0c 94 6e 08 	jmp	0x10dc	; 0x10dc <__epilogue_restores__+0x20>

00001404 <puts>:
    1404:	0f 93       	push	r16
    1406:	1f 93       	push	r17
    1408:	cf 93       	push	r28
    140a:	df 93       	push	r29
    140c:	e0 91 a2 01 	lds	r30, 0x01A2	; 0x8001a2 <__iob+0x2>
    1410:	f0 91 a3 01 	lds	r31, 0x01A3	; 0x8001a3 <__iob+0x3>
    1414:	23 81       	ldd	r18, Z+3	; 0x03
    1416:	21 ff       	sbrs	r18, 1
    1418:	1b c0       	rjmp	.+54     	; 0x1450 <puts+0x4c>
    141a:	8c 01       	movw	r16, r24
    141c:	d0 e0       	ldi	r29, 0x00	; 0
    141e:	c0 e0       	ldi	r28, 0x00	; 0
    1420:	f8 01       	movw	r30, r16
    1422:	81 91       	ld	r24, Z+
    1424:	8f 01       	movw	r16, r30
    1426:	60 91 a2 01 	lds	r22, 0x01A2	; 0x8001a2 <__iob+0x2>
    142a:	70 91 a3 01 	lds	r23, 0x01A3	; 0x8001a3 <__iob+0x3>
    142e:	db 01       	movw	r26, r22
    1430:	18 96       	adiw	r26, 0x08	; 8
    1432:	ed 91       	ld	r30, X+
    1434:	fc 91       	ld	r31, X
    1436:	19 97       	sbiw	r26, 0x09	; 9
    1438:	88 23       	and	r24, r24
    143a:	31 f0       	breq	.+12     	; 0x1448 <puts+0x44>
    143c:	09 95       	icall
    143e:	89 2b       	or	r24, r25
    1440:	79 f3       	breq	.-34     	; 0x1420 <puts+0x1c>
    1442:	df ef       	ldi	r29, 0xFF	; 255
    1444:	cf ef       	ldi	r28, 0xFF	; 255
    1446:	ec cf       	rjmp	.-40     	; 0x1420 <puts+0x1c>
    1448:	8a e0       	ldi	r24, 0x0A	; 10
    144a:	09 95       	icall
    144c:	89 2b       	or	r24, r25
    144e:	19 f0       	breq	.+6      	; 0x1456 <puts+0x52>
    1450:	8f ef       	ldi	r24, 0xFF	; 255
    1452:	9f ef       	ldi	r25, 0xFF	; 255
    1454:	02 c0       	rjmp	.+4      	; 0x145a <puts+0x56>
    1456:	8d 2f       	mov	r24, r29
    1458:	9c 2f       	mov	r25, r28
    145a:	df 91       	pop	r29
    145c:	cf 91       	pop	r28
    145e:	1f 91       	pop	r17
    1460:	0f 91       	pop	r16
    1462:	08 95       	ret

00001464 <scanf>:
    1464:	a0 e0       	ldi	r26, 0x00	; 0
    1466:	b0 e0       	ldi	r27, 0x00	; 0
    1468:	e8 e3       	ldi	r30, 0x38	; 56
    146a:	fa e0       	ldi	r31, 0x0A	; 10
    146c:	0c 94 52 08 	jmp	0x10a4	; 0x10a4 <__prologue_saves__+0x20>
    1470:	ae 01       	movw	r20, r28
    1472:	4b 5f       	subi	r20, 0xFB	; 251
    1474:	5f 4f       	sbci	r21, 0xFF	; 255
    1476:	fa 01       	movw	r30, r20
    1478:	61 91       	ld	r22, Z+
    147a:	71 91       	ld	r23, Z+
    147c:	af 01       	movw	r20, r30
    147e:	80 91 a0 01 	lds	r24, 0x01A0	; 0x8001a0 <__iob>
    1482:	90 91 a1 01 	lds	r25, 0x01A1	; 0x8001a1 <__iob+0x1>
    1486:	0e 94 42 0c 	call	0x1884	; 0x1884 <vfscanf>
    148a:	e2 e0       	ldi	r30, 0x02	; 2
    148c:	0c 94 6e 08 	jmp	0x10dc	; 0x10dc <__epilogue_restores__+0x20>

00001490 <__ultoa_invert>:
    1490:	fa 01       	movw	r30, r20
    1492:	aa 27       	eor	r26, r26
    1494:	28 30       	cpi	r18, 0x08	; 8
    1496:	51 f1       	breq	.+84     	; 0x14ec <__ultoa_invert+0x5c>
    1498:	20 31       	cpi	r18, 0x10	; 16
    149a:	81 f1       	breq	.+96     	; 0x14fc <__ultoa_invert+0x6c>
    149c:	e8 94       	clt
    149e:	6f 93       	push	r22
    14a0:	6e 7f       	andi	r22, 0xFE	; 254
    14a2:	6e 5f       	subi	r22, 0xFE	; 254
    14a4:	7f 4f       	sbci	r23, 0xFF	; 255
    14a6:	8f 4f       	sbci	r24, 0xFF	; 255
    14a8:	9f 4f       	sbci	r25, 0xFF	; 255
    14aa:	af 4f       	sbci	r26, 0xFF	; 255
    14ac:	b1 e0       	ldi	r27, 0x01	; 1
    14ae:	3e d0       	rcall	.+124    	; 0x152c <__ultoa_invert+0x9c>
    14b0:	b4 e0       	ldi	r27, 0x04	; 4
    14b2:	3c d0       	rcall	.+120    	; 0x152c <__ultoa_invert+0x9c>
    14b4:	67 0f       	add	r22, r23
    14b6:	78 1f       	adc	r23, r24
    14b8:	89 1f       	adc	r24, r25
    14ba:	9a 1f       	adc	r25, r26
    14bc:	a1 1d       	adc	r26, r1
    14be:	68 0f       	add	r22, r24
    14c0:	79 1f       	adc	r23, r25
    14c2:	8a 1f       	adc	r24, r26
    14c4:	91 1d       	adc	r25, r1
    14c6:	a1 1d       	adc	r26, r1
    14c8:	6a 0f       	add	r22, r26
    14ca:	71 1d       	adc	r23, r1
    14cc:	81 1d       	adc	r24, r1
    14ce:	91 1d       	adc	r25, r1
    14d0:	a1 1d       	adc	r26, r1
    14d2:	20 d0       	rcall	.+64     	; 0x1514 <__ultoa_invert+0x84>
    14d4:	09 f4       	brne	.+2      	; 0x14d8 <__ultoa_invert+0x48>
    14d6:	68 94       	set
    14d8:	3f 91       	pop	r19
    14da:	2a e0       	ldi	r18, 0x0A	; 10
    14dc:	26 9f       	mul	r18, r22
    14de:	11 24       	eor	r1, r1
    14e0:	30 19       	sub	r19, r0
    14e2:	30 5d       	subi	r19, 0xD0	; 208
    14e4:	31 93       	st	Z+, r19
    14e6:	de f6       	brtc	.-74     	; 0x149e <__ultoa_invert+0xe>
    14e8:	cf 01       	movw	r24, r30
    14ea:	08 95       	ret
    14ec:	46 2f       	mov	r20, r22
    14ee:	47 70       	andi	r20, 0x07	; 7
    14f0:	40 5d       	subi	r20, 0xD0	; 208
    14f2:	41 93       	st	Z+, r20
    14f4:	b3 e0       	ldi	r27, 0x03	; 3
    14f6:	0f d0       	rcall	.+30     	; 0x1516 <__ultoa_invert+0x86>
    14f8:	c9 f7       	brne	.-14     	; 0x14ec <__ultoa_invert+0x5c>
    14fa:	f6 cf       	rjmp	.-20     	; 0x14e8 <__ultoa_invert+0x58>
    14fc:	46 2f       	mov	r20, r22
    14fe:	4f 70       	andi	r20, 0x0F	; 15
    1500:	40 5d       	subi	r20, 0xD0	; 208
    1502:	4a 33       	cpi	r20, 0x3A	; 58
    1504:	18 f0       	brcs	.+6      	; 0x150c <__ultoa_invert+0x7c>
    1506:	49 5d       	subi	r20, 0xD9	; 217
    1508:	31 fd       	sbrc	r19, 1
    150a:	40 52       	subi	r20, 0x20	; 32
    150c:	41 93       	st	Z+, r20
    150e:	02 d0       	rcall	.+4      	; 0x1514 <__ultoa_invert+0x84>
    1510:	a9 f7       	brne	.-22     	; 0x14fc <__ultoa_invert+0x6c>
    1512:	ea cf       	rjmp	.-44     	; 0x14e8 <__ultoa_invert+0x58>
    1514:	b4 e0       	ldi	r27, 0x04	; 4
    1516:	a6 95       	lsr	r26
    1518:	97 95       	ror	r25
    151a:	87 95       	ror	r24
    151c:	77 95       	ror	r23
    151e:	67 95       	ror	r22
    1520:	ba 95       	dec	r27
    1522:	c9 f7       	brne	.-14     	; 0x1516 <__ultoa_invert+0x86>
    1524:	00 97       	sbiw	r24, 0x00	; 0
    1526:	61 05       	cpc	r22, r1
    1528:	71 05       	cpc	r23, r1
    152a:	08 95       	ret
    152c:	9b 01       	movw	r18, r22
    152e:	ac 01       	movw	r20, r24
    1530:	0a 2e       	mov	r0, r26
    1532:	06 94       	lsr	r0
    1534:	57 95       	ror	r21
    1536:	47 95       	ror	r20
    1538:	37 95       	ror	r19
    153a:	27 95       	ror	r18
    153c:	ba 95       	dec	r27
    153e:	c9 f7       	brne	.-14     	; 0x1532 <__ultoa_invert+0xa2>
    1540:	62 0f       	add	r22, r18
    1542:	73 1f       	adc	r23, r19
    1544:	84 1f       	adc	r24, r20
    1546:	95 1f       	adc	r25, r21
    1548:	a0 1d       	adc	r26, r0
    154a:	08 95       	ret

0000154c <putval>:
    154c:	20 fd       	sbrc	r18, 0
    154e:	09 c0       	rjmp	.+18     	; 0x1562 <putval+0x16>
    1550:	fc 01       	movw	r30, r24
    1552:	23 fd       	sbrc	r18, 3
    1554:	05 c0       	rjmp	.+10     	; 0x1560 <putval+0x14>
    1556:	22 ff       	sbrs	r18, 2
    1558:	02 c0       	rjmp	.+4      	; 0x155e <putval+0x12>
    155a:	73 83       	std	Z+3, r23	; 0x03
    155c:	62 83       	std	Z+2, r22	; 0x02
    155e:	51 83       	std	Z+1, r21	; 0x01
    1560:	40 83       	st	Z, r20
    1562:	08 95       	ret

00001564 <mulacc>:
    1564:	44 fd       	sbrc	r20, 4
    1566:	17 c0       	rjmp	.+46     	; 0x1596 <mulacc+0x32>
    1568:	46 fd       	sbrc	r20, 6
    156a:	17 c0       	rjmp	.+46     	; 0x159a <mulacc+0x36>
    156c:	ab 01       	movw	r20, r22
    156e:	bc 01       	movw	r22, r24
    1570:	da 01       	movw	r26, r20
    1572:	fb 01       	movw	r30, r22
    1574:	aa 0f       	add	r26, r26
    1576:	bb 1f       	adc	r27, r27
    1578:	ee 1f       	adc	r30, r30
    157a:	ff 1f       	adc	r31, r31
    157c:	10 94       	com	r1
    157e:	d1 f7       	brne	.-12     	; 0x1574 <mulacc+0x10>
    1580:	4a 0f       	add	r20, r26
    1582:	5b 1f       	adc	r21, r27
    1584:	6e 1f       	adc	r22, r30
    1586:	7f 1f       	adc	r23, r31
    1588:	cb 01       	movw	r24, r22
    158a:	ba 01       	movw	r22, r20
    158c:	66 0f       	add	r22, r22
    158e:	77 1f       	adc	r23, r23
    1590:	88 1f       	adc	r24, r24
    1592:	99 1f       	adc	r25, r25
    1594:	09 c0       	rjmp	.+18     	; 0x15a8 <mulacc+0x44>
    1596:	33 e0       	ldi	r19, 0x03	; 3
    1598:	01 c0       	rjmp	.+2      	; 0x159c <mulacc+0x38>
    159a:	34 e0       	ldi	r19, 0x04	; 4
    159c:	66 0f       	add	r22, r22
    159e:	77 1f       	adc	r23, r23
    15a0:	88 1f       	adc	r24, r24
    15a2:	99 1f       	adc	r25, r25
    15a4:	31 50       	subi	r19, 0x01	; 1
    15a6:	d1 f7       	brne	.-12     	; 0x159c <mulacc+0x38>
    15a8:	62 0f       	add	r22, r18
    15aa:	71 1d       	adc	r23, r1
    15ac:	81 1d       	adc	r24, r1
    15ae:	91 1d       	adc	r25, r1
    15b0:	08 95       	ret

000015b2 <skip_spaces>:
    15b2:	0f 93       	push	r16
    15b4:	1f 93       	push	r17
    15b6:	cf 93       	push	r28
    15b8:	df 93       	push	r29
    15ba:	8c 01       	movw	r16, r24
    15bc:	c8 01       	movw	r24, r16
    15be:	0e 94 67 0d 	call	0x1ace	; 0x1ace <fgetc>
    15c2:	ec 01       	movw	r28, r24
    15c4:	97 fd       	sbrc	r25, 7
    15c6:	08 c0       	rjmp	.+16     	; 0x15d8 <skip_spaces+0x26>
    15c8:	0e 94 53 0d 	call	0x1aa6	; 0x1aa6 <isspace>
    15cc:	89 2b       	or	r24, r25
    15ce:	b1 f7       	brne	.-20     	; 0x15bc <skip_spaces+0xa>
    15d0:	b8 01       	movw	r22, r16
    15d2:	ce 01       	movw	r24, r28
    15d4:	0e 94 a5 0d 	call	0x1b4a	; 0x1b4a <ungetc>
    15d8:	ce 01       	movw	r24, r28
    15da:	df 91       	pop	r29
    15dc:	cf 91       	pop	r28
    15de:	1f 91       	pop	r17
    15e0:	0f 91       	pop	r16
    15e2:	08 95       	ret

000015e4 <conv_int>:
    15e4:	8f 92       	push	r8
    15e6:	9f 92       	push	r9
    15e8:	af 92       	push	r10
    15ea:	bf 92       	push	r11
    15ec:	ef 92       	push	r14
    15ee:	ff 92       	push	r15
    15f0:	0f 93       	push	r16
    15f2:	1f 93       	push	r17
    15f4:	cf 93       	push	r28
    15f6:	df 93       	push	r29
    15f8:	8c 01       	movw	r16, r24
    15fa:	d6 2f       	mov	r29, r22
    15fc:	7a 01       	movw	r14, r20
    15fe:	b2 2e       	mov	r11, r18
    1600:	0e 94 67 0d 	call	0x1ace	; 0x1ace <fgetc>
    1604:	9c 01       	movw	r18, r24
    1606:	33 27       	eor	r19, r19
    1608:	2b 32       	cpi	r18, 0x2B	; 43
    160a:	31 05       	cpc	r19, r1
    160c:	31 f0       	breq	.+12     	; 0x161a <conv_int+0x36>
    160e:	2d 32       	cpi	r18, 0x2D	; 45
    1610:	31 05       	cpc	r19, r1
    1612:	61 f4       	brne	.+24     	; 0x162c <conv_int+0x48>
    1614:	8b 2d       	mov	r24, r11
    1616:	80 68       	ori	r24, 0x80	; 128
    1618:	b8 2e       	mov	r11, r24
    161a:	d1 50       	subi	r29, 0x01	; 1
    161c:	11 f4       	brne	.+4      	; 0x1622 <conv_int+0x3e>
    161e:	80 e0       	ldi	r24, 0x00	; 0
    1620:	68 c0       	rjmp	.+208    	; 0x16f2 <conv_int+0x10e>
    1622:	c8 01       	movw	r24, r16
    1624:	0e 94 67 0d 	call	0x1ace	; 0x1ace <fgetc>
    1628:	97 fd       	sbrc	r25, 7
    162a:	f9 cf       	rjmp	.-14     	; 0x161e <conv_int+0x3a>
    162c:	cb 2d       	mov	r28, r11
    162e:	cd 7f       	andi	r28, 0xFD	; 253
    1630:	2b 2d       	mov	r18, r11
    1632:	20 73       	andi	r18, 0x30	; 48
    1634:	09 f5       	brne	.+66     	; 0x1678 <conv_int+0x94>
    1636:	80 33       	cpi	r24, 0x30	; 48
    1638:	f9 f4       	brne	.+62     	; 0x1678 <conv_int+0x94>
    163a:	aa 24       	eor	r10, r10
    163c:	aa 94       	dec	r10
    163e:	ad 0e       	add	r10, r29
    1640:	09 f4       	brne	.+2      	; 0x1644 <conv_int+0x60>
    1642:	43 c0       	rjmp	.+134    	; 0x16ca <conv_int+0xe6>
    1644:	c8 01       	movw	r24, r16
    1646:	0e 94 67 0d 	call	0x1ace	; 0x1ace <fgetc>
    164a:	97 fd       	sbrc	r25, 7
    164c:	3e c0       	rjmp	.+124    	; 0x16ca <conv_int+0xe6>
    164e:	9c 01       	movw	r18, r24
    1650:	2f 7d       	andi	r18, 0xDF	; 223
    1652:	33 27       	eor	r19, r19
    1654:	28 35       	cpi	r18, 0x58	; 88
    1656:	31 05       	cpc	r19, r1
    1658:	49 f4       	brne	.+18     	; 0x166c <conv_int+0x88>
    165a:	c2 64       	ori	r28, 0x42	; 66
    165c:	d2 50       	subi	r29, 0x02	; 2
    165e:	a9 f1       	breq	.+106    	; 0x16ca <conv_int+0xe6>
    1660:	c8 01       	movw	r24, r16
    1662:	0e 94 67 0d 	call	0x1ace	; 0x1ace <fgetc>
    1666:	97 ff       	sbrs	r25, 7
    1668:	07 c0       	rjmp	.+14     	; 0x1678 <conv_int+0x94>
    166a:	2f c0       	rjmp	.+94     	; 0x16ca <conv_int+0xe6>
    166c:	b6 fe       	sbrs	r11, 6
    166e:	02 c0       	rjmp	.+4      	; 0x1674 <conv_int+0x90>
    1670:	c2 60       	ori	r28, 0x02	; 2
    1672:	01 c0       	rjmp	.+2      	; 0x1676 <conv_int+0x92>
    1674:	c2 61       	ori	r28, 0x12	; 18
    1676:	da 2d       	mov	r29, r10
    1678:	81 2c       	mov	r8, r1
    167a:	91 2c       	mov	r9, r1
    167c:	54 01       	movw	r10, r8
    167e:	20 ed       	ldi	r18, 0xD0	; 208
    1680:	28 0f       	add	r18, r24
    1682:	28 30       	cpi	r18, 0x08	; 8
    1684:	80 f0       	brcs	.+32     	; 0x16a6 <conv_int+0xc2>
    1686:	c4 ff       	sbrs	r28, 4
    1688:	04 c0       	rjmp	.+8      	; 0x1692 <conv_int+0xae>
    168a:	b8 01       	movw	r22, r16
    168c:	0e 94 a5 0d 	call	0x1b4a	; 0x1b4a <ungetc>
    1690:	19 c0       	rjmp	.+50     	; 0x16c4 <conv_int+0xe0>
    1692:	2a 30       	cpi	r18, 0x0A	; 10
    1694:	40 f0       	brcs	.+16     	; 0x16a6 <conv_int+0xc2>
    1696:	c6 ff       	sbrs	r28, 6
    1698:	f8 cf       	rjmp	.-16     	; 0x168a <conv_int+0xa6>
    169a:	2f 7d       	andi	r18, 0xDF	; 223
    169c:	3f ee       	ldi	r19, 0xEF	; 239
    169e:	32 0f       	add	r19, r18
    16a0:	36 30       	cpi	r19, 0x06	; 6
    16a2:	98 f7       	brcc	.-26     	; 0x168a <conv_int+0xa6>
    16a4:	27 50       	subi	r18, 0x07	; 7
    16a6:	4c 2f       	mov	r20, r28
    16a8:	c5 01       	movw	r24, r10
    16aa:	b4 01       	movw	r22, r8
    16ac:	0e 94 b2 0a 	call	0x1564	; 0x1564 <mulacc>
    16b0:	4b 01       	movw	r8, r22
    16b2:	5c 01       	movw	r10, r24
    16b4:	c2 60       	ori	r28, 0x02	; 2
    16b6:	d1 50       	subi	r29, 0x01	; 1
    16b8:	59 f0       	breq	.+22     	; 0x16d0 <conv_int+0xec>
    16ba:	c8 01       	movw	r24, r16
    16bc:	0e 94 67 0d 	call	0x1ace	; 0x1ace <fgetc>
    16c0:	97 ff       	sbrs	r25, 7
    16c2:	dd cf       	rjmp	.-70     	; 0x167e <conv_int+0x9a>
    16c4:	c1 fd       	sbrc	r28, 1
    16c6:	04 c0       	rjmp	.+8      	; 0x16d0 <conv_int+0xec>
    16c8:	aa cf       	rjmp	.-172    	; 0x161e <conv_int+0x3a>
    16ca:	81 2c       	mov	r8, r1
    16cc:	91 2c       	mov	r9, r1
    16ce:	54 01       	movw	r10, r8
    16d0:	c7 ff       	sbrs	r28, 7
    16d2:	08 c0       	rjmp	.+16     	; 0x16e4 <conv_int+0x100>
    16d4:	b0 94       	com	r11
    16d6:	a0 94       	com	r10
    16d8:	90 94       	com	r9
    16da:	80 94       	com	r8
    16dc:	81 1c       	adc	r8, r1
    16de:	91 1c       	adc	r9, r1
    16e0:	a1 1c       	adc	r10, r1
    16e2:	b1 1c       	adc	r11, r1
    16e4:	2c 2f       	mov	r18, r28
    16e6:	b5 01       	movw	r22, r10
    16e8:	a4 01       	movw	r20, r8
    16ea:	c7 01       	movw	r24, r14
    16ec:	0e 94 a6 0a 	call	0x154c	; 0x154c <putval>
    16f0:	81 e0       	ldi	r24, 0x01	; 1
    16f2:	df 91       	pop	r29
    16f4:	cf 91       	pop	r28
    16f6:	1f 91       	pop	r17
    16f8:	0f 91       	pop	r16
    16fa:	ff 90       	pop	r15
    16fc:	ef 90       	pop	r14
    16fe:	bf 90       	pop	r11
    1700:	af 90       	pop	r10
    1702:	9f 90       	pop	r9
    1704:	8f 90       	pop	r8
    1706:	08 95       	ret

00001708 <conv_brk>:
    1708:	a0 e2       	ldi	r26, 0x20	; 32
    170a:	b0 e0       	ldi	r27, 0x00	; 0
    170c:	ea e8       	ldi	r30, 0x8A	; 138
    170e:	fb e0       	ldi	r31, 0x0B	; 11
    1710:	0c 94 45 08 	jmp	0x108a	; 0x108a <__prologue_saves__+0x6>
    1714:	5c 01       	movw	r10, r24
    1716:	96 2e       	mov	r9, r22
    1718:	7a 01       	movw	r14, r20
    171a:	f9 01       	movw	r30, r18
    171c:	8e 01       	movw	r16, r28
    171e:	0f 5f       	subi	r16, 0xFF	; 255
    1720:	1f 4f       	sbci	r17, 0xFF	; 255
    1722:	68 01       	movw	r12, r16
    1724:	80 e2       	ldi	r24, 0x20	; 32
    1726:	d8 01       	movw	r26, r16
    1728:	1d 92       	st	X+, r1
    172a:	8a 95       	dec	r24
    172c:	e9 f7       	brne	.-6      	; 0x1728 <conv_brk+0x20>
    172e:	d5 01       	movw	r26, r10
    1730:	13 96       	adiw	r26, 0x03	; 3
    1732:	8c 90       	ld	r8, X
    1734:	80 e0       	ldi	r24, 0x00	; 0
    1736:	90 e0       	ldi	r25, 0x00	; 0
    1738:	61 2c       	mov	r6, r1
    173a:	71 2c       	mov	r7, r1
    173c:	30 e0       	ldi	r19, 0x00	; 0
    173e:	61 e0       	ldi	r22, 0x01	; 1
    1740:	70 e0       	ldi	r23, 0x00	; 0
    1742:	83 fc       	sbrc	r8, 3
    1744:	25 91       	lpm	r18, Z+
    1746:	83 fe       	sbrs	r8, 3
    1748:	21 91       	ld	r18, Z+
    174a:	8f 01       	movw	r16, r30
    174c:	52 2e       	mov	r5, r18
    174e:	21 11       	cpse	r18, r1
    1750:	03 c0       	rjmp	.+6      	; 0x1758 <conv_brk+0x50>
    1752:	80 e0       	ldi	r24, 0x00	; 0
    1754:	90 e0       	ldi	r25, 0x00	; 0
    1756:	92 c0       	rjmp	.+292    	; 0x187c <conv_brk+0x174>
    1758:	2e 35       	cpi	r18, 0x5E	; 94
    175a:	11 f4       	brne	.+4      	; 0x1760 <conv_brk+0x58>
    175c:	00 97       	sbiw	r24, 0x00	; 0
    175e:	51 f1       	breq	.+84     	; 0x17b4 <conv_brk+0xac>
    1760:	43 2f       	mov	r20, r19
    1762:	50 e0       	ldi	r21, 0x00	; 0
    1764:	48 17       	cp	r20, r24
    1766:	59 07       	cpc	r21, r25
    1768:	3c f4       	brge	.+14     	; 0x1778 <conv_brk+0x70>
    176a:	2d 35       	cpi	r18, 0x5D	; 93
    176c:	59 f1       	breq	.+86     	; 0x17c4 <conv_brk+0xbc>
    176e:	2d 32       	cpi	r18, 0x2D	; 45
    1770:	19 f4       	brne	.+6      	; 0x1778 <conv_brk+0x70>
    1772:	77 20       	and	r7, r7
    1774:	09 f1       	breq	.+66     	; 0x17b8 <conv_brk+0xb0>
    1776:	03 c0       	rjmp	.+6      	; 0x177e <conv_brk+0x76>
    1778:	77 20       	and	r7, r7
    177a:	09 f4       	brne	.+2      	; 0x177e <conv_brk+0x76>
    177c:	6a c0       	rjmp	.+212    	; 0x1852 <conv_brk+0x14a>
    177e:	45 2d       	mov	r20, r5
    1780:	46 95       	lsr	r20
    1782:	46 95       	lsr	r20
    1784:	46 95       	lsr	r20
    1786:	d6 01       	movw	r26, r12
    1788:	a4 0f       	add	r26, r20
    178a:	b1 1d       	adc	r27, r1
    178c:	45 2d       	mov	r20, r5
    178e:	47 70       	andi	r20, 0x07	; 7
    1790:	8b 01       	movw	r16, r22
    1792:	02 c0       	rjmp	.+4      	; 0x1798 <conv_brk+0x90>
    1794:	00 0f       	add	r16, r16
    1796:	11 1f       	adc	r17, r17
    1798:	4a 95       	dec	r20
    179a:	e2 f7       	brpl	.-8      	; 0x1794 <conv_brk+0x8c>
    179c:	a8 01       	movw	r20, r16
    179e:	5c 91       	ld	r21, X
    17a0:	45 2b       	or	r20, r21
    17a2:	4c 93       	st	X, r20
    17a4:	65 14       	cp	r6, r5
    17a6:	59 f0       	breq	.+22     	; 0x17be <conv_brk+0xb6>
    17a8:	56 14       	cp	r5, r6
    17aa:	10 f4       	brcc	.+4      	; 0x17b0 <conv_brk+0xa8>
    17ac:	53 94       	inc	r5
    17ae:	e7 cf       	rjmp	.-50     	; 0x177e <conv_brk+0x76>
    17b0:	5a 94       	dec	r5
    17b2:	e5 cf       	rjmp	.-54     	; 0x177e <conv_brk+0x76>
    17b4:	31 e0       	ldi	r19, 0x01	; 1
    17b6:	04 c0       	rjmp	.+8      	; 0x17c0 <conv_brk+0xb8>
    17b8:	77 24       	eor	r7, r7
    17ba:	73 94       	inc	r7
    17bc:	01 c0       	rjmp	.+2      	; 0x17c0 <conv_brk+0xb8>
    17be:	71 2c       	mov	r7, r1
    17c0:	01 96       	adiw	r24, 0x01	; 1
    17c2:	bf cf       	rjmp	.-130    	; 0x1742 <conv_brk+0x3a>
    17c4:	77 20       	and	r7, r7
    17c6:	19 f0       	breq	.+6      	; 0x17ce <conv_brk+0xc6>
    17c8:	8e 81       	ldd	r24, Y+6	; 0x06
    17ca:	80 62       	ori	r24, 0x20	; 32
    17cc:	8e 83       	std	Y+6, r24	; 0x06
    17ce:	31 11       	cpse	r19, r1
    17d0:	03 c0       	rjmp	.+6      	; 0x17d8 <conv_brk+0xd0>
    17d2:	88 24       	eor	r8, r8
    17d4:	83 94       	inc	r8
    17d6:	17 c0       	rjmp	.+46     	; 0x1806 <conv_brk+0xfe>
    17d8:	f6 01       	movw	r30, r12
    17da:	9e 01       	movw	r18, r28
    17dc:	2f 5d       	subi	r18, 0xDF	; 223
    17de:	3f 4f       	sbci	r19, 0xFF	; 255
    17e0:	80 81       	ld	r24, Z
    17e2:	80 95       	com	r24
    17e4:	81 93       	st	Z+, r24
    17e6:	2e 17       	cp	r18, r30
    17e8:	3f 07       	cpc	r19, r31
    17ea:	d1 f7       	brne	.-12     	; 0x17e0 <conv_brk+0xd8>
    17ec:	f2 cf       	rjmp	.-28     	; 0x17d2 <conv_brk+0xca>
    17ee:	e1 14       	cp	r14, r1
    17f0:	f1 04       	cpc	r15, r1
    17f2:	29 f0       	breq	.+10     	; 0x17fe <conv_brk+0xf6>
    17f4:	d7 01       	movw	r26, r14
    17f6:	8c 93       	st	X, r24
    17f8:	f7 01       	movw	r30, r14
    17fa:	31 96       	adiw	r30, 0x01	; 1
    17fc:	7f 01       	movw	r14, r30
    17fe:	9a 94       	dec	r9
    1800:	81 2c       	mov	r8, r1
    1802:	99 20       	and	r9, r9
    1804:	f9 f0       	breq	.+62     	; 0x1844 <conv_brk+0x13c>
    1806:	c5 01       	movw	r24, r10
    1808:	0e 94 67 0d 	call	0x1ace	; 0x1ace <fgetc>
    180c:	97 fd       	sbrc	r25, 7
    180e:	18 c0       	rjmp	.+48     	; 0x1840 <conv_brk+0x138>
    1810:	fc 01       	movw	r30, r24
    1812:	ff 27       	eor	r31, r31
    1814:	23 e0       	ldi	r18, 0x03	; 3
    1816:	f5 95       	asr	r31
    1818:	e7 95       	ror	r30
    181a:	2a 95       	dec	r18
    181c:	e1 f7       	brne	.-8      	; 0x1816 <conv_brk+0x10e>
    181e:	ec 0d       	add	r30, r12
    1820:	fd 1d       	adc	r31, r13
    1822:	20 81       	ld	r18, Z
    1824:	30 e0       	ldi	r19, 0x00	; 0
    1826:	ac 01       	movw	r20, r24
    1828:	47 70       	andi	r20, 0x07	; 7
    182a:	55 27       	eor	r21, r21
    182c:	02 c0       	rjmp	.+4      	; 0x1832 <conv_brk+0x12a>
    182e:	35 95       	asr	r19
    1830:	27 95       	ror	r18
    1832:	4a 95       	dec	r20
    1834:	e2 f7       	brpl	.-8      	; 0x182e <conv_brk+0x126>
    1836:	20 fd       	sbrc	r18, 0
    1838:	da cf       	rjmp	.-76     	; 0x17ee <conv_brk+0xe6>
    183a:	b5 01       	movw	r22, r10
    183c:	0e 94 a5 0d 	call	0x1b4a	; 0x1b4a <ungetc>
    1840:	81 10       	cpse	r8, r1
    1842:	87 cf       	rjmp	.-242    	; 0x1752 <conv_brk+0x4a>
    1844:	e1 14       	cp	r14, r1
    1846:	f1 04       	cpc	r15, r1
    1848:	11 f0       	breq	.+4      	; 0x184e <conv_brk+0x146>
    184a:	d7 01       	movw	r26, r14
    184c:	1c 92       	st	X, r1
    184e:	c8 01       	movw	r24, r16
    1850:	15 c0       	rjmp	.+42     	; 0x187c <conv_brk+0x174>
    1852:	42 2f       	mov	r20, r18
    1854:	46 95       	lsr	r20
    1856:	46 95       	lsr	r20
    1858:	46 95       	lsr	r20
    185a:	d6 01       	movw	r26, r12
    185c:	a4 0f       	add	r26, r20
    185e:	b1 1d       	adc	r27, r1
    1860:	42 2f       	mov	r20, r18
    1862:	47 70       	andi	r20, 0x07	; 7
    1864:	8b 01       	movw	r16, r22
    1866:	02 c0       	rjmp	.+4      	; 0x186c <conv_brk+0x164>
    1868:	00 0f       	add	r16, r16
    186a:	11 1f       	adc	r17, r17
    186c:	4a 95       	dec	r20
    186e:	e2 f7       	brpl	.-8      	; 0x1868 <conv_brk+0x160>
    1870:	a8 01       	movw	r20, r16
    1872:	5c 91       	ld	r21, X
    1874:	45 2b       	or	r20, r21
    1876:	4c 93       	st	X, r20
    1878:	62 2e       	mov	r6, r18
    187a:	a2 cf       	rjmp	.-188    	; 0x17c0 <conv_brk+0xb8>
    187c:	a0 96       	adiw	r28, 0x20	; 32
    187e:	ef e0       	ldi	r30, 0x0F	; 15
    1880:	0c 94 61 08 	jmp	0x10c2	; 0x10c2 <__epilogue_restores__+0x6>

00001884 <vfscanf>:
    1884:	a0 e0       	ldi	r26, 0x00	; 0
    1886:	b0 e0       	ldi	r27, 0x00	; 0
    1888:	e8 e4       	ldi	r30, 0x48	; 72
    188a:	fc e0       	ldi	r31, 0x0C	; 12
    188c:	0c 94 45 08 	jmp	0x108a	; 0x108a <__prologue_saves__+0x6>
    1890:	6c 01       	movw	r12, r24
    1892:	eb 01       	movw	r28, r22
    1894:	5a 01       	movw	r10, r20
    1896:	fc 01       	movw	r30, r24
    1898:	17 82       	std	Z+7, r1	; 0x07
    189a:	16 82       	std	Z+6, r1	; 0x06
    189c:	51 2c       	mov	r5, r1
    189e:	f6 01       	movw	r30, r12
    18a0:	e3 80       	ldd	r14, Z+3	; 0x03
    18a2:	fe 01       	movw	r30, r28
    18a4:	e3 fc       	sbrc	r14, 3
    18a6:	85 91       	lpm	r24, Z+
    18a8:	e3 fe       	sbrs	r14, 3
    18aa:	81 91       	ld	r24, Z+
    18ac:	18 2f       	mov	r17, r24
    18ae:	ef 01       	movw	r28, r30
    18b0:	88 23       	and	r24, r24
    18b2:	09 f4       	brne	.+2      	; 0x18b6 <vfscanf+0x32>
    18b4:	ee c0       	rjmp	.+476    	; 0x1a92 <vfscanf+0x20e>
    18b6:	90 e0       	ldi	r25, 0x00	; 0
    18b8:	0e 94 53 0d 	call	0x1aa6	; 0x1aa6 <isspace>
    18bc:	89 2b       	or	r24, r25
    18be:	21 f0       	breq	.+8      	; 0x18c8 <vfscanf+0x44>
    18c0:	c6 01       	movw	r24, r12
    18c2:	0e 94 d9 0a 	call	0x15b2	; 0x15b2 <skip_spaces>
    18c6:	eb cf       	rjmp	.-42     	; 0x189e <vfscanf+0x1a>
    18c8:	15 32       	cpi	r17, 0x25	; 37
    18ca:	41 f4       	brne	.+16     	; 0x18dc <vfscanf+0x58>
    18cc:	fe 01       	movw	r30, r28
    18ce:	e3 fc       	sbrc	r14, 3
    18d0:	15 91       	lpm	r17, Z+
    18d2:	e3 fe       	sbrs	r14, 3
    18d4:	11 91       	ld	r17, Z+
    18d6:	ef 01       	movw	r28, r30
    18d8:	15 32       	cpi	r17, 0x25	; 37
    18da:	81 f4       	brne	.+32     	; 0x18fc <vfscanf+0x78>
    18dc:	c6 01       	movw	r24, r12
    18de:	0e 94 67 0d 	call	0x1ace	; 0x1ace <fgetc>
    18e2:	97 fd       	sbrc	r25, 7
    18e4:	d4 c0       	rjmp	.+424    	; 0x1a8e <vfscanf+0x20a>
    18e6:	41 2f       	mov	r20, r17
    18e8:	50 e0       	ldi	r21, 0x00	; 0
    18ea:	9c 01       	movw	r18, r24
    18ec:	33 27       	eor	r19, r19
    18ee:	24 17       	cp	r18, r20
    18f0:	35 07       	cpc	r19, r21
    18f2:	a9 f2       	breq	.-86     	; 0x189e <vfscanf+0x1a>
    18f4:	b6 01       	movw	r22, r12
    18f6:	0e 94 a5 0d 	call	0x1b4a	; 0x1b4a <ungetc>
    18fa:	cb c0       	rjmp	.+406    	; 0x1a92 <vfscanf+0x20e>
    18fc:	1a 32       	cpi	r17, 0x2A	; 42
    18fe:	39 f4       	brne	.+14     	; 0x190e <vfscanf+0x8a>
    1900:	e3 fc       	sbrc	r14, 3
    1902:	15 91       	lpm	r17, Z+
    1904:	e3 fe       	sbrs	r14, 3
    1906:	11 91       	ld	r17, Z+
    1908:	ef 01       	movw	r28, r30
    190a:	01 e0       	ldi	r16, 0x01	; 1
    190c:	01 c0       	rjmp	.+2      	; 0x1910 <vfscanf+0x8c>
    190e:	00 e0       	ldi	r16, 0x00	; 0
    1910:	f1 2c       	mov	r15, r1
    1912:	20 ed       	ldi	r18, 0xD0	; 208
    1914:	21 0f       	add	r18, r17
    1916:	2a 30       	cpi	r18, 0x0A	; 10
    1918:	80 f4       	brcc	.+32     	; 0x193a <vfscanf+0xb6>
    191a:	02 60       	ori	r16, 0x02	; 2
    191c:	6f 2d       	mov	r22, r15
    191e:	70 e0       	ldi	r23, 0x00	; 0
    1920:	80 e0       	ldi	r24, 0x00	; 0
    1922:	90 e0       	ldi	r25, 0x00	; 0
    1924:	40 e2       	ldi	r20, 0x20	; 32
    1926:	0e 94 b2 0a 	call	0x1564	; 0x1564 <mulacc>
    192a:	f6 2e       	mov	r15, r22
    192c:	fe 01       	movw	r30, r28
    192e:	e3 fc       	sbrc	r14, 3
    1930:	15 91       	lpm	r17, Z+
    1932:	e3 fe       	sbrs	r14, 3
    1934:	11 91       	ld	r17, Z+
    1936:	ef 01       	movw	r28, r30
    1938:	ec cf       	rjmp	.-40     	; 0x1912 <vfscanf+0x8e>
    193a:	01 ff       	sbrs	r16, 1
    193c:	03 c0       	rjmp	.+6      	; 0x1944 <vfscanf+0xc0>
    193e:	f1 10       	cpse	r15, r1
    1940:	03 c0       	rjmp	.+6      	; 0x1948 <vfscanf+0xc4>
    1942:	a7 c0       	rjmp	.+334    	; 0x1a92 <vfscanf+0x20e>
    1944:	ff 24       	eor	r15, r15
    1946:	fa 94       	dec	r15
    1948:	18 36       	cpi	r17, 0x68	; 104
    194a:	19 f0       	breq	.+6      	; 0x1952 <vfscanf+0xce>
    194c:	1c 36       	cpi	r17, 0x6C	; 108
    194e:	51 f0       	breq	.+20     	; 0x1964 <vfscanf+0xe0>
    1950:	10 c0       	rjmp	.+32     	; 0x1972 <vfscanf+0xee>
    1952:	fe 01       	movw	r30, r28
    1954:	e3 fc       	sbrc	r14, 3
    1956:	15 91       	lpm	r17, Z+
    1958:	e3 fe       	sbrs	r14, 3
    195a:	11 91       	ld	r17, Z+
    195c:	ef 01       	movw	r28, r30
    195e:	18 36       	cpi	r17, 0x68	; 104
    1960:	41 f4       	brne	.+16     	; 0x1972 <vfscanf+0xee>
    1962:	08 60       	ori	r16, 0x08	; 8
    1964:	04 60       	ori	r16, 0x04	; 4
    1966:	fe 01       	movw	r30, r28
    1968:	e3 fc       	sbrc	r14, 3
    196a:	15 91       	lpm	r17, Z+
    196c:	e3 fe       	sbrs	r14, 3
    196e:	11 91       	ld	r17, Z+
    1970:	ef 01       	movw	r28, r30
    1972:	11 23       	and	r17, r17
    1974:	09 f4       	brne	.+2      	; 0x1978 <vfscanf+0xf4>
    1976:	8d c0       	rjmp	.+282    	; 0x1a92 <vfscanf+0x20e>
    1978:	61 2f       	mov	r22, r17
    197a:	70 e0       	ldi	r23, 0x00	; 0
    197c:	8a e6       	ldi	r24, 0x6A	; 106
    197e:	91 e0       	ldi	r25, 0x01	; 1
    1980:	0e 94 5c 0d 	call	0x1ab8	; 0x1ab8 <strchr_P>
    1984:	89 2b       	or	r24, r25
    1986:	09 f4       	brne	.+2      	; 0x198a <vfscanf+0x106>
    1988:	84 c0       	rjmp	.+264    	; 0x1a92 <vfscanf+0x20e>
    198a:	00 fd       	sbrc	r16, 0
    198c:	07 c0       	rjmp	.+14     	; 0x199c <vfscanf+0x118>
    198e:	f5 01       	movw	r30, r10
    1990:	80 80       	ld	r8, Z
    1992:	91 80       	ldd	r9, Z+1	; 0x01
    1994:	c5 01       	movw	r24, r10
    1996:	02 96       	adiw	r24, 0x02	; 2
    1998:	5c 01       	movw	r10, r24
    199a:	02 c0       	rjmp	.+4      	; 0x19a0 <vfscanf+0x11c>
    199c:	81 2c       	mov	r8, r1
    199e:	91 2c       	mov	r9, r1
    19a0:	1e 36       	cpi	r17, 0x6E	; 110
    19a2:	51 f4       	brne	.+20     	; 0x19b8 <vfscanf+0x134>
    19a4:	f6 01       	movw	r30, r12
    19a6:	46 81       	ldd	r20, Z+6	; 0x06
    19a8:	57 81       	ldd	r21, Z+7	; 0x07
    19aa:	60 e0       	ldi	r22, 0x00	; 0
    19ac:	70 e0       	ldi	r23, 0x00	; 0
    19ae:	20 2f       	mov	r18, r16
    19b0:	c4 01       	movw	r24, r8
    19b2:	0e 94 a6 0a 	call	0x154c	; 0x154c <putval>
    19b6:	73 cf       	rjmp	.-282    	; 0x189e <vfscanf+0x1a>
    19b8:	13 36       	cpi	r17, 0x63	; 99
    19ba:	a9 f4       	brne	.+42     	; 0x19e6 <vfscanf+0x162>
    19bc:	01 fd       	sbrc	r16, 1
    19be:	02 c0       	rjmp	.+4      	; 0x19c4 <vfscanf+0x140>
    19c0:	ff 24       	eor	r15, r15
    19c2:	f3 94       	inc	r15
    19c4:	c6 01       	movw	r24, r12
    19c6:	0e 94 67 0d 	call	0x1ace	; 0x1ace <fgetc>
    19ca:	97 fd       	sbrc	r25, 7
    19cc:	60 c0       	rjmp	.+192    	; 0x1a8e <vfscanf+0x20a>
    19ce:	81 14       	cp	r8, r1
    19d0:	91 04       	cpc	r9, r1
    19d2:	29 f0       	breq	.+10     	; 0x19de <vfscanf+0x15a>
    19d4:	f4 01       	movw	r30, r8
    19d6:	80 83       	st	Z, r24
    19d8:	c4 01       	movw	r24, r8
    19da:	01 96       	adiw	r24, 0x01	; 1
    19dc:	4c 01       	movw	r8, r24
    19de:	fa 94       	dec	r15
    19e0:	f1 10       	cpse	r15, r1
    19e2:	f0 cf       	rjmp	.-32     	; 0x19c4 <vfscanf+0x140>
    19e4:	50 c0       	rjmp	.+160    	; 0x1a86 <vfscanf+0x202>
    19e6:	1b 35       	cpi	r17, 0x5B	; 91
    19e8:	59 f4       	brne	.+22     	; 0x1a00 <vfscanf+0x17c>
    19ea:	9e 01       	movw	r18, r28
    19ec:	a4 01       	movw	r20, r8
    19ee:	6f 2d       	mov	r22, r15
    19f0:	c6 01       	movw	r24, r12
    19f2:	0e 94 84 0b 	call	0x1708	; 0x1708 <conv_brk>
    19f6:	ec 01       	movw	r28, r24
    19f8:	89 2b       	or	r24, r25
    19fa:	09 f0       	breq	.+2      	; 0x19fe <vfscanf+0x17a>
    19fc:	44 c0       	rjmp	.+136    	; 0x1a86 <vfscanf+0x202>
    19fe:	3e c0       	rjmp	.+124    	; 0x1a7c <vfscanf+0x1f8>
    1a00:	c6 01       	movw	r24, r12
    1a02:	0e 94 d9 0a 	call	0x15b2	; 0x15b2 <skip_spaces>
    1a06:	97 fd       	sbrc	r25, 7
    1a08:	42 c0       	rjmp	.+132    	; 0x1a8e <vfscanf+0x20a>
    1a0a:	1f 36       	cpi	r17, 0x6F	; 111
    1a0c:	61 f1       	breq	.+88     	; 0x1a66 <vfscanf+0x1e2>
    1a0e:	28 f4       	brcc	.+10     	; 0x1a1a <vfscanf+0x196>
    1a10:	14 36       	cpi	r17, 0x64	; 100
    1a12:	39 f1       	breq	.+78     	; 0x1a62 <vfscanf+0x1de>
    1a14:	19 36       	cpi	r17, 0x69	; 105
    1a16:	51 f1       	breq	.+84     	; 0x1a6c <vfscanf+0x1e8>
    1a18:	28 c0       	rjmp	.+80     	; 0x1a6a <vfscanf+0x1e6>
    1a1a:	13 37       	cpi	r17, 0x73	; 115
    1a1c:	71 f0       	breq	.+28     	; 0x1a3a <vfscanf+0x1b6>
    1a1e:	15 37       	cpi	r17, 0x75	; 117
    1a20:	01 f1       	breq	.+64     	; 0x1a62 <vfscanf+0x1de>
    1a22:	23 c0       	rjmp	.+70     	; 0x1a6a <vfscanf+0x1e6>
    1a24:	81 14       	cp	r8, r1
    1a26:	91 04       	cpc	r9, r1
    1a28:	29 f0       	breq	.+10     	; 0x1a34 <vfscanf+0x1b0>
    1a2a:	f4 01       	movw	r30, r8
    1a2c:	60 82       	st	Z, r6
    1a2e:	c4 01       	movw	r24, r8
    1a30:	01 96       	adiw	r24, 0x01	; 1
    1a32:	4c 01       	movw	r8, r24
    1a34:	fa 94       	dec	r15
    1a36:	ff 20       	and	r15, r15
    1a38:	71 f0       	breq	.+28     	; 0x1a56 <vfscanf+0x1d2>
    1a3a:	c6 01       	movw	r24, r12
    1a3c:	0e 94 67 0d 	call	0x1ace	; 0x1ace <fgetc>
    1a40:	3c 01       	movw	r6, r24
    1a42:	97 fd       	sbrc	r25, 7
    1a44:	08 c0       	rjmp	.+16     	; 0x1a56 <vfscanf+0x1d2>
    1a46:	0e 94 53 0d 	call	0x1aa6	; 0x1aa6 <isspace>
    1a4a:	89 2b       	or	r24, r25
    1a4c:	59 f3       	breq	.-42     	; 0x1a24 <vfscanf+0x1a0>
    1a4e:	b6 01       	movw	r22, r12
    1a50:	c3 01       	movw	r24, r6
    1a52:	0e 94 a5 0d 	call	0x1b4a	; 0x1b4a <ungetc>
    1a56:	81 14       	cp	r8, r1
    1a58:	91 04       	cpc	r9, r1
    1a5a:	a9 f0       	breq	.+42     	; 0x1a86 <vfscanf+0x202>
    1a5c:	f4 01       	movw	r30, r8
    1a5e:	10 82       	st	Z, r1
    1a60:	12 c0       	rjmp	.+36     	; 0x1a86 <vfscanf+0x202>
    1a62:	00 62       	ori	r16, 0x20	; 32
    1a64:	03 c0       	rjmp	.+6      	; 0x1a6c <vfscanf+0x1e8>
    1a66:	00 61       	ori	r16, 0x10	; 16
    1a68:	01 c0       	rjmp	.+2      	; 0x1a6c <vfscanf+0x1e8>
    1a6a:	00 64       	ori	r16, 0x40	; 64
    1a6c:	20 2f       	mov	r18, r16
    1a6e:	a4 01       	movw	r20, r8
    1a70:	6f 2d       	mov	r22, r15
    1a72:	c6 01       	movw	r24, r12
    1a74:	0e 94 f2 0a 	call	0x15e4	; 0x15e4 <conv_int>
    1a78:	81 11       	cpse	r24, r1
    1a7a:	05 c0       	rjmp	.+10     	; 0x1a86 <vfscanf+0x202>
    1a7c:	f6 01       	movw	r30, r12
    1a7e:	83 81       	ldd	r24, Z+3	; 0x03
    1a80:	80 73       	andi	r24, 0x30	; 48
    1a82:	29 f4       	brne	.+10     	; 0x1a8e <vfscanf+0x20a>
    1a84:	06 c0       	rjmp	.+12     	; 0x1a92 <vfscanf+0x20e>
    1a86:	00 fd       	sbrc	r16, 0
    1a88:	0a cf       	rjmp	.-492    	; 0x189e <vfscanf+0x1a>
    1a8a:	53 94       	inc	r5
    1a8c:	08 cf       	rjmp	.-496    	; 0x189e <vfscanf+0x1a>
    1a8e:	55 20       	and	r5, r5
    1a90:	19 f0       	breq	.+6      	; 0x1a98 <vfscanf+0x214>
    1a92:	85 2d       	mov	r24, r5
    1a94:	90 e0       	ldi	r25, 0x00	; 0
    1a96:	02 c0       	rjmp	.+4      	; 0x1a9c <vfscanf+0x218>
    1a98:	8f ef       	ldi	r24, 0xFF	; 255
    1a9a:	9f ef       	ldi	r25, 0xFF	; 255
    1a9c:	cd b7       	in	r28, 0x3d	; 61
    1a9e:	de b7       	in	r29, 0x3e	; 62
    1aa0:	ef e0       	ldi	r30, 0x0F	; 15
    1aa2:	0c 94 61 08 	jmp	0x10c2	; 0x10c2 <__epilogue_restores__+0x6>

00001aa6 <isspace>:
    1aa6:	91 11       	cpse	r25, r1
    1aa8:	0c 94 be 0d 	jmp	0x1b7c	; 0x1b7c <__ctype_isfalse>
    1aac:	80 32       	cpi	r24, 0x20	; 32
    1aae:	19 f0       	breq	.+6      	; 0x1ab6 <isspace+0x10>
    1ab0:	89 50       	subi	r24, 0x09	; 9
    1ab2:	85 50       	subi	r24, 0x05	; 5
    1ab4:	c8 f7       	brcc	.-14     	; 0x1aa8 <isspace+0x2>
    1ab6:	08 95       	ret

00001ab8 <strchr_P>:
    1ab8:	fc 01       	movw	r30, r24
    1aba:	05 90       	lpm	r0, Z+
    1abc:	06 16       	cp	r0, r22
    1abe:	21 f0       	breq	.+8      	; 0x1ac8 <strchr_P+0x10>
    1ac0:	00 20       	and	r0, r0
    1ac2:	d9 f7       	brne	.-10     	; 0x1aba <strchr_P+0x2>
    1ac4:	c0 01       	movw	r24, r0
    1ac6:	08 95       	ret
    1ac8:	31 97       	sbiw	r30, 0x01	; 1
    1aca:	cf 01       	movw	r24, r30
    1acc:	08 95       	ret

00001ace <fgetc>:
    1ace:	cf 93       	push	r28
    1ad0:	df 93       	push	r29
    1ad2:	ec 01       	movw	r28, r24
    1ad4:	2b 81       	ldd	r18, Y+3	; 0x03
    1ad6:	20 ff       	sbrs	r18, 0
    1ad8:	33 c0       	rjmp	.+102    	; 0x1b40 <fgetc+0x72>
    1ada:	26 ff       	sbrs	r18, 6
    1adc:	0a c0       	rjmp	.+20     	; 0x1af2 <fgetc+0x24>
    1ade:	2f 7b       	andi	r18, 0xBF	; 191
    1ae0:	2b 83       	std	Y+3, r18	; 0x03
    1ae2:	8e 81       	ldd	r24, Y+6	; 0x06
    1ae4:	9f 81       	ldd	r25, Y+7	; 0x07
    1ae6:	01 96       	adiw	r24, 0x01	; 1
    1ae8:	9f 83       	std	Y+7, r25	; 0x07
    1aea:	8e 83       	std	Y+6, r24	; 0x06
    1aec:	8a 81       	ldd	r24, Y+2	; 0x02
    1aee:	90 e0       	ldi	r25, 0x00	; 0
    1af0:	29 c0       	rjmp	.+82     	; 0x1b44 <fgetc+0x76>
    1af2:	22 ff       	sbrs	r18, 2
    1af4:	0f c0       	rjmp	.+30     	; 0x1b14 <fgetc+0x46>
    1af6:	e8 81       	ld	r30, Y
    1af8:	f9 81       	ldd	r31, Y+1	; 0x01
    1afa:	80 81       	ld	r24, Z
    1afc:	08 2e       	mov	r0, r24
    1afe:	00 0c       	add	r0, r0
    1b00:	99 0b       	sbc	r25, r25
    1b02:	00 97       	sbiw	r24, 0x00	; 0
    1b04:	19 f4       	brne	.+6      	; 0x1b0c <fgetc+0x3e>
    1b06:	20 62       	ori	r18, 0x20	; 32
    1b08:	2b 83       	std	Y+3, r18	; 0x03
    1b0a:	1a c0       	rjmp	.+52     	; 0x1b40 <fgetc+0x72>
    1b0c:	31 96       	adiw	r30, 0x01	; 1
    1b0e:	f9 83       	std	Y+1, r31	; 0x01
    1b10:	e8 83       	st	Y, r30
    1b12:	0e c0       	rjmp	.+28     	; 0x1b30 <fgetc+0x62>
    1b14:	ea 85       	ldd	r30, Y+10	; 0x0a
    1b16:	fb 85       	ldd	r31, Y+11	; 0x0b
    1b18:	09 95       	icall
    1b1a:	97 ff       	sbrs	r25, 7
    1b1c:	09 c0       	rjmp	.+18     	; 0x1b30 <fgetc+0x62>
    1b1e:	2b 81       	ldd	r18, Y+3	; 0x03
    1b20:	01 96       	adiw	r24, 0x01	; 1
    1b22:	11 f0       	breq	.+4      	; 0x1b28 <fgetc+0x5a>
    1b24:	80 e2       	ldi	r24, 0x20	; 32
    1b26:	01 c0       	rjmp	.+2      	; 0x1b2a <fgetc+0x5c>
    1b28:	80 e1       	ldi	r24, 0x10	; 16
    1b2a:	82 2b       	or	r24, r18
    1b2c:	8b 83       	std	Y+3, r24	; 0x03
    1b2e:	08 c0       	rjmp	.+16     	; 0x1b40 <fgetc+0x72>
    1b30:	2e 81       	ldd	r18, Y+6	; 0x06
    1b32:	3f 81       	ldd	r19, Y+7	; 0x07
    1b34:	2f 5f       	subi	r18, 0xFF	; 255
    1b36:	3f 4f       	sbci	r19, 0xFF	; 255
    1b38:	3f 83       	std	Y+7, r19	; 0x07
    1b3a:	2e 83       	std	Y+6, r18	; 0x06
    1b3c:	99 27       	eor	r25, r25
    1b3e:	02 c0       	rjmp	.+4      	; 0x1b44 <fgetc+0x76>
    1b40:	8f ef       	ldi	r24, 0xFF	; 255
    1b42:	9f ef       	ldi	r25, 0xFF	; 255
    1b44:	df 91       	pop	r29
    1b46:	cf 91       	pop	r28
    1b48:	08 95       	ret

00001b4a <ungetc>:
    1b4a:	fb 01       	movw	r30, r22
    1b4c:	23 81       	ldd	r18, Z+3	; 0x03
    1b4e:	20 ff       	sbrs	r18, 0
    1b50:	12 c0       	rjmp	.+36     	; 0x1b76 <ungetc+0x2c>
    1b52:	26 fd       	sbrc	r18, 6
    1b54:	10 c0       	rjmp	.+32     	; 0x1b76 <ungetc+0x2c>
    1b56:	8f 3f       	cpi	r24, 0xFF	; 255
    1b58:	3f ef       	ldi	r19, 0xFF	; 255
    1b5a:	93 07       	cpc	r25, r19
    1b5c:	61 f0       	breq	.+24     	; 0x1b76 <ungetc+0x2c>
    1b5e:	82 83       	std	Z+2, r24	; 0x02
    1b60:	2f 7d       	andi	r18, 0xDF	; 223
    1b62:	20 64       	ori	r18, 0x40	; 64
    1b64:	23 83       	std	Z+3, r18	; 0x03
    1b66:	26 81       	ldd	r18, Z+6	; 0x06
    1b68:	37 81       	ldd	r19, Z+7	; 0x07
    1b6a:	21 50       	subi	r18, 0x01	; 1
    1b6c:	31 09       	sbc	r19, r1
    1b6e:	37 83       	std	Z+7, r19	; 0x07
    1b70:	26 83       	std	Z+6, r18	; 0x06
    1b72:	99 27       	eor	r25, r25
    1b74:	08 95       	ret
    1b76:	8f ef       	ldi	r24, 0xFF	; 255
    1b78:	9f ef       	ldi	r25, 0xFF	; 255
    1b7a:	08 95       	ret

00001b7c <__ctype_isfalse>:
    1b7c:	99 27       	eor	r25, r25
    1b7e:	88 27       	eor	r24, r24

00001b80 <__ctype_istrue>:
    1b80:	08 95       	ret

00001b82 <_exit>:
    1b82:	f8 94       	cli

00001b84 <__stop_program>:
    1b84:	ff cf       	rjmp	.-2      	; 0x1b84 <__stop_program>
