
DataLogger.elf:     file format elf32-avr

Sections:
Idx Name          Size      VMA       LMA       File off  Algn
  0 .data         00000080  00800100  0000166e  00001702  2**0
                  CONTENTS, ALLOC, LOAD, DATA
  1 .text         0000166e  00000000  00000000  00000094  2**1
                  CONTENTS, ALLOC, LOAD, READONLY, CODE
  2 .bss          00000008  00800180  00800180  00001782  2**0
                  ALLOC
  3 .comment      0000005c  00000000  00000000  00001782  2**0
                  CONTENTS, READONLY
  4 .note.gnu.avr.deviceinfo 00000040  00000000  00000000  000017e0  2**2
                  CONTENTS, READONLY
  5 .debug_aranges 000000a8  00000000  00000000  00001820  2**0
                  CONTENTS, READONLY, DEBUGGING
  6 .debug_info   00001047  00000000  00000000  000018c8  2**0
                  CONTENTS, READONLY, DEBUGGING
  7 .debug_abbrev 00000bec  00000000  00000000  0000290f  2**0
                  CONTENTS, READONLY, DEBUGGING
  8 .debug_line   0000068c  00000000  00000000  000034fb  2**0
                  CONTENTS, READONLY, DEBUGGING
  9 .debug_frame  0000015c  00000000  00000000  00003b88  2**2
                  CONTENTS, READONLY, DEBUGGING
 10 .debug_str    0000065e  00000000  00000000  00003ce4  2**0
                  CONTENTS, READONLY, DEBUGGING
 11 .debug_loc    0000029c  00000000  00000000  00004342  2**0
                  CONTENTS, READONLY, DEBUGGING
 12 .debug_ranges 00000088  00000000  00000000  000045de  2**0
                  CONTENTS, READONLY, DEBUGGING

Disassembly of section .text:

00000000 <__vectors>:
       0:	0c 94 e1 00 	jmp	0x1c2	; 0x1c2 <__ctors_end>
       4:	0c 94 fe 00 	jmp	0x1fc	; 0x1fc <__bad_interrupt>
       8:	0c 94 fe 00 	jmp	0x1fc	; 0x1fc <__bad_interrupt>
       c:	0c 94 fe 00 	jmp	0x1fc	; 0x1fc <__bad_interrupt>
      10:	0c 94 fe 00 	jmp	0x1fc	; 0x1fc <__bad_interrupt>
      14:	0c 94 fe 00 	jmp	0x1fc	; 0x1fc <__bad_interrupt>
      18:	0c 94 fe 00 	jmp	0x1fc	; 0x1fc <__bad_interrupt>
      1c:	0c 94 fe 00 	jmp	0x1fc	; 0x1fc <__bad_interrupt>
      20:	0c 94 fe 00 	jmp	0x1fc	; 0x1fc <__bad_interrupt>
      24:	0c 94 fe 00 	jmp	0x1fc	; 0x1fc <__bad_interrupt>
      28:	0c 94 fe 00 	jmp	0x1fc	; 0x1fc <__bad_interrupt>
      2c:	0c 94 fe 00 	jmp	0x1fc	; 0x1fc <__bad_interrupt>
      30:	0c 94 fe 00 	jmp	0x1fc	; 0x1fc <__bad_interrupt>
      34:	0c 94 fe 00 	jmp	0x1fc	; 0x1fc <__bad_interrupt>
      38:	0c 94 fe 00 	jmp	0x1fc	; 0x1fc <__bad_interrupt>
      3c:	0c 94 fe 00 	jmp	0x1fc	; 0x1fc <__bad_interrupt>
      40:	0c 94 32 01 	jmp	0x264	; 0x264 <__vector_16>
      44:	0c 94 fe 00 	jmp	0x1fc	; 0x1fc <__bad_interrupt>
      48:	0c 94 47 01 	jmp	0x28e	; 0x28e <__vector_18>
      4c:	0c 94 fe 00 	jmp	0x1fc	; 0x1fc <__bad_interrupt>
      50:	0c 94 fe 00 	jmp	0x1fc	; 0x1fc <__bad_interrupt>
      54:	0c 94 fe 00 	jmp	0x1fc	; 0x1fc <__bad_interrupt>
      58:	0c 94 fe 00 	jmp	0x1fc	; 0x1fc <__bad_interrupt>
      5c:	0c 94 fe 00 	jmp	0x1fc	; 0x1fc <__bad_interrupt>
      60:	0c 94 fe 00 	jmp	0x1fc	; 0x1fc <__bad_interrupt>
      64:	0c 94 fe 00 	jmp	0x1fc	; 0x1fc <__bad_interrupt>
      68:	0c 94 fe 00 	jmp	0x1fc	; 0x1fc <__bad_interrupt>
      6c:	0c 94 fe 00 	jmp	0x1fc	; 0x1fc <__bad_interrupt>
      70:	0c 94 fe 00 	jmp	0x1fc	; 0x1fc <__bad_interrupt>
      74:	0c 94 fe 00 	jmp	0x1fc	; 0x1fc <__bad_interrupt>
      78:	0c 94 fe 00 	jmp	0x1fc	; 0x1fc <__bad_interrupt>
      7c:	0c 94 fe 00 	jmp	0x1fc	; 0x1fc <__bad_interrupt>
      80:	0c 94 fe 00 	jmp	0x1fc	; 0x1fc <__bad_interrupt>
      84:	0c 94 fe 00 	jmp	0x1fc	; 0x1fc <__bad_interrupt>
      88:	0c 94 fe 00 	jmp	0x1fc	; 0x1fc <__bad_interrupt>
      8c:	0c 94 fe 00 	jmp	0x1fc	; 0x1fc <__bad_interrupt>
      90:	0c 94 fe 00 	jmp	0x1fc	; 0x1fc <__bad_interrupt>
      94:	0c 94 fe 00 	jmp	0x1fc	; 0x1fc <__bad_interrupt>
      98:	0c 94 fe 00 	jmp	0x1fc	; 0x1fc <__bad_interrupt>
      9c:	0c 94 fe 00 	jmp	0x1fc	; 0x1fc <__bad_interrupt>
      a0:	0c 94 fe 00 	jmp	0x1fc	; 0x1fc <__bad_interrupt>
      a4:	0c 94 fe 00 	jmp	0x1fc	; 0x1fc <__bad_interrupt>
      a8:	0c 94 fe 00 	jmp	0x1fc	; 0x1fc <__bad_interrupt>
      ac:	0c 94 fe 00 	jmp	0x1fc	; 0x1fc <__bad_interrupt>
      b0:	0c 94 fe 00 	jmp	0x1fc	; 0x1fc <__bad_interrupt>

000000b4 <__trampolines_end>:
      b4:	6e 61       	ori	r22, 0x1E	; 30
      b6:	6e 00       	.word	0x006e	; ????

000000b8 <__c.2332>:
      b8:	69 6e 66 00 00 40 7a 10 f3 5a 00 a0 72 4e 18 09     inf..@z..Z..rN..
      c8:	00 10 a5 d4 e8 00 00 e8 76 48 17 00 00 e4 0b 54     ........vH.....T
      d8:	02 00 00 ca 9a 3b 00 00 00 e1 f5 05 00 00 80 96     .....;..........
      e8:	98 00 00 00 40 42 0f 00 00 00 a0 86 01 00 00 00     ....@B..........
      f8:	10 27 00 00 00 00 e8 03 00 00 00 00 64 00 00 00     .'..........d...
     108:	00 00 0a 00 00 00 00 00 01 00 00 00 00 00 2c 76     ..............,v
     118:	d8 88 dc 67 4f 08 23 df c1 df ae 59 e1 b1 b7 96     ...gO.#....Y....
     128:	e5 e3 e4 53 c6 3a e6 51 99 76 96 e8 e6 c2 84 26     ...S.:.Q.v.....&
     138:	eb 89 8c 9b 62 ed 40 7c 6f fc ef bc 9c 9f 40 f2     ....b.@|o.....@.
     148:	ba a5 6f a5 f4 90 05 5a 2a f7 5c 93 6b 6c f9 67     ..o....Z*.\.kl.g
     158:	6d c1 1b fc e0 e4 0d 47 fe f5 20 e6 b5 00 d0 ed     m......G.. .....
     168:	90 2e 03 00 94 35 77 05 00 80 84 1e 08 00 00 20     .....5w........ 
     178:	4e 0a 00 00 00 c8 0c 33 33 33 33 0f 98 6e 12 83     N......3333..n..
     188:	11 41 ef 8d 21 14 89 3b e6 55 16 cf fe e6 db 18     .A..!..;.U......
     198:	d1 84 4b 38 1b f7 7c 1d 90 1d a4 bb e4 24 20 32     ..K8..|......$ 2
     1a8:	84 72 5e 22 81 00 c9 f1 24 ec a1 e5 3d 27           .r^"....$...='

000001b6 <__c.2474>:
     1b6:	63 64 69 6e 6f 70 73 75 78 58 5b 00                 cdinopsuxX[.

000001c2 <__ctors_end>:
     1c2:	11 24       	eor	r1, r1
     1c4:	1f be       	out	0x3f, r1	; 63
     1c6:	cf ef       	ldi	r28, 0xFF	; 255
     1c8:	d8 e0       	ldi	r29, 0x08	; 8
     1ca:	de bf       	out	0x3e, r29	; 62
     1cc:	cd bf       	out	0x3d, r28	; 61

000001ce <__do_copy_data>:
     1ce:	11 e0       	ldi	r17, 0x01	; 1
     1d0:	a0 e0       	ldi	r26, 0x00	; 0
     1d2:	b1 e0       	ldi	r27, 0x01	; 1
     1d4:	ee e6       	ldi	r30, 0x6E	; 110
     1d6:	f6 e1       	ldi	r31, 0x16	; 22
     1d8:	02 c0       	rjmp	.+4      	; 0x1de <__do_copy_data+0x10>
     1da:	05 90       	lpm	r0, Z+
     1dc:	0d 92       	st	X+, r0
     1de:	a0 38       	cpi	r26, 0x80	; 128
     1e0:	b1 07       	cpc	r27, r17
     1e2:	d9 f7       	brne	.-10     	; 0x1da <__do_copy_data+0xc>

000001e4 <__do_clear_bss>:
     1e4:	21 e0       	ldi	r18, 0x01	; 1
     1e6:	a0 e8       	ldi	r26, 0x80	; 128
     1e8:	b1 e0       	ldi	r27, 0x01	; 1
     1ea:	01 c0       	rjmp	.+2      	; 0x1ee <.do_clear_bss_start>

000001ec <.do_clear_bss_loop>:
     1ec:	1d 92       	st	X+, r1

000001ee <.do_clear_bss_start>:
     1ee:	a8 38       	cpi	r26, 0x88	; 136
     1f0:	b2 07       	cpc	r27, r18
     1f2:	e1 f7       	brne	.-8      	; 0x1ec <.do_clear_bss_loop>
     1f4:	0e 94 b3 01 	call	0x366	; 0x366 <main>
     1f8:	0c 94 35 0b 	jmp	0x166a	; 0x166a <_exit>

000001fc <__bad_interrupt>:
     1fc:	0c 94 00 00 	jmp	0	; 0x0 <__vectors>

00000200 <uart_putchar>:
    stdout = &mystdout; //required by printf
    stdin  = &mystdin; //required by scanf
}

//redirect stdout to UART
int uart_putchar(char c, FILE *stream) {
     200:	cf 93       	push	r28
     202:	c8 2f       	mov	r28, r24
	if (c == '\n') {
     204:	8a 30       	cpi	r24, 0x0A	; 10
     206:	19 f4       	brne	.+6      	; 0x20e <uart_putchar+0xe>
		uart_putchar('\r', stream);
     208:	8d e0       	ldi	r24, 0x0D	; 13
     20a:	0e 94 00 01 	call	0x200	; 0x200 <uart_putchar>
	}
	loop_until_bit_is_set(UCSR0A, UDRE0);
     20e:	e0 ec       	ldi	r30, 0xC0	; 192
     210:	f0 e0       	ldi	r31, 0x00	; 0
     212:	80 81       	ld	r24, Z
     214:	85 ff       	sbrs	r24, 5
     216:	fd cf       	rjmp	.-6      	; 0x212 <uart_putchar+0x12>
	UDR0 = c;
     218:	c0 93 c6 00 	sts	0x00C6, r28	; 0x8000c6 <__TEXT_REGION_LENGTH__+0x7e00c6>
	return 0;
}
     21c:	80 e0       	ldi	r24, 0x00	; 0
     21e:	90 e0       	ldi	r25, 0x00	; 0
     220:	cf 91       	pop	r28
     222:	08 95       	ret

00000224 <uart_getchar>:

//redirect stdin to UART
int uart_getchar(FILE *stream) {
	loop_until_bit_is_set(UCSR0A, RXC0); /* Wait until data exists. */	
     224:	e0 ec       	ldi	r30, 0xC0	; 192
     226:	f0 e0       	ldi	r31, 0x00	; 0
     228:	80 81       	ld	r24, Z
     22a:	88 23       	and	r24, r24
     22c:	ec f7       	brge	.-6      	; 0x228 <uart_getchar+0x4>
	return UDR0;
     22e:	80 91 c6 00 	lds	r24, 0x00C6	; 0x8000c6 <__TEXT_REGION_LENGTH__+0x7e00c6>
     232:	90 e0       	ldi	r25, 0x00	; 0
     234:	08 95       	ret

00000236 <ioinit>:
static FILE mystdin = FDEV_SETUP_STREAM(NULL, uart_getchar, _FDEV_SETUP_READ); //redirect uart_getchar() to stdio

void ioinit (void)
{
    //USART Baud rate: 9600, 8data, 1stop
    UBRR0H = MYUBRR >> 8;
     236:	10 92 c5 00 	sts	0x00C5, r1	; 0x8000c5 <__TEXT_REGION_LENGTH__+0x7e00c5>
    UBRR0L = MYUBRR;
     23a:	87 e6       	ldi	r24, 0x67	; 103
     23c:	80 93 c4 00 	sts	0x00C4, r24	; 0x8000c4 <__TEXT_REGION_LENGTH__+0x7e00c4>
    UCSR0B = (1<<RXEN0)|(1<<TXEN0); //enable rx/tx
     240:	e1 ec       	ldi	r30, 0xC1	; 193
     242:	f0 e0       	ldi	r31, 0x00	; 0
     244:	88 e1       	ldi	r24, 0x18	; 24
     246:	80 83       	st	Z, r24
	UCSR0B |= (1 << RXCIE0); // Enable the USART Recieve Complete interrupt (USART_RXC)
     248:	80 81       	ld	r24, Z
     24a:	80 68       	ori	r24, 0x80	; 128
     24c:	80 83       	st	Z, r24
    
    stdout = &mystdout; //required by printf
     24e:	e2 e8       	ldi	r30, 0x82	; 130
     250:	f1 e0       	ldi	r31, 0x01	; 1
     252:	8e e0       	ldi	r24, 0x0E	; 14
     254:	91 e0       	ldi	r25, 0x01	; 1
     256:	93 83       	std	Z+3, r25	; 0x03
     258:	82 83       	std	Z+2, r24	; 0x02
    stdin  = &mystdin; //required by scanf
     25a:	80 e0       	ldi	r24, 0x00	; 0
     25c:	91 e0       	ldi	r25, 0x01	; 1
     25e:	91 83       	std	Z+1, r25	; 0x01
     260:	80 83       	st	Z, r24
     262:	08 95       	ret

00000264 <__vector_16>:
	}
}

//Timer0 interrupt routine to poll for button presses app. every 16ms. 
//TODO: Remove hardcoded pin register
ISR(TIMER0_OVF_vect) {
     264:	1f 92       	push	r1
     266:	0f 92       	push	r0
     268:	0f b6       	in	r0, 0x3f	; 63
     26a:	0f 92       	push	r0
     26c:	11 24       	eor	r1, r1
     26e:	8f 93       	push	r24
	if (!(PINB & btn1) && !btn1Pressed) {
     270:	1f 99       	sbic	0x03, 7	; 3
     272:	07 c0       	rjmp	.+14     	; 0x282 <__vector_16+0x1e>
     274:	80 91 81 01 	lds	r24, 0x0181	; 0x800181 <btn1Pressed>
     278:	81 11       	cpse	r24, r1
     27a:	03 c0       	rjmp	.+6      	; 0x282 <__vector_16+0x1e>
		btn1Pressed = true;
     27c:	81 e0       	ldi	r24, 0x01	; 1
     27e:	80 93 81 01 	sts	0x0181, r24	; 0x800181 <btn1Pressed>
	}
}
     282:	8f 91       	pop	r24
     284:	0f 90       	pop	r0
     286:	0f be       	out	0x3f, r0	; 63
     288:	0f 90       	pop	r0
     28a:	1f 90       	pop	r1
     28c:	18 95       	reti

0000028e <__vector_18>:

//UART receive interrupt routine
ISR(USART0_RX_vect) {
     28e:	1f 92       	push	r1
     290:	0f 92       	push	r0
     292:	0f b6       	in	r0, 0x3f	; 63
     294:	0f 92       	push	r0
     296:	11 24       	eor	r1, r1
     298:	8f 93       	push	r24
	UartInput = true; //set the UART interrupt flag
     29a:	81 e0       	ldi	r24, 0x01	; 1
     29c:	80 93 80 01 	sts	0x0180, r24	; 0x800180 <__data_end>
}
     2a0:	8f 91       	pop	r24
     2a2:	0f 90       	pop	r0
     2a4:	0f be       	out	0x3f, r0	; 63
     2a6:	0f 90       	pop	r0
     2a8:	1f 90       	pop	r1
     2aa:	18 95       	reti

000002ac <setupTimer0>:

//Timer0 setup
void setupTimer0() {
	TCCR0B |= (1 << CS00) | (1 << CS01); //normal mode, /64 prescaler, 16ms overflow
     2ac:	85 b5       	in	r24, 0x25	; 37
     2ae:	83 60       	ori	r24, 0x03	; 3
     2b0:	85 bd       	out	0x25, r24	; 37
	TIMSK0 |= (1 << TOIE0); //timer0 overflow interrupt
     2b2:	ee e6       	ldi	r30, 0x6E	; 110
     2b4:	f0 e0       	ldi	r31, 0x00	; 0
     2b6:	80 81       	ld	r24, Z
     2b8:	81 60       	ori	r24, 0x01	; 1
     2ba:	80 83       	st	Z, r24
     2bc:	08 95       	ret

000002be <initPort>:
}

//initializes a ports bit
void initPort(char DataDirReg, char BitNo) {
	
	if (DataDirReg == DDRB) {
     2be:	94 b1       	in	r25, 0x04	; 4
     2c0:	98 13       	cpse	r25, r24
     2c2:	03 c0       	rjmp	.+6      	; 0x2ca <initPort+0xc>
		DDRB |= BitNo;
     2c4:	94 b1       	in	r25, 0x04	; 4
     2c6:	96 2b       	or	r25, r22
     2c8:	94 b9       	out	0x04, r25	; 4
	}
	if (DataDirReg == DDRC) {
     2ca:	97 b1       	in	r25, 0x07	; 7
     2cc:	89 13       	cpse	r24, r25
     2ce:	03 c0       	rjmp	.+6      	; 0x2d6 <initPort+0x18>
		DDRC |= BitNo;
     2d0:	97 b1       	in	r25, 0x07	; 7
     2d2:	96 2b       	or	r25, r22
     2d4:	97 b9       	out	0x07, r25	; 7
	}
	if (DataDirReg == DDRD) {
     2d6:	9a b1       	in	r25, 0x0a	; 10
     2d8:	89 13       	cpse	r24, r25
     2da:	03 c0       	rjmp	.+6      	; 0x2e2 <initPort+0x24>
		DDRD |= BitNo;
     2dc:	8a b1       	in	r24, 0x0a	; 10
     2de:	68 2b       	or	r22, r24
     2e0:	6a b9       	out	0x0a, r22	; 10
     2e2:	08 95       	ret

000002e4 <enablePullup>:
	}
}

//enable pull up on port input bit
void enablePullup(char DataReg, char BitNo) {
	if (DataReg == PORTB) {
     2e4:	95 b1       	in	r25, 0x05	; 5
     2e6:	98 13       	cpse	r25, r24
     2e8:	03 c0       	rjmp	.+6      	; 0x2f0 <enablePullup+0xc>
		PORTB |= BitNo;
     2ea:	95 b1       	in	r25, 0x05	; 5
     2ec:	96 2b       	or	r25, r22
     2ee:	95 b9       	out	0x05, r25	; 5
	}
	if (DataReg == PORTC) {
     2f0:	98 b1       	in	r25, 0x08	; 8
     2f2:	89 13       	cpse	r24, r25
     2f4:	03 c0       	rjmp	.+6      	; 0x2fc <enablePullup+0x18>
		PORTC |= BitNo;
     2f6:	98 b1       	in	r25, 0x08	; 8
     2f8:	96 2b       	or	r25, r22
     2fa:	98 b9       	out	0x08, r25	; 8
	}
	if (DataReg == PORTD) {
     2fc:	9b b1       	in	r25, 0x0b	; 11
     2fe:	89 13       	cpse	r24, r25
     300:	03 c0       	rjmp	.+6      	; 0x308 <enablePullup+0x24>
		PORTD |= BitNo;
     302:	8b b1       	in	r24, 0x0b	; 11
     304:	68 2b       	or	r22, r24
     306:	6b b9       	out	0x0b, r22	; 11
     308:	08 95       	ret

0000030a <readLed>:
}

//TODO: Remove hardcoded pin register ref
//This function reads the LED pin. 
bool readLed(char led) {
	if (!(PINB & led)){ //if led bit is 0 using AND mask
     30a:	93 b1       	in	r25, 0x03	; 3
     30c:	98 23       	and	r25, r24
     30e:	81 e0       	ldi	r24, 0x01	; 1
     310:	09 f4       	brne	.+2      	; 0x314 <readLed+0xa>
     312:	80 e0       	ldi	r24, 0x00	; 0
		return false;
	}
	else{
		return true;
	}
}
     314:	08 95       	ret

00000316 <ledOn>:

//TODO: Remove hardcoded port ref
//This function turns on the LED. 
void ledOn(char led) {
	PORTB |= led; //turn on led bit, leave rest with OR mask
     316:	95 b1       	in	r25, 0x05	; 5
     318:	89 2b       	or	r24, r25
     31a:	85 b9       	out	0x05, r24	; 5
     31c:	08 95       	ret

0000031e <ledOff>:
}

//TODO: Remove hardcoded port ref
//This function turns off the LED. 
void ledOff(char led) {
	PORTB &=~ led; //turn off led bit, leave rest with AND mask
     31e:	95 b1       	in	r25, 0x05	; 5
     320:	80 95       	com	r24
     322:	98 23       	and	r25, r24
     324:	95 b9       	out	0x05, r25	; 5
     326:	08 95       	ret

00000328 <startConversion>:
	DIDR0 = (1 << ADC0D); //turn off digital input buffer on pin PORTC0	
	startConversion();
}

char startConversion() {
	ADCSRA |= (1 << ADSC); //starts a conversion, cleared when ADC interrupt is fired
     328:	ea e7       	ldi	r30, 0x7A	; 122
     32a:	f0 e0       	ldi	r31, 0x00	; 0
     32c:	80 81       	ld	r24, Z
     32e:	80 64       	ori	r24, 0x40	; 64
     330:	80 83       	st	Z, r24
	return ADC;
     332:	80 91 78 00 	lds	r24, 0x0078	; 0x800078 <__TEXT_REGION_LENGTH__+0x7e0078>
     336:	90 91 79 00 	lds	r25, 0x0079	; 0x800079 <__TEXT_REGION_LENGTH__+0x7e0079>
}
     33a:	08 95       	ret

0000033c <setupADC>:
void ledOff(char led) {
	PORTB &=~ led; //turn off led bit, leave rest with AND mask
}

void setupADC(char adcbit) {
	ADMUX = (1 << REFS0) | (adcbit); //use 5V reference voltage, adcbit decides port
     33c:	80 64       	ori	r24, 0x40	; 64
     33e:	80 93 7c 00 	sts	0x007C, r24	; 0x80007c <__TEXT_REGION_LENGTH__+0x7e007c>
	ADCSRA = (1 << ADEN) | (1 << ADPS0) | (1 << ADPS1) | (1 << ADPS2); //enable ADC, ADC prescaler=128 (8000000/128=62.5KHz) (1 << ADIE)
     342:	87 e8       	ldi	r24, 0x87	; 135
     344:	80 93 7a 00 	sts	0x007A, r24	; 0x80007a <__TEXT_REGION_LENGTH__+0x7e007a>
	DIDR0 = (1 << ADC0D); //turn off digital input buffer on pin PORTC0	
     348:	81 e0       	ldi	r24, 0x01	; 1
     34a:	80 93 7e 00 	sts	0x007E, r24	; 0x80007e <__TEXT_REGION_LENGTH__+0x7e007e>
	startConversion();
     34e:	0e 94 94 01 	call	0x328	; 0x328 <startConversion>
     352:	08 95       	ret

00000354 <promptReady>:
	ADCSRA |= (1 << ADSC); //starts a conversion, cleared when ADC interrupt is fired
	return ADC;
}

void promptReady() {
	printf("> ");
     354:	8c e1       	ldi	r24, 0x1C	; 28
     356:	91 e0       	ldi	r25, 0x01	; 1
     358:	9f 93       	push	r25
     35a:	8f 93       	push	r24
     35c:	0e 94 60 07 	call	0xec0	; 0xec0 <printf>
     360:	0f 90       	pop	r0
     362:	0f 90       	pop	r0
     364:	08 95       	ret

00000366 <main>:
void setupADC(char adcbit);
char startConversion();
void promptReady();

int main(void)
{
     366:	cf 93       	push	r28
     368:	df 93       	push	r29
     36a:	cd b7       	in	r28, 0x3d	; 61
     36c:	de b7       	in	r29, 0x3e	; 62
     36e:	c0 54       	subi	r28, 0x40	; 64
     370:	d1 09       	sbc	r29, r1
     372:	0f b6       	in	r0, 0x3f	; 63
     374:	f8 94       	cli
     376:	de bf       	out	0x3e, r29	; 62
     378:	0f be       	out	0x3f, r0	; 63
     37a:	cd bf       	out	0x3d, r28	; 61
	//Initialization
	ioinit(); //Setup UART and STDIO
     37c:	0e 94 1b 01 	call	0x236	; 0x236 <ioinit>
	setupADC(adcinput);
     380:	81 e0       	ldi	r24, 0x01	; 1
     382:	0e 94 9e 01 	call	0x33c	; 0x33c <setupADC>
	initPort(DDRB, led1);
     386:	84 b1       	in	r24, 0x04	; 4
     388:	60 e2       	ldi	r22, 0x20	; 32
     38a:	0e 94 5f 01 	call	0x2be	; 0x2be <initPort>
	enablePullup(PORTB, btn1);
     38e:	85 b1       	in	r24, 0x05	; 5
     390:	60 e8       	ldi	r22, 0x80	; 128
     392:	0e 94 72 01 	call	0x2e4	; 0x2e4 <enablePullup>
	char userinput[64]; //array to hold the userinput
	setupTimer0(); //used for button polling
     396:	0e 94 56 01 	call	0x2ac	; 0x2ac <setupTimer0>
	sei(); //enable interrupts	
     39a:	78 94       	sei
	
	promptReady();
     39c:	0e 94 aa 01 	call	0x354	; 0x354 <promptReady>
	
	while (1)
	{				
		if (UartInput)
		{			
			scanf("%s", userinput); //read userinput
     3a0:	ce 01       	movw	r24, r28
     3a2:	01 96       	adiw	r24, 0x01	; 1
     3a4:	7c 01       	movw	r14, r24
     3a6:	0f e1       	ldi	r16, 0x1F	; 31
     3a8:	11 e0       	ldi	r17, 0x01	; 1
				btn1Pressed = false;
				userinput[0] = 0;
				promptReady();
			}			
			else if(strcmp(userinput, "getadcval")==0) {
				printf("%d\n", startConversion());				
     3aa:	0f 2e       	mov	r0, r31
     3ac:	fe e2       	ldi	r31, 0x2E	; 46
     3ae:	af 2e       	mov	r10, r31
     3b0:	f1 e0       	ldi	r31, 0x01	; 1
     3b2:	bf 2e       	mov	r11, r31
     3b4:	f0 2d       	mov	r31, r0
				printf("led1=%d\n", readLed(led1));				
				userinput[0] = 0;
				promptReady();
			}			
			else if(strcmp(userinput, "getbtn1")==0) {
				printf("btn1=%d\n", btn1Pressed);				
     3b6:	0f 2e       	mov	r0, r31
     3b8:	f2 e4       	ldi	r31, 0x42	; 66
     3ba:	8f 2e       	mov	r8, r31
     3bc:	f1 e0       	ldi	r31, 0x01	; 1
     3be:	9f 2e       	mov	r9, r31
     3c0:	f0 2d       	mov	r31, r0
				userinput[0] = 0;
				promptReady();
			}
			else if(strcmp(userinput, "led1off")==0) {
				ledOff(led1);
				printf("led1=%d\n", readLed(led1));				
     3c2:	0f 2e       	mov	r0, r31
     3c4:	f9 e2       	ldi	r31, 0x29	; 41
     3c6:	cf 2e       	mov	r12, r31
     3c8:	f1 e0       	ldi	r31, 0x01	; 1
     3ca:	df 2e       	mov	r13, r31
     3cc:	f0 2d       	mov	r31, r0
	
	while (1)
	{				
		if (UartInput)
		{			
			scanf("%s", userinput); //read userinput
     3ce:	68 2e       	mov	r6, r24
     3d0:	7f 2c       	mov	r7, r15
	
	promptReady();
	
	while (1)
	{				
		if (UartInput)
     3d2:	80 91 80 01 	lds	r24, 0x0180	; 0x800180 <__data_end>
     3d6:	88 23       	and	r24, r24
     3d8:	09 f4       	brne	.+2      	; 0x3dc <main+0x76>
     3da:	7c c0       	rjmp	.+248    	; 0x4d4 <__LOCK_REGION_LENGTH__+0xd4>
		{			
			scanf("%s", userinput); //read userinput
     3dc:	ff 92       	push	r15
     3de:	ef 92       	push	r14
     3e0:	1f 93       	push	r17
     3e2:	0f 93       	push	r16
     3e4:	0e 94 a6 07 	call	0xf4c	; 0xf4c <scanf>
			
			if(strcmp(userinput, "led1on")==0) {
     3e8:	62 e2       	ldi	r22, 0x22	; 34
     3ea:	71 e0       	ldi	r23, 0x01	; 1
     3ec:	86 2d       	mov	r24, r6
     3ee:	97 2d       	mov	r25, r7
     3f0:	0e 94 10 07 	call	0xe20	; 0xe20 <strcmp>
     3f4:	0f 90       	pop	r0
     3f6:	0f 90       	pop	r0
     3f8:	0f 90       	pop	r0
     3fa:	0f 90       	pop	r0
     3fc:	89 2b       	or	r24, r25
     3fe:	a1 f4       	brne	.+40     	; 0x428 <__LOCK_REGION_LENGTH__+0x28>
				ledOn(led1);
     400:	80 e2       	ldi	r24, 0x20	; 32
     402:	0e 94 8b 01 	call	0x316	; 0x316 <ledOn>
				printf("led1=%d\n", readLed(led1));				
     406:	80 e2       	ldi	r24, 0x20	; 32
     408:	0e 94 85 01 	call	0x30a	; 0x30a <readLed>
     40c:	1f 92       	push	r1
     40e:	8f 93       	push	r24
     410:	df 92       	push	r13
     412:	cf 92       	push	r12
     414:	0e 94 60 07 	call	0xec0	; 0xec0 <printf>
				userinput[0] = 0;
     418:	19 82       	std	Y+1, r1	; 0x01
				promptReady();
     41a:	0e 94 aa 01 	call	0x354	; 0x354 <promptReady>
     41e:	0f 90       	pop	r0
     420:	0f 90       	pop	r0
     422:	0f 90       	pop	r0
     424:	0f 90       	pop	r0
     426:	54 c0       	rjmp	.+168    	; 0x4d0 <__LOCK_REGION_LENGTH__+0xd0>
			}
			else if(strcmp(userinput, "led1off")==0) {
     428:	62 e3       	ldi	r22, 0x32	; 50
     42a:	71 e0       	ldi	r23, 0x01	; 1
     42c:	86 2d       	mov	r24, r6
     42e:	97 2d       	mov	r25, r7
     430:	0e 94 10 07 	call	0xe20	; 0xe20 <strcmp>
     434:	89 2b       	or	r24, r25
     436:	a1 f4       	brne	.+40     	; 0x460 <__LOCK_REGION_LENGTH__+0x60>
				ledOff(led1);
     438:	80 e2       	ldi	r24, 0x20	; 32
     43a:	0e 94 8f 01 	call	0x31e	; 0x31e <ledOff>
				printf("led1=%d\n", readLed(led1));				
     43e:	80 e2       	ldi	r24, 0x20	; 32
     440:	0e 94 85 01 	call	0x30a	; 0x30a <readLed>
     444:	1f 92       	push	r1
     446:	8f 93       	push	r24
     448:	df 92       	push	r13
     44a:	cf 92       	push	r12
     44c:	0e 94 60 07 	call	0xec0	; 0xec0 <printf>
				userinput[0] = 0;
     450:	19 82       	std	Y+1, r1	; 0x01
				promptReady();
     452:	0e 94 aa 01 	call	0x354	; 0x354 <promptReady>
     456:	0f 90       	pop	r0
     458:	0f 90       	pop	r0
     45a:	0f 90       	pop	r0
     45c:	0f 90       	pop	r0
     45e:	38 c0       	rjmp	.+112    	; 0x4d0 <__LOCK_REGION_LENGTH__+0xd0>
			}			
			else if(strcmp(userinput, "getbtn1")==0) {
     460:	6a e3       	ldi	r22, 0x3A	; 58
     462:	71 e0       	ldi	r23, 0x01	; 1
     464:	86 2d       	mov	r24, r6
     466:	97 2d       	mov	r25, r7
     468:	0e 94 10 07 	call	0xe20	; 0xe20 <strcmp>
     46c:	89 2b       	or	r24, r25
     46e:	91 f4       	brne	.+36     	; 0x494 <__LOCK_REGION_LENGTH__+0x94>
				printf("btn1=%d\n", btn1Pressed);				
     470:	80 91 81 01 	lds	r24, 0x0181	; 0x800181 <btn1Pressed>
     474:	1f 92       	push	r1
     476:	8f 93       	push	r24
     478:	9f 92       	push	r9
     47a:	8f 92       	push	r8
     47c:	0e 94 60 07 	call	0xec0	; 0xec0 <printf>
				btn1Pressed = false;
     480:	10 92 81 01 	sts	0x0181, r1	; 0x800181 <btn1Pressed>
				userinput[0] = 0;
     484:	19 82       	std	Y+1, r1	; 0x01
				promptReady();
     486:	0e 94 aa 01 	call	0x354	; 0x354 <promptReady>
     48a:	0f 90       	pop	r0
     48c:	0f 90       	pop	r0
     48e:	0f 90       	pop	r0
     490:	0f 90       	pop	r0
     492:	1e c0       	rjmp	.+60     	; 0x4d0 <__LOCK_REGION_LENGTH__+0xd0>
			}			
			else if(strcmp(userinput, "getadcval")==0) {
     494:	6b e4       	ldi	r22, 0x4B	; 75
     496:	71 e0       	ldi	r23, 0x01	; 1
     498:	86 2d       	mov	r24, r6
     49a:	97 2d       	mov	r25, r7
     49c:	0e 94 10 07 	call	0xe20	; 0xe20 <strcmp>
     4a0:	89 2b       	or	r24, r25
     4a2:	81 f4       	brne	.+32     	; 0x4c4 <__LOCK_REGION_LENGTH__+0xc4>
				printf("%d\n", startConversion());				
     4a4:	0e 94 94 01 	call	0x328	; 0x328 <startConversion>
     4a8:	1f 92       	push	r1
     4aa:	8f 93       	push	r24
     4ac:	bf 92       	push	r11
     4ae:	af 92       	push	r10
     4b0:	0e 94 60 07 	call	0xec0	; 0xec0 <printf>
				userinput[0] = 0;
     4b4:	19 82       	std	Y+1, r1	; 0x01
				promptReady();
     4b6:	0e 94 aa 01 	call	0x354	; 0x354 <promptReady>
     4ba:	0f 90       	pop	r0
     4bc:	0f 90       	pop	r0
     4be:	0f 90       	pop	r0
     4c0:	0f 90       	pop	r0
     4c2:	06 c0       	rjmp	.+12     	; 0x4d0 <__LOCK_REGION_LENGTH__+0xd0>
			}
			else {
				printf("I'm sorry Dave, I'm afraid I can't do that\n");
     4c4:	85 e5       	ldi	r24, 0x55	; 85
     4c6:	91 e0       	ldi	r25, 0x01	; 1
     4c8:	0e 94 76 07 	call	0xeec	; 0xeec <puts>
				promptReady();
     4cc:	0e 94 aa 01 	call	0x354	; 0x354 <promptReady>
			}
			UartInput = false;			
     4d0:	10 92 80 01 	sts	0x0180, r1	; 0x800180 <__data_end>
		}
			
		//crude button debounce
		if (btn1Pressed) {
     4d4:	80 91 81 01 	lds	r24, 0x0181	; 0x800181 <btn1Pressed>
     4d8:	88 23       	and	r24, r24
     4da:	09 f4       	brne	.+2      	; 0x4de <__LOCK_REGION_LENGTH__+0xde>
     4dc:	7a cf       	rjmp	.-268    	; 0x3d2 <main+0x6c>
	#else
		//round up by default
		__ticks_dc = (uint32_t)(ceil(fabs(__tmp)));
	#endif

	__builtin_avr_delay_cycles(__ticks_dc);
     4de:	9f ef       	ldi	r25, 0xFF	; 255
     4e0:	21 ee       	ldi	r18, 0xE1	; 225
     4e2:	84 e0       	ldi	r24, 0x04	; 4
     4e4:	91 50       	subi	r25, 0x01	; 1
     4e6:	20 40       	sbci	r18, 0x00	; 0
     4e8:	80 40       	sbci	r24, 0x00	; 0
     4ea:	e1 f7       	brne	.-8      	; 0x4e4 <__LOCK_REGION_LENGTH__+0xe4>
     4ec:	00 c0       	rjmp	.+0      	; 0x4ee <__LOCK_REGION_LENGTH__+0xee>
     4ee:	00 00       	nop
     4f0:	70 cf       	rjmp	.-288    	; 0x3d2 <main+0x6c>

000004f2 <vfprintf>:
     4f2:	a0 e1       	ldi	r26, 0x10	; 16
     4f4:	b0 e0       	ldi	r27, 0x00	; 0
     4f6:	ef e7       	ldi	r30, 0x7F	; 127
     4f8:	f2 e0       	ldi	r31, 0x02	; 2
     4fa:	0c 94 f6 05 	jmp	0xbec	; 0xbec <__prologue_saves__>
     4fe:	7c 01       	movw	r14, r24
     500:	1b 01       	movw	r2, r22
     502:	6a 01       	movw	r12, r20
     504:	fc 01       	movw	r30, r24
     506:	17 82       	std	Z+7, r1	; 0x07
     508:	16 82       	std	Z+6, r1	; 0x06
     50a:	83 81       	ldd	r24, Z+3	; 0x03
     50c:	81 ff       	sbrs	r24, 1
     50e:	44 c3       	rjmp	.+1672   	; 0xb98 <__stack+0x299>
     510:	9e 01       	movw	r18, r28
     512:	2f 5f       	subi	r18, 0xFF	; 255
     514:	3f 4f       	sbci	r19, 0xFF	; 255
     516:	39 01       	movw	r6, r18
     518:	f7 01       	movw	r30, r14
     51a:	93 81       	ldd	r25, Z+3	; 0x03
     51c:	f1 01       	movw	r30, r2
     51e:	93 fd       	sbrc	r25, 3
     520:	85 91       	lpm	r24, Z+
     522:	93 ff       	sbrs	r25, 3
     524:	81 91       	ld	r24, Z+
     526:	1f 01       	movw	r2, r30
     528:	88 23       	and	r24, r24
     52a:	09 f4       	brne	.+2      	; 0x52e <vfprintf+0x3c>
     52c:	31 c3       	rjmp	.+1634   	; 0xb90 <__stack+0x291>
     52e:	85 32       	cpi	r24, 0x25	; 37
     530:	39 f4       	brne	.+14     	; 0x540 <vfprintf+0x4e>
     532:	93 fd       	sbrc	r25, 3
     534:	85 91       	lpm	r24, Z+
     536:	93 ff       	sbrs	r25, 3
     538:	81 91       	ld	r24, Z+
     53a:	1f 01       	movw	r2, r30
     53c:	85 32       	cpi	r24, 0x25	; 37
     53e:	39 f4       	brne	.+14     	; 0x54e <vfprintf+0x5c>
     540:	b7 01       	movw	r22, r14
     542:	90 e0       	ldi	r25, 0x00	; 0
     544:	0e 94 24 07 	call	0xe48	; 0xe48 <fputc>
     548:	56 01       	movw	r10, r12
     54a:	65 01       	movw	r12, r10
     54c:	e5 cf       	rjmp	.-54     	; 0x518 <vfprintf+0x26>
     54e:	10 e0       	ldi	r17, 0x00	; 0
     550:	51 2c       	mov	r5, r1
     552:	91 2c       	mov	r9, r1
     554:	ff e1       	ldi	r31, 0x1F	; 31
     556:	f9 15       	cp	r31, r9
     558:	d8 f0       	brcs	.+54     	; 0x590 <vfprintf+0x9e>
     55a:	8b 32       	cpi	r24, 0x2B	; 43
     55c:	79 f0       	breq	.+30     	; 0x57c <vfprintf+0x8a>
     55e:	38 f4       	brcc	.+14     	; 0x56e <vfprintf+0x7c>
     560:	80 32       	cpi	r24, 0x20	; 32
     562:	79 f0       	breq	.+30     	; 0x582 <vfprintf+0x90>
     564:	83 32       	cpi	r24, 0x23	; 35
     566:	a1 f4       	brne	.+40     	; 0x590 <vfprintf+0x9e>
     568:	f9 2d       	mov	r31, r9
     56a:	f0 61       	ori	r31, 0x10	; 16
     56c:	2e c0       	rjmp	.+92     	; 0x5ca <vfprintf+0xd8>
     56e:	8d 32       	cpi	r24, 0x2D	; 45
     570:	61 f0       	breq	.+24     	; 0x58a <vfprintf+0x98>
     572:	80 33       	cpi	r24, 0x30	; 48
     574:	69 f4       	brne	.+26     	; 0x590 <vfprintf+0x9e>
     576:	29 2d       	mov	r18, r9
     578:	21 60       	ori	r18, 0x01	; 1
     57a:	2d c0       	rjmp	.+90     	; 0x5d6 <vfprintf+0xe4>
     57c:	39 2d       	mov	r19, r9
     57e:	32 60       	ori	r19, 0x02	; 2
     580:	93 2e       	mov	r9, r19
     582:	89 2d       	mov	r24, r9
     584:	84 60       	ori	r24, 0x04	; 4
     586:	98 2e       	mov	r9, r24
     588:	2a c0       	rjmp	.+84     	; 0x5de <vfprintf+0xec>
     58a:	e9 2d       	mov	r30, r9
     58c:	e8 60       	ori	r30, 0x08	; 8
     58e:	15 c0       	rjmp	.+42     	; 0x5ba <vfprintf+0xc8>
     590:	97 fc       	sbrc	r9, 7
     592:	2d c0       	rjmp	.+90     	; 0x5ee <vfprintf+0xfc>
     594:	20 ed       	ldi	r18, 0xD0	; 208
     596:	28 0f       	add	r18, r24
     598:	2a 30       	cpi	r18, 0x0A	; 10
     59a:	88 f4       	brcc	.+34     	; 0x5be <vfprintf+0xcc>
     59c:	96 fe       	sbrs	r9, 6
     59e:	06 c0       	rjmp	.+12     	; 0x5ac <vfprintf+0xba>
     5a0:	3a e0       	ldi	r19, 0x0A	; 10
     5a2:	13 9f       	mul	r17, r19
     5a4:	20 0d       	add	r18, r0
     5a6:	11 24       	eor	r1, r1
     5a8:	12 2f       	mov	r17, r18
     5aa:	19 c0       	rjmp	.+50     	; 0x5de <vfprintf+0xec>
     5ac:	8a e0       	ldi	r24, 0x0A	; 10
     5ae:	58 9e       	mul	r5, r24
     5b0:	20 0d       	add	r18, r0
     5b2:	11 24       	eor	r1, r1
     5b4:	52 2e       	mov	r5, r18
     5b6:	e9 2d       	mov	r30, r9
     5b8:	e0 62       	ori	r30, 0x20	; 32
     5ba:	9e 2e       	mov	r9, r30
     5bc:	10 c0       	rjmp	.+32     	; 0x5de <vfprintf+0xec>
     5be:	8e 32       	cpi	r24, 0x2E	; 46
     5c0:	31 f4       	brne	.+12     	; 0x5ce <vfprintf+0xdc>
     5c2:	96 fc       	sbrc	r9, 6
     5c4:	e5 c2       	rjmp	.+1482   	; 0xb90 <__stack+0x291>
     5c6:	f9 2d       	mov	r31, r9
     5c8:	f0 64       	ori	r31, 0x40	; 64
     5ca:	9f 2e       	mov	r9, r31
     5cc:	08 c0       	rjmp	.+16     	; 0x5de <vfprintf+0xec>
     5ce:	8c 36       	cpi	r24, 0x6C	; 108
     5d0:	21 f4       	brne	.+8      	; 0x5da <vfprintf+0xe8>
     5d2:	29 2d       	mov	r18, r9
     5d4:	20 68       	ori	r18, 0x80	; 128
     5d6:	92 2e       	mov	r9, r18
     5d8:	02 c0       	rjmp	.+4      	; 0x5de <vfprintf+0xec>
     5da:	88 36       	cpi	r24, 0x68	; 104
     5dc:	41 f4       	brne	.+16     	; 0x5ee <vfprintf+0xfc>
     5de:	f1 01       	movw	r30, r2
     5e0:	93 fd       	sbrc	r25, 3
     5e2:	85 91       	lpm	r24, Z+
     5e4:	93 ff       	sbrs	r25, 3
     5e6:	81 91       	ld	r24, Z+
     5e8:	1f 01       	movw	r2, r30
     5ea:	81 11       	cpse	r24, r1
     5ec:	b3 cf       	rjmp	.-154    	; 0x554 <vfprintf+0x62>
     5ee:	9b eb       	ldi	r25, 0xBB	; 187
     5f0:	98 0f       	add	r25, r24
     5f2:	93 30       	cpi	r25, 0x03	; 3
     5f4:	20 f4       	brcc	.+8      	; 0x5fe <vfprintf+0x10c>
     5f6:	99 2d       	mov	r25, r9
     5f8:	90 61       	ori	r25, 0x10	; 16
     5fa:	80 5e       	subi	r24, 0xE0	; 224
     5fc:	07 c0       	rjmp	.+14     	; 0x60c <vfprintf+0x11a>
     5fe:	9b e9       	ldi	r25, 0x9B	; 155
     600:	98 0f       	add	r25, r24
     602:	93 30       	cpi	r25, 0x03	; 3
     604:	08 f0       	brcs	.+2      	; 0x608 <vfprintf+0x116>
     606:	66 c1       	rjmp	.+716    	; 0x8d4 <vfprintf+0x3e2>
     608:	99 2d       	mov	r25, r9
     60a:	9f 7e       	andi	r25, 0xEF	; 239
     60c:	96 ff       	sbrs	r25, 6
     60e:	16 e0       	ldi	r17, 0x06	; 6
     610:	9f 73       	andi	r25, 0x3F	; 63
     612:	99 2e       	mov	r9, r25
     614:	85 36       	cpi	r24, 0x65	; 101
     616:	19 f4       	brne	.+6      	; 0x61e <vfprintf+0x12c>
     618:	90 64       	ori	r25, 0x40	; 64
     61a:	99 2e       	mov	r9, r25
     61c:	08 c0       	rjmp	.+16     	; 0x62e <vfprintf+0x13c>
     61e:	86 36       	cpi	r24, 0x66	; 102
     620:	21 f4       	brne	.+8      	; 0x62a <vfprintf+0x138>
     622:	39 2f       	mov	r19, r25
     624:	30 68       	ori	r19, 0x80	; 128
     626:	93 2e       	mov	r9, r19
     628:	02 c0       	rjmp	.+4      	; 0x62e <vfprintf+0x13c>
     62a:	11 11       	cpse	r17, r1
     62c:	11 50       	subi	r17, 0x01	; 1
     62e:	97 fe       	sbrs	r9, 7
     630:	07 c0       	rjmp	.+14     	; 0x640 <vfprintf+0x14e>
     632:	1c 33       	cpi	r17, 0x3C	; 60
     634:	50 f4       	brcc	.+20     	; 0x64a <vfprintf+0x158>
     636:	44 24       	eor	r4, r4
     638:	43 94       	inc	r4
     63a:	41 0e       	add	r4, r17
     63c:	27 e0       	ldi	r18, 0x07	; 7
     63e:	0b c0       	rjmp	.+22     	; 0x656 <vfprintf+0x164>
     640:	18 30       	cpi	r17, 0x08	; 8
     642:	38 f0       	brcs	.+14     	; 0x652 <vfprintf+0x160>
     644:	27 e0       	ldi	r18, 0x07	; 7
     646:	17 e0       	ldi	r17, 0x07	; 7
     648:	05 c0       	rjmp	.+10     	; 0x654 <vfprintf+0x162>
     64a:	27 e0       	ldi	r18, 0x07	; 7
     64c:	9c e3       	ldi	r25, 0x3C	; 60
     64e:	49 2e       	mov	r4, r25
     650:	02 c0       	rjmp	.+4      	; 0x656 <vfprintf+0x164>
     652:	21 2f       	mov	r18, r17
     654:	41 2c       	mov	r4, r1
     656:	56 01       	movw	r10, r12
     658:	84 e0       	ldi	r24, 0x04	; 4
     65a:	a8 0e       	add	r10, r24
     65c:	b1 1c       	adc	r11, r1
     65e:	f6 01       	movw	r30, r12
     660:	60 81       	ld	r22, Z
     662:	71 81       	ldd	r23, Z+1	; 0x01
     664:	82 81       	ldd	r24, Z+2	; 0x02
     666:	93 81       	ldd	r25, Z+3	; 0x03
     668:	04 2d       	mov	r16, r4
     66a:	a3 01       	movw	r20, r6
     66c:	0e 94 2d 06 	call	0xc5a	; 0xc5a <__ftoa_engine>
     670:	6c 01       	movw	r12, r24
     672:	f9 81       	ldd	r31, Y+1	; 0x01
     674:	fc 87       	std	Y+12, r31	; 0x0c
     676:	f0 ff       	sbrs	r31, 0
     678:	02 c0       	rjmp	.+4      	; 0x67e <vfprintf+0x18c>
     67a:	f3 ff       	sbrs	r31, 3
     67c:	06 c0       	rjmp	.+12     	; 0x68a <vfprintf+0x198>
     67e:	91 fc       	sbrc	r9, 1
     680:	06 c0       	rjmp	.+12     	; 0x68e <vfprintf+0x19c>
     682:	92 fe       	sbrs	r9, 2
     684:	06 c0       	rjmp	.+12     	; 0x692 <vfprintf+0x1a0>
     686:	00 e2       	ldi	r16, 0x20	; 32
     688:	05 c0       	rjmp	.+10     	; 0x694 <vfprintf+0x1a2>
     68a:	0d e2       	ldi	r16, 0x2D	; 45
     68c:	03 c0       	rjmp	.+6      	; 0x694 <vfprintf+0x1a2>
     68e:	0b e2       	ldi	r16, 0x2B	; 43
     690:	01 c0       	rjmp	.+2      	; 0x694 <vfprintf+0x1a2>
     692:	00 e0       	ldi	r16, 0x00	; 0
     694:	8c 85       	ldd	r24, Y+12	; 0x0c
     696:	8c 70       	andi	r24, 0x0C	; 12
     698:	19 f0       	breq	.+6      	; 0x6a0 <vfprintf+0x1ae>
     69a:	01 11       	cpse	r16, r1
     69c:	5a c2       	rjmp	.+1204   	; 0xb52 <__stack+0x253>
     69e:	9b c2       	rjmp	.+1334   	; 0xbd6 <__stack+0x2d7>
     6a0:	97 fe       	sbrs	r9, 7
     6a2:	10 c0       	rjmp	.+32     	; 0x6c4 <vfprintf+0x1d2>
     6a4:	4c 0c       	add	r4, r12
     6a6:	fc 85       	ldd	r31, Y+12	; 0x0c
     6a8:	f4 ff       	sbrs	r31, 4
     6aa:	04 c0       	rjmp	.+8      	; 0x6b4 <vfprintf+0x1c2>
     6ac:	8a 81       	ldd	r24, Y+2	; 0x02
     6ae:	81 33       	cpi	r24, 0x31	; 49
     6b0:	09 f4       	brne	.+2      	; 0x6b4 <vfprintf+0x1c2>
     6b2:	4a 94       	dec	r4
     6b4:	14 14       	cp	r1, r4
     6b6:	74 f5       	brge	.+92     	; 0x714 <vfprintf+0x222>
     6b8:	28 e0       	ldi	r18, 0x08	; 8
     6ba:	24 15       	cp	r18, r4
     6bc:	78 f5       	brcc	.+94     	; 0x71c <vfprintf+0x22a>
     6be:	88 e0       	ldi	r24, 0x08	; 8
     6c0:	48 2e       	mov	r4, r24
     6c2:	2c c0       	rjmp	.+88     	; 0x71c <vfprintf+0x22a>
     6c4:	96 fc       	sbrc	r9, 6
     6c6:	2a c0       	rjmp	.+84     	; 0x71c <vfprintf+0x22a>
     6c8:	81 2f       	mov	r24, r17
     6ca:	90 e0       	ldi	r25, 0x00	; 0
     6cc:	8c 15       	cp	r24, r12
     6ce:	9d 05       	cpc	r25, r13
     6d0:	9c f0       	brlt	.+38     	; 0x6f8 <vfprintf+0x206>
     6d2:	3c ef       	ldi	r19, 0xFC	; 252
     6d4:	c3 16       	cp	r12, r19
     6d6:	3f ef       	ldi	r19, 0xFF	; 255
     6d8:	d3 06       	cpc	r13, r19
     6da:	74 f0       	brlt	.+28     	; 0x6f8 <vfprintf+0x206>
     6dc:	89 2d       	mov	r24, r9
     6de:	80 68       	ori	r24, 0x80	; 128
     6e0:	98 2e       	mov	r9, r24
     6e2:	0a c0       	rjmp	.+20     	; 0x6f8 <vfprintf+0x206>
     6e4:	e2 e0       	ldi	r30, 0x02	; 2
     6e6:	f0 e0       	ldi	r31, 0x00	; 0
     6e8:	ec 0f       	add	r30, r28
     6ea:	fd 1f       	adc	r31, r29
     6ec:	e1 0f       	add	r30, r17
     6ee:	f1 1d       	adc	r31, r1
     6f0:	80 81       	ld	r24, Z
     6f2:	80 33       	cpi	r24, 0x30	; 48
     6f4:	19 f4       	brne	.+6      	; 0x6fc <vfprintf+0x20a>
     6f6:	11 50       	subi	r17, 0x01	; 1
     6f8:	11 11       	cpse	r17, r1
     6fa:	f4 cf       	rjmp	.-24     	; 0x6e4 <vfprintf+0x1f2>
     6fc:	97 fe       	sbrs	r9, 7
     6fe:	0e c0       	rjmp	.+28     	; 0x71c <vfprintf+0x22a>
     700:	44 24       	eor	r4, r4
     702:	43 94       	inc	r4
     704:	41 0e       	add	r4, r17
     706:	81 2f       	mov	r24, r17
     708:	90 e0       	ldi	r25, 0x00	; 0
     70a:	c8 16       	cp	r12, r24
     70c:	d9 06       	cpc	r13, r25
     70e:	2c f4       	brge	.+10     	; 0x71a <vfprintf+0x228>
     710:	1c 19       	sub	r17, r12
     712:	04 c0       	rjmp	.+8      	; 0x71c <vfprintf+0x22a>
     714:	44 24       	eor	r4, r4
     716:	43 94       	inc	r4
     718:	01 c0       	rjmp	.+2      	; 0x71c <vfprintf+0x22a>
     71a:	10 e0       	ldi	r17, 0x00	; 0
     71c:	97 fe       	sbrs	r9, 7
     71e:	06 c0       	rjmp	.+12     	; 0x72c <vfprintf+0x23a>
     720:	1c 14       	cp	r1, r12
     722:	1d 04       	cpc	r1, r13
     724:	34 f4       	brge	.+12     	; 0x732 <vfprintf+0x240>
     726:	c6 01       	movw	r24, r12
     728:	01 96       	adiw	r24, 0x01	; 1
     72a:	05 c0       	rjmp	.+10     	; 0x736 <vfprintf+0x244>
     72c:	85 e0       	ldi	r24, 0x05	; 5
     72e:	90 e0       	ldi	r25, 0x00	; 0
     730:	02 c0       	rjmp	.+4      	; 0x736 <vfprintf+0x244>
     732:	81 e0       	ldi	r24, 0x01	; 1
     734:	90 e0       	ldi	r25, 0x00	; 0
     736:	01 11       	cpse	r16, r1
     738:	01 96       	adiw	r24, 0x01	; 1
     73a:	11 23       	and	r17, r17
     73c:	31 f0       	breq	.+12     	; 0x74a <vfprintf+0x258>
     73e:	21 2f       	mov	r18, r17
     740:	30 e0       	ldi	r19, 0x00	; 0
     742:	2f 5f       	subi	r18, 0xFF	; 255
     744:	3f 4f       	sbci	r19, 0xFF	; 255
     746:	82 0f       	add	r24, r18
     748:	93 1f       	adc	r25, r19
     74a:	25 2d       	mov	r18, r5
     74c:	30 e0       	ldi	r19, 0x00	; 0
     74e:	82 17       	cp	r24, r18
     750:	93 07       	cpc	r25, r19
     752:	14 f4       	brge	.+4      	; 0x758 <vfprintf+0x266>
     754:	58 1a       	sub	r5, r24
     756:	01 c0       	rjmp	.+2      	; 0x75a <vfprintf+0x268>
     758:	51 2c       	mov	r5, r1
     75a:	89 2d       	mov	r24, r9
     75c:	89 70       	andi	r24, 0x09	; 9
     75e:	49 f4       	brne	.+18     	; 0x772 <vfprintf+0x280>
     760:	55 20       	and	r5, r5
     762:	39 f0       	breq	.+14     	; 0x772 <vfprintf+0x280>
     764:	b7 01       	movw	r22, r14
     766:	80 e2       	ldi	r24, 0x20	; 32
     768:	90 e0       	ldi	r25, 0x00	; 0
     76a:	0e 94 24 07 	call	0xe48	; 0xe48 <fputc>
     76e:	5a 94       	dec	r5
     770:	f7 cf       	rjmp	.-18     	; 0x760 <vfprintf+0x26e>
     772:	00 23       	and	r16, r16
     774:	29 f0       	breq	.+10     	; 0x780 <vfprintf+0x28e>
     776:	b7 01       	movw	r22, r14
     778:	80 2f       	mov	r24, r16
     77a:	90 e0       	ldi	r25, 0x00	; 0
     77c:	0e 94 24 07 	call	0xe48	; 0xe48 <fputc>
     780:	93 fc       	sbrc	r9, 3
     782:	09 c0       	rjmp	.+18     	; 0x796 <vfprintf+0x2a4>
     784:	55 20       	and	r5, r5
     786:	39 f0       	breq	.+14     	; 0x796 <vfprintf+0x2a4>
     788:	b7 01       	movw	r22, r14
     78a:	80 e3       	ldi	r24, 0x30	; 48
     78c:	90 e0       	ldi	r25, 0x00	; 0
     78e:	0e 94 24 07 	call	0xe48	; 0xe48 <fputc>
     792:	5a 94       	dec	r5
     794:	f7 cf       	rjmp	.-18     	; 0x784 <vfprintf+0x292>
     796:	97 fe       	sbrs	r9, 7
     798:	4c c0       	rjmp	.+152    	; 0x832 <vfprintf+0x340>
     79a:	46 01       	movw	r8, r12
     79c:	d7 fe       	sbrs	r13, 7
     79e:	02 c0       	rjmp	.+4      	; 0x7a4 <vfprintf+0x2b2>
     7a0:	81 2c       	mov	r8, r1
     7a2:	91 2c       	mov	r9, r1
     7a4:	c6 01       	movw	r24, r12
     7a6:	88 19       	sub	r24, r8
     7a8:	99 09       	sbc	r25, r9
     7aa:	f3 01       	movw	r30, r6
     7ac:	e8 0f       	add	r30, r24
     7ae:	f9 1f       	adc	r31, r25
     7b0:	fe 87       	std	Y+14, r31	; 0x0e
     7b2:	ed 87       	std	Y+13, r30	; 0x0d
     7b4:	96 01       	movw	r18, r12
     7b6:	24 19       	sub	r18, r4
     7b8:	31 09       	sbc	r19, r1
     7ba:	38 8b       	std	Y+16, r19	; 0x10
     7bc:	2f 87       	std	Y+15, r18	; 0x0f
     7be:	01 2f       	mov	r16, r17
     7c0:	10 e0       	ldi	r17, 0x00	; 0
     7c2:	11 95       	neg	r17
     7c4:	01 95       	neg	r16
     7c6:	11 09       	sbc	r17, r1
     7c8:	3f ef       	ldi	r19, 0xFF	; 255
     7ca:	83 16       	cp	r8, r19
     7cc:	93 06       	cpc	r9, r19
     7ce:	29 f4       	brne	.+10     	; 0x7da <vfprintf+0x2e8>
     7d0:	b7 01       	movw	r22, r14
     7d2:	8e e2       	ldi	r24, 0x2E	; 46
     7d4:	90 e0       	ldi	r25, 0x00	; 0
     7d6:	0e 94 24 07 	call	0xe48	; 0xe48 <fputc>
     7da:	c8 14       	cp	r12, r8
     7dc:	d9 04       	cpc	r13, r9
     7de:	4c f0       	brlt	.+18     	; 0x7f2 <vfprintf+0x300>
     7e0:	8f 85       	ldd	r24, Y+15	; 0x0f
     7e2:	98 89       	ldd	r25, Y+16	; 0x10
     7e4:	88 15       	cp	r24, r8
     7e6:	99 05       	cpc	r25, r9
     7e8:	24 f4       	brge	.+8      	; 0x7f2 <vfprintf+0x300>
     7ea:	ed 85       	ldd	r30, Y+13	; 0x0d
     7ec:	fe 85       	ldd	r31, Y+14	; 0x0e
     7ee:	81 81       	ldd	r24, Z+1	; 0x01
     7f0:	01 c0       	rjmp	.+2      	; 0x7f4 <vfprintf+0x302>
     7f2:	80 e3       	ldi	r24, 0x30	; 48
     7f4:	f1 e0       	ldi	r31, 0x01	; 1
     7f6:	8f 1a       	sub	r8, r31
     7f8:	91 08       	sbc	r9, r1
     7fa:	2d 85       	ldd	r18, Y+13	; 0x0d
     7fc:	3e 85       	ldd	r19, Y+14	; 0x0e
     7fe:	2f 5f       	subi	r18, 0xFF	; 255
     800:	3f 4f       	sbci	r19, 0xFF	; 255
     802:	3e 87       	std	Y+14, r19	; 0x0e
     804:	2d 87       	std	Y+13, r18	; 0x0d
     806:	80 16       	cp	r8, r16
     808:	91 06       	cpc	r9, r17
     80a:	2c f0       	brlt	.+10     	; 0x816 <vfprintf+0x324>
     80c:	b7 01       	movw	r22, r14
     80e:	90 e0       	ldi	r25, 0x00	; 0
     810:	0e 94 24 07 	call	0xe48	; 0xe48 <fputc>
     814:	d9 cf       	rjmp	.-78     	; 0x7c8 <vfprintf+0x2d6>
     816:	c8 14       	cp	r12, r8
     818:	d9 04       	cpc	r13, r9
     81a:	41 f4       	brne	.+16     	; 0x82c <vfprintf+0x33a>
     81c:	9a 81       	ldd	r25, Y+2	; 0x02
     81e:	96 33       	cpi	r25, 0x36	; 54
     820:	20 f4       	brcc	.+8      	; 0x82a <vfprintf+0x338>
     822:	95 33       	cpi	r25, 0x35	; 53
     824:	19 f4       	brne	.+6      	; 0x82c <vfprintf+0x33a>
     826:	3c 85       	ldd	r19, Y+12	; 0x0c
     828:	34 ff       	sbrs	r19, 4
     82a:	81 e3       	ldi	r24, 0x31	; 49
     82c:	b7 01       	movw	r22, r14
     82e:	90 e0       	ldi	r25, 0x00	; 0
     830:	4e c0       	rjmp	.+156    	; 0x8ce <vfprintf+0x3dc>
     832:	8a 81       	ldd	r24, Y+2	; 0x02
     834:	81 33       	cpi	r24, 0x31	; 49
     836:	19 f0       	breq	.+6      	; 0x83e <vfprintf+0x34c>
     838:	9c 85       	ldd	r25, Y+12	; 0x0c
     83a:	9f 7e       	andi	r25, 0xEF	; 239
     83c:	9c 87       	std	Y+12, r25	; 0x0c
     83e:	b7 01       	movw	r22, r14
     840:	90 e0       	ldi	r25, 0x00	; 0
     842:	0e 94 24 07 	call	0xe48	; 0xe48 <fputc>
     846:	11 11       	cpse	r17, r1
     848:	05 c0       	rjmp	.+10     	; 0x854 <vfprintf+0x362>
     84a:	94 fc       	sbrc	r9, 4
     84c:	18 c0       	rjmp	.+48     	; 0x87e <vfprintf+0x38c>
     84e:	85 e6       	ldi	r24, 0x65	; 101
     850:	90 e0       	ldi	r25, 0x00	; 0
     852:	17 c0       	rjmp	.+46     	; 0x882 <vfprintf+0x390>
     854:	b7 01       	movw	r22, r14
     856:	8e e2       	ldi	r24, 0x2E	; 46
     858:	90 e0       	ldi	r25, 0x00	; 0
     85a:	0e 94 24 07 	call	0xe48	; 0xe48 <fputc>
     85e:	1e 5f       	subi	r17, 0xFE	; 254
     860:	82 e0       	ldi	r24, 0x02	; 2
     862:	01 e0       	ldi	r16, 0x01	; 1
     864:	08 0f       	add	r16, r24
     866:	f3 01       	movw	r30, r6
     868:	e8 0f       	add	r30, r24
     86a:	f1 1d       	adc	r31, r1
     86c:	80 81       	ld	r24, Z
     86e:	b7 01       	movw	r22, r14
     870:	90 e0       	ldi	r25, 0x00	; 0
     872:	0e 94 24 07 	call	0xe48	; 0xe48 <fputc>
     876:	80 2f       	mov	r24, r16
     878:	01 13       	cpse	r16, r17
     87a:	f3 cf       	rjmp	.-26     	; 0x862 <vfprintf+0x370>
     87c:	e6 cf       	rjmp	.-52     	; 0x84a <vfprintf+0x358>
     87e:	85 e4       	ldi	r24, 0x45	; 69
     880:	90 e0       	ldi	r25, 0x00	; 0
     882:	b7 01       	movw	r22, r14
     884:	0e 94 24 07 	call	0xe48	; 0xe48 <fputc>
     888:	d7 fc       	sbrc	r13, 7
     88a:	06 c0       	rjmp	.+12     	; 0x898 <vfprintf+0x3a6>
     88c:	c1 14       	cp	r12, r1
     88e:	d1 04       	cpc	r13, r1
     890:	41 f4       	brne	.+16     	; 0x8a2 <vfprintf+0x3b0>
     892:	ec 85       	ldd	r30, Y+12	; 0x0c
     894:	e4 ff       	sbrs	r30, 4
     896:	05 c0       	rjmp	.+10     	; 0x8a2 <vfprintf+0x3b0>
     898:	d1 94       	neg	r13
     89a:	c1 94       	neg	r12
     89c:	d1 08       	sbc	r13, r1
     89e:	8d e2       	ldi	r24, 0x2D	; 45
     8a0:	01 c0       	rjmp	.+2      	; 0x8a4 <vfprintf+0x3b2>
     8a2:	8b e2       	ldi	r24, 0x2B	; 43
     8a4:	b7 01       	movw	r22, r14
     8a6:	90 e0       	ldi	r25, 0x00	; 0
     8a8:	0e 94 24 07 	call	0xe48	; 0xe48 <fputc>
     8ac:	80 e3       	ldi	r24, 0x30	; 48
     8ae:	2a e0       	ldi	r18, 0x0A	; 10
     8b0:	c2 16       	cp	r12, r18
     8b2:	d1 04       	cpc	r13, r1
     8b4:	2c f0       	brlt	.+10     	; 0x8c0 <vfprintf+0x3ce>
     8b6:	8f 5f       	subi	r24, 0xFF	; 255
     8b8:	fa e0       	ldi	r31, 0x0A	; 10
     8ba:	cf 1a       	sub	r12, r31
     8bc:	d1 08       	sbc	r13, r1
     8be:	f7 cf       	rjmp	.-18     	; 0x8ae <vfprintf+0x3bc>
     8c0:	b7 01       	movw	r22, r14
     8c2:	90 e0       	ldi	r25, 0x00	; 0
     8c4:	0e 94 24 07 	call	0xe48	; 0xe48 <fputc>
     8c8:	b7 01       	movw	r22, r14
     8ca:	c6 01       	movw	r24, r12
     8cc:	c0 96       	adiw	r24, 0x30	; 48
     8ce:	0e 94 24 07 	call	0xe48	; 0xe48 <fputc>
     8d2:	54 c1       	rjmp	.+680    	; 0xb7c <__stack+0x27d>
     8d4:	83 36       	cpi	r24, 0x63	; 99
     8d6:	31 f0       	breq	.+12     	; 0x8e4 <vfprintf+0x3f2>
     8d8:	83 37       	cpi	r24, 0x73	; 115
     8da:	79 f0       	breq	.+30     	; 0x8fa <vfprintf+0x408>
     8dc:	83 35       	cpi	r24, 0x53	; 83
     8de:	09 f0       	breq	.+2      	; 0x8e2 <vfprintf+0x3f0>
     8e0:	56 c0       	rjmp	.+172    	; 0x98e <__stack+0x8f>
     8e2:	20 c0       	rjmp	.+64     	; 0x924 <__stack+0x25>
     8e4:	56 01       	movw	r10, r12
     8e6:	32 e0       	ldi	r19, 0x02	; 2
     8e8:	a3 0e       	add	r10, r19
     8ea:	b1 1c       	adc	r11, r1
     8ec:	f6 01       	movw	r30, r12
     8ee:	80 81       	ld	r24, Z
     8f0:	89 83       	std	Y+1, r24	; 0x01
     8f2:	01 e0       	ldi	r16, 0x01	; 1
     8f4:	10 e0       	ldi	r17, 0x00	; 0
     8f6:	63 01       	movw	r12, r6
     8f8:	12 c0       	rjmp	.+36     	; 0x91e <__stack+0x1f>
     8fa:	56 01       	movw	r10, r12
     8fc:	f2 e0       	ldi	r31, 0x02	; 2
     8fe:	af 0e       	add	r10, r31
     900:	b1 1c       	adc	r11, r1
     902:	f6 01       	movw	r30, r12
     904:	c0 80       	ld	r12, Z
     906:	d1 80       	ldd	r13, Z+1	; 0x01
     908:	96 fe       	sbrs	r9, 6
     90a:	03 c0       	rjmp	.+6      	; 0x912 <__stack+0x13>
     90c:	61 2f       	mov	r22, r17
     90e:	70 e0       	ldi	r23, 0x00	; 0
     910:	02 c0       	rjmp	.+4      	; 0x916 <__stack+0x17>
     912:	6f ef       	ldi	r22, 0xFF	; 255
     914:	7f ef       	ldi	r23, 0xFF	; 255
     916:	c6 01       	movw	r24, r12
     918:	0e 94 19 07 	call	0xe32	; 0xe32 <strnlen>
     91c:	8c 01       	movw	r16, r24
     91e:	f9 2d       	mov	r31, r9
     920:	ff 77       	andi	r31, 0x7F	; 127
     922:	14 c0       	rjmp	.+40     	; 0x94c <__stack+0x4d>
     924:	56 01       	movw	r10, r12
     926:	22 e0       	ldi	r18, 0x02	; 2
     928:	a2 0e       	add	r10, r18
     92a:	b1 1c       	adc	r11, r1
     92c:	f6 01       	movw	r30, r12
     92e:	c0 80       	ld	r12, Z
     930:	d1 80       	ldd	r13, Z+1	; 0x01
     932:	96 fe       	sbrs	r9, 6
     934:	03 c0       	rjmp	.+6      	; 0x93c <__stack+0x3d>
     936:	61 2f       	mov	r22, r17
     938:	70 e0       	ldi	r23, 0x00	; 0
     93a:	02 c0       	rjmp	.+4      	; 0x940 <__stack+0x41>
     93c:	6f ef       	ldi	r22, 0xFF	; 255
     93e:	7f ef       	ldi	r23, 0xFF	; 255
     940:	c6 01       	movw	r24, r12
     942:	0e 94 05 07 	call	0xe0a	; 0xe0a <strnlen_P>
     946:	8c 01       	movw	r16, r24
     948:	f9 2d       	mov	r31, r9
     94a:	f0 68       	ori	r31, 0x80	; 128
     94c:	9f 2e       	mov	r9, r31
     94e:	f3 fd       	sbrc	r31, 3
     950:	1a c0       	rjmp	.+52     	; 0x986 <__stack+0x87>
     952:	85 2d       	mov	r24, r5
     954:	90 e0       	ldi	r25, 0x00	; 0
     956:	08 17       	cp	r16, r24
     958:	19 07       	cpc	r17, r25
     95a:	a8 f4       	brcc	.+42     	; 0x986 <__stack+0x87>
     95c:	b7 01       	movw	r22, r14
     95e:	80 e2       	ldi	r24, 0x20	; 32
     960:	90 e0       	ldi	r25, 0x00	; 0
     962:	0e 94 24 07 	call	0xe48	; 0xe48 <fputc>
     966:	5a 94       	dec	r5
     968:	f4 cf       	rjmp	.-24     	; 0x952 <__stack+0x53>
     96a:	f6 01       	movw	r30, r12
     96c:	97 fc       	sbrc	r9, 7
     96e:	85 91       	lpm	r24, Z+
     970:	97 fe       	sbrs	r9, 7
     972:	81 91       	ld	r24, Z+
     974:	6f 01       	movw	r12, r30
     976:	b7 01       	movw	r22, r14
     978:	90 e0       	ldi	r25, 0x00	; 0
     97a:	0e 94 24 07 	call	0xe48	; 0xe48 <fputc>
     97e:	51 10       	cpse	r5, r1
     980:	5a 94       	dec	r5
     982:	01 50       	subi	r16, 0x01	; 1
     984:	11 09       	sbc	r17, r1
     986:	01 15       	cp	r16, r1
     988:	11 05       	cpc	r17, r1
     98a:	79 f7       	brne	.-34     	; 0x96a <__stack+0x6b>
     98c:	f7 c0       	rjmp	.+494    	; 0xb7c <__stack+0x27d>
     98e:	84 36       	cpi	r24, 0x64	; 100
     990:	11 f0       	breq	.+4      	; 0x996 <__stack+0x97>
     992:	89 36       	cpi	r24, 0x69	; 105
     994:	61 f5       	brne	.+88     	; 0x9ee <__stack+0xef>
     996:	56 01       	movw	r10, r12
     998:	97 fe       	sbrs	r9, 7
     99a:	09 c0       	rjmp	.+18     	; 0x9ae <__stack+0xaf>
     99c:	24 e0       	ldi	r18, 0x04	; 4
     99e:	a2 0e       	add	r10, r18
     9a0:	b1 1c       	adc	r11, r1
     9a2:	f6 01       	movw	r30, r12
     9a4:	60 81       	ld	r22, Z
     9a6:	71 81       	ldd	r23, Z+1	; 0x01
     9a8:	82 81       	ldd	r24, Z+2	; 0x02
     9aa:	93 81       	ldd	r25, Z+3	; 0x03
     9ac:	0a c0       	rjmp	.+20     	; 0x9c2 <__stack+0xc3>
     9ae:	f2 e0       	ldi	r31, 0x02	; 2
     9b0:	af 0e       	add	r10, r31
     9b2:	b1 1c       	adc	r11, r1
     9b4:	f6 01       	movw	r30, r12
     9b6:	60 81       	ld	r22, Z
     9b8:	71 81       	ldd	r23, Z+1	; 0x01
     9ba:	07 2e       	mov	r0, r23
     9bc:	00 0c       	add	r0, r0
     9be:	88 0b       	sbc	r24, r24
     9c0:	99 0b       	sbc	r25, r25
     9c2:	f9 2d       	mov	r31, r9
     9c4:	ff 76       	andi	r31, 0x6F	; 111
     9c6:	9f 2e       	mov	r9, r31
     9c8:	97 ff       	sbrs	r25, 7
     9ca:	09 c0       	rjmp	.+18     	; 0x9de <__stack+0xdf>
     9cc:	90 95       	com	r25
     9ce:	80 95       	com	r24
     9d0:	70 95       	com	r23
     9d2:	61 95       	neg	r22
     9d4:	7f 4f       	sbci	r23, 0xFF	; 255
     9d6:	8f 4f       	sbci	r24, 0xFF	; 255
     9d8:	9f 4f       	sbci	r25, 0xFF	; 255
     9da:	f0 68       	ori	r31, 0x80	; 128
     9dc:	9f 2e       	mov	r9, r31
     9de:	2a e0       	ldi	r18, 0x0A	; 10
     9e0:	30 e0       	ldi	r19, 0x00	; 0
     9e2:	a3 01       	movw	r20, r6
     9e4:	0e 94 bc 07 	call	0xf78	; 0xf78 <__ultoa_invert>
     9e8:	c8 2e       	mov	r12, r24
     9ea:	c6 18       	sub	r12, r6
     9ec:	3f c0       	rjmp	.+126    	; 0xa6c <__stack+0x16d>
     9ee:	09 2d       	mov	r16, r9
     9f0:	85 37       	cpi	r24, 0x75	; 117
     9f2:	21 f4       	brne	.+8      	; 0x9fc <__stack+0xfd>
     9f4:	0f 7e       	andi	r16, 0xEF	; 239
     9f6:	2a e0       	ldi	r18, 0x0A	; 10
     9f8:	30 e0       	ldi	r19, 0x00	; 0
     9fa:	1d c0       	rjmp	.+58     	; 0xa36 <__stack+0x137>
     9fc:	09 7f       	andi	r16, 0xF9	; 249
     9fe:	8f 36       	cpi	r24, 0x6F	; 111
     a00:	91 f0       	breq	.+36     	; 0xa26 <__stack+0x127>
     a02:	18 f4       	brcc	.+6      	; 0xa0a <__stack+0x10b>
     a04:	88 35       	cpi	r24, 0x58	; 88
     a06:	59 f0       	breq	.+22     	; 0xa1e <__stack+0x11f>
     a08:	c3 c0       	rjmp	.+390    	; 0xb90 <__stack+0x291>
     a0a:	80 37       	cpi	r24, 0x70	; 112
     a0c:	19 f0       	breq	.+6      	; 0xa14 <__stack+0x115>
     a0e:	88 37       	cpi	r24, 0x78	; 120
     a10:	11 f0       	breq	.+4      	; 0xa16 <__stack+0x117>
     a12:	be c0       	rjmp	.+380    	; 0xb90 <__stack+0x291>
     a14:	00 61       	ori	r16, 0x10	; 16
     a16:	04 ff       	sbrs	r16, 4
     a18:	09 c0       	rjmp	.+18     	; 0xa2c <__stack+0x12d>
     a1a:	04 60       	ori	r16, 0x04	; 4
     a1c:	07 c0       	rjmp	.+14     	; 0xa2c <__stack+0x12d>
     a1e:	94 fe       	sbrs	r9, 4
     a20:	08 c0       	rjmp	.+16     	; 0xa32 <__stack+0x133>
     a22:	06 60       	ori	r16, 0x06	; 6
     a24:	06 c0       	rjmp	.+12     	; 0xa32 <__stack+0x133>
     a26:	28 e0       	ldi	r18, 0x08	; 8
     a28:	30 e0       	ldi	r19, 0x00	; 0
     a2a:	05 c0       	rjmp	.+10     	; 0xa36 <__stack+0x137>
     a2c:	20 e1       	ldi	r18, 0x10	; 16
     a2e:	30 e0       	ldi	r19, 0x00	; 0
     a30:	02 c0       	rjmp	.+4      	; 0xa36 <__stack+0x137>
     a32:	20 e1       	ldi	r18, 0x10	; 16
     a34:	32 e0       	ldi	r19, 0x02	; 2
     a36:	56 01       	movw	r10, r12
     a38:	07 ff       	sbrs	r16, 7
     a3a:	09 c0       	rjmp	.+18     	; 0xa4e <__stack+0x14f>
     a3c:	84 e0       	ldi	r24, 0x04	; 4
     a3e:	a8 0e       	add	r10, r24
     a40:	b1 1c       	adc	r11, r1
     a42:	f6 01       	movw	r30, r12
     a44:	60 81       	ld	r22, Z
     a46:	71 81       	ldd	r23, Z+1	; 0x01
     a48:	82 81       	ldd	r24, Z+2	; 0x02
     a4a:	93 81       	ldd	r25, Z+3	; 0x03
     a4c:	08 c0       	rjmp	.+16     	; 0xa5e <__stack+0x15f>
     a4e:	f2 e0       	ldi	r31, 0x02	; 2
     a50:	af 0e       	add	r10, r31
     a52:	b1 1c       	adc	r11, r1
     a54:	f6 01       	movw	r30, r12
     a56:	60 81       	ld	r22, Z
     a58:	71 81       	ldd	r23, Z+1	; 0x01
     a5a:	80 e0       	ldi	r24, 0x00	; 0
     a5c:	90 e0       	ldi	r25, 0x00	; 0
     a5e:	a3 01       	movw	r20, r6
     a60:	0e 94 bc 07 	call	0xf78	; 0xf78 <__ultoa_invert>
     a64:	c8 2e       	mov	r12, r24
     a66:	c6 18       	sub	r12, r6
     a68:	0f 77       	andi	r16, 0x7F	; 127
     a6a:	90 2e       	mov	r9, r16
     a6c:	96 fe       	sbrs	r9, 6
     a6e:	0b c0       	rjmp	.+22     	; 0xa86 <__stack+0x187>
     a70:	09 2d       	mov	r16, r9
     a72:	0e 7f       	andi	r16, 0xFE	; 254
     a74:	c1 16       	cp	r12, r17
     a76:	50 f4       	brcc	.+20     	; 0xa8c <__stack+0x18d>
     a78:	94 fe       	sbrs	r9, 4
     a7a:	0a c0       	rjmp	.+20     	; 0xa90 <__stack+0x191>
     a7c:	92 fc       	sbrc	r9, 2
     a7e:	08 c0       	rjmp	.+16     	; 0xa90 <__stack+0x191>
     a80:	09 2d       	mov	r16, r9
     a82:	0e 7e       	andi	r16, 0xEE	; 238
     a84:	05 c0       	rjmp	.+10     	; 0xa90 <__stack+0x191>
     a86:	dc 2c       	mov	r13, r12
     a88:	09 2d       	mov	r16, r9
     a8a:	03 c0       	rjmp	.+6      	; 0xa92 <__stack+0x193>
     a8c:	dc 2c       	mov	r13, r12
     a8e:	01 c0       	rjmp	.+2      	; 0xa92 <__stack+0x193>
     a90:	d1 2e       	mov	r13, r17
     a92:	04 ff       	sbrs	r16, 4
     a94:	0d c0       	rjmp	.+26     	; 0xab0 <__stack+0x1b1>
     a96:	fe 01       	movw	r30, r28
     a98:	ec 0d       	add	r30, r12
     a9a:	f1 1d       	adc	r31, r1
     a9c:	80 81       	ld	r24, Z
     a9e:	80 33       	cpi	r24, 0x30	; 48
     aa0:	11 f4       	brne	.+4      	; 0xaa6 <__stack+0x1a7>
     aa2:	09 7e       	andi	r16, 0xE9	; 233
     aa4:	09 c0       	rjmp	.+18     	; 0xab8 <__stack+0x1b9>
     aa6:	02 ff       	sbrs	r16, 2
     aa8:	06 c0       	rjmp	.+12     	; 0xab6 <__stack+0x1b7>
     aaa:	d3 94       	inc	r13
     aac:	d3 94       	inc	r13
     aae:	04 c0       	rjmp	.+8      	; 0xab8 <__stack+0x1b9>
     ab0:	80 2f       	mov	r24, r16
     ab2:	86 78       	andi	r24, 0x86	; 134
     ab4:	09 f0       	breq	.+2      	; 0xab8 <__stack+0x1b9>
     ab6:	d3 94       	inc	r13
     ab8:	03 fd       	sbrc	r16, 3
     aba:	11 c0       	rjmp	.+34     	; 0xade <__stack+0x1df>
     abc:	00 ff       	sbrs	r16, 0
     abe:	06 c0       	rjmp	.+12     	; 0xacc <__stack+0x1cd>
     ac0:	1c 2d       	mov	r17, r12
     ac2:	d5 14       	cp	r13, r5
     ac4:	80 f4       	brcc	.+32     	; 0xae6 <__stack+0x1e7>
     ac6:	15 0d       	add	r17, r5
     ac8:	1d 19       	sub	r17, r13
     aca:	0d c0       	rjmp	.+26     	; 0xae6 <__stack+0x1e7>
     acc:	d5 14       	cp	r13, r5
     ace:	58 f4       	brcc	.+22     	; 0xae6 <__stack+0x1e7>
     ad0:	b7 01       	movw	r22, r14
     ad2:	80 e2       	ldi	r24, 0x20	; 32
     ad4:	90 e0       	ldi	r25, 0x00	; 0
     ad6:	0e 94 24 07 	call	0xe48	; 0xe48 <fputc>
     ada:	d3 94       	inc	r13
     adc:	f7 cf       	rjmp	.-18     	; 0xacc <__stack+0x1cd>
     ade:	d5 14       	cp	r13, r5
     ae0:	10 f4       	brcc	.+4      	; 0xae6 <__stack+0x1e7>
     ae2:	5d 18       	sub	r5, r13
     ae4:	01 c0       	rjmp	.+2      	; 0xae8 <__stack+0x1e9>
     ae6:	51 2c       	mov	r5, r1
     ae8:	04 ff       	sbrs	r16, 4
     aea:	10 c0       	rjmp	.+32     	; 0xb0c <__stack+0x20d>
     aec:	b7 01       	movw	r22, r14
     aee:	80 e3       	ldi	r24, 0x30	; 48
     af0:	90 e0       	ldi	r25, 0x00	; 0
     af2:	0e 94 24 07 	call	0xe48	; 0xe48 <fputc>
     af6:	02 ff       	sbrs	r16, 2
     af8:	17 c0       	rjmp	.+46     	; 0xb28 <__stack+0x229>
     afa:	01 fd       	sbrc	r16, 1
     afc:	03 c0       	rjmp	.+6      	; 0xb04 <__stack+0x205>
     afe:	88 e7       	ldi	r24, 0x78	; 120
     b00:	90 e0       	ldi	r25, 0x00	; 0
     b02:	02 c0       	rjmp	.+4      	; 0xb08 <__stack+0x209>
     b04:	88 e5       	ldi	r24, 0x58	; 88
     b06:	90 e0       	ldi	r25, 0x00	; 0
     b08:	b7 01       	movw	r22, r14
     b0a:	0c c0       	rjmp	.+24     	; 0xb24 <__stack+0x225>
     b0c:	80 2f       	mov	r24, r16
     b0e:	86 78       	andi	r24, 0x86	; 134
     b10:	59 f0       	breq	.+22     	; 0xb28 <__stack+0x229>
     b12:	01 ff       	sbrs	r16, 1
     b14:	02 c0       	rjmp	.+4      	; 0xb1a <__stack+0x21b>
     b16:	8b e2       	ldi	r24, 0x2B	; 43
     b18:	01 c0       	rjmp	.+2      	; 0xb1c <__stack+0x21d>
     b1a:	80 e2       	ldi	r24, 0x20	; 32
     b1c:	07 fd       	sbrc	r16, 7
     b1e:	8d e2       	ldi	r24, 0x2D	; 45
     b20:	b7 01       	movw	r22, r14
     b22:	90 e0       	ldi	r25, 0x00	; 0
     b24:	0e 94 24 07 	call	0xe48	; 0xe48 <fputc>
     b28:	c1 16       	cp	r12, r17
     b2a:	38 f4       	brcc	.+14     	; 0xb3a <__stack+0x23b>
     b2c:	b7 01       	movw	r22, r14
     b2e:	80 e3       	ldi	r24, 0x30	; 48
     b30:	90 e0       	ldi	r25, 0x00	; 0
     b32:	0e 94 24 07 	call	0xe48	; 0xe48 <fputc>
     b36:	11 50       	subi	r17, 0x01	; 1
     b38:	f7 cf       	rjmp	.-18     	; 0xb28 <__stack+0x229>
     b3a:	ca 94       	dec	r12
     b3c:	f3 01       	movw	r30, r6
     b3e:	ec 0d       	add	r30, r12
     b40:	f1 1d       	adc	r31, r1
     b42:	80 81       	ld	r24, Z
     b44:	b7 01       	movw	r22, r14
     b46:	90 e0       	ldi	r25, 0x00	; 0
     b48:	0e 94 24 07 	call	0xe48	; 0xe48 <fputc>
     b4c:	c1 10       	cpse	r12, r1
     b4e:	f5 cf       	rjmp	.-22     	; 0xb3a <__stack+0x23b>
     b50:	15 c0       	rjmp	.+42     	; 0xb7c <__stack+0x27d>
     b52:	f4 e0       	ldi	r31, 0x04	; 4
     b54:	f5 15       	cp	r31, r5
     b56:	60 f5       	brcc	.+88     	; 0xbb0 <__stack+0x2b1>
     b58:	84 e0       	ldi	r24, 0x04	; 4
     b5a:	58 1a       	sub	r5, r24
     b5c:	93 fe       	sbrs	r9, 3
     b5e:	1f c0       	rjmp	.+62     	; 0xb9e <__stack+0x29f>
     b60:	01 11       	cpse	r16, r1
     b62:	27 c0       	rjmp	.+78     	; 0xbb2 <__stack+0x2b3>
     b64:	2c 85       	ldd	r18, Y+12	; 0x0c
     b66:	23 ff       	sbrs	r18, 3
     b68:	2a c0       	rjmp	.+84     	; 0xbbe <__stack+0x2bf>
     b6a:	04 eb       	ldi	r16, 0xB4	; 180
     b6c:	10 e0       	ldi	r17, 0x00	; 0
     b6e:	39 2d       	mov	r19, r9
     b70:	30 71       	andi	r19, 0x10	; 16
     b72:	93 2e       	mov	r9, r19
     b74:	f8 01       	movw	r30, r16
     b76:	84 91       	lpm	r24, Z
     b78:	81 11       	cpse	r24, r1
     b7a:	24 c0       	rjmp	.+72     	; 0xbc4 <__stack+0x2c5>
     b7c:	55 20       	and	r5, r5
     b7e:	09 f4       	brne	.+2      	; 0xb82 <__stack+0x283>
     b80:	e4 cc       	rjmp	.-1592   	; 0x54a <vfprintf+0x58>
     b82:	b7 01       	movw	r22, r14
     b84:	80 e2       	ldi	r24, 0x20	; 32
     b86:	90 e0       	ldi	r25, 0x00	; 0
     b88:	0e 94 24 07 	call	0xe48	; 0xe48 <fputc>
     b8c:	5a 94       	dec	r5
     b8e:	f6 cf       	rjmp	.-20     	; 0xb7c <__stack+0x27d>
     b90:	f7 01       	movw	r30, r14
     b92:	86 81       	ldd	r24, Z+6	; 0x06
     b94:	97 81       	ldd	r25, Z+7	; 0x07
     b96:	26 c0       	rjmp	.+76     	; 0xbe4 <__stack+0x2e5>
     b98:	8f ef       	ldi	r24, 0xFF	; 255
     b9a:	9f ef       	ldi	r25, 0xFF	; 255
     b9c:	23 c0       	rjmp	.+70     	; 0xbe4 <__stack+0x2e5>
     b9e:	b7 01       	movw	r22, r14
     ba0:	80 e2       	ldi	r24, 0x20	; 32
     ba2:	90 e0       	ldi	r25, 0x00	; 0
     ba4:	0e 94 24 07 	call	0xe48	; 0xe48 <fputc>
     ba8:	5a 94       	dec	r5
     baa:	51 10       	cpse	r5, r1
     bac:	f8 cf       	rjmp	.-16     	; 0xb9e <__stack+0x29f>
     bae:	d8 cf       	rjmp	.-80     	; 0xb60 <__stack+0x261>
     bb0:	51 2c       	mov	r5, r1
     bb2:	b7 01       	movw	r22, r14
     bb4:	80 2f       	mov	r24, r16
     bb6:	90 e0       	ldi	r25, 0x00	; 0
     bb8:	0e 94 24 07 	call	0xe48	; 0xe48 <fputc>
     bbc:	d3 cf       	rjmp	.-90     	; 0xb64 <__stack+0x265>
     bbe:	08 eb       	ldi	r16, 0xB8	; 184
     bc0:	10 e0       	ldi	r17, 0x00	; 0
     bc2:	d5 cf       	rjmp	.-86     	; 0xb6e <__stack+0x26f>
     bc4:	91 10       	cpse	r9, r1
     bc6:	80 52       	subi	r24, 0x20	; 32
     bc8:	b7 01       	movw	r22, r14
     bca:	90 e0       	ldi	r25, 0x00	; 0
     bcc:	0e 94 24 07 	call	0xe48	; 0xe48 <fputc>
     bd0:	0f 5f       	subi	r16, 0xFF	; 255
     bd2:	1f 4f       	sbci	r17, 0xFF	; 255
     bd4:	cf cf       	rjmp	.-98     	; 0xb74 <__stack+0x275>
     bd6:	23 e0       	ldi	r18, 0x03	; 3
     bd8:	25 15       	cp	r18, r5
     bda:	10 f4       	brcc	.+4      	; 0xbe0 <__stack+0x2e1>
     bdc:	83 e0       	ldi	r24, 0x03	; 3
     bde:	bd cf       	rjmp	.-134    	; 0xb5a <__stack+0x25b>
     be0:	51 2c       	mov	r5, r1
     be2:	c0 cf       	rjmp	.-128    	; 0xb64 <__stack+0x265>
     be4:	60 96       	adiw	r28, 0x10	; 16
     be6:	e2 e1       	ldi	r30, 0x12	; 18
     be8:	0c 94 12 06 	jmp	0xc24	; 0xc24 <__epilogue_restores__>

00000bec <__prologue_saves__>:
     bec:	2f 92       	push	r2
     bee:	3f 92       	push	r3
     bf0:	4f 92       	push	r4
     bf2:	5f 92       	push	r5
     bf4:	6f 92       	push	r6
     bf6:	7f 92       	push	r7
     bf8:	8f 92       	push	r8
     bfa:	9f 92       	push	r9
     bfc:	af 92       	push	r10
     bfe:	bf 92       	push	r11
     c00:	cf 92       	push	r12
     c02:	df 92       	push	r13
     c04:	ef 92       	push	r14
     c06:	ff 92       	push	r15
     c08:	0f 93       	push	r16
     c0a:	1f 93       	push	r17
     c0c:	cf 93       	push	r28
     c0e:	df 93       	push	r29
     c10:	cd b7       	in	r28, 0x3d	; 61
     c12:	de b7       	in	r29, 0x3e	; 62
     c14:	ca 1b       	sub	r28, r26
     c16:	db 0b       	sbc	r29, r27
     c18:	0f b6       	in	r0, 0x3f	; 63
     c1a:	f8 94       	cli
     c1c:	de bf       	out	0x3e, r29	; 62
     c1e:	0f be       	out	0x3f, r0	; 63
     c20:	cd bf       	out	0x3d, r28	; 61
     c22:	09 94       	ijmp

00000c24 <__epilogue_restores__>:
     c24:	2a 88       	ldd	r2, Y+18	; 0x12
     c26:	39 88       	ldd	r3, Y+17	; 0x11
     c28:	48 88       	ldd	r4, Y+16	; 0x10
     c2a:	5f 84       	ldd	r5, Y+15	; 0x0f
     c2c:	6e 84       	ldd	r6, Y+14	; 0x0e
     c2e:	7d 84       	ldd	r7, Y+13	; 0x0d
     c30:	8c 84       	ldd	r8, Y+12	; 0x0c
     c32:	9b 84       	ldd	r9, Y+11	; 0x0b
     c34:	aa 84       	ldd	r10, Y+10	; 0x0a
     c36:	b9 84       	ldd	r11, Y+9	; 0x09
     c38:	c8 84       	ldd	r12, Y+8	; 0x08
     c3a:	df 80       	ldd	r13, Y+7	; 0x07
     c3c:	ee 80       	ldd	r14, Y+6	; 0x06
     c3e:	fd 80       	ldd	r15, Y+5	; 0x05
     c40:	0c 81       	ldd	r16, Y+4	; 0x04
     c42:	1b 81       	ldd	r17, Y+3	; 0x03
     c44:	aa 81       	ldd	r26, Y+2	; 0x02
     c46:	b9 81       	ldd	r27, Y+1	; 0x01
     c48:	ce 0f       	add	r28, r30
     c4a:	d1 1d       	adc	r29, r1
     c4c:	0f b6       	in	r0, 0x3f	; 63
     c4e:	f8 94       	cli
     c50:	de bf       	out	0x3e, r29	; 62
     c52:	0f be       	out	0x3f, r0	; 63
     c54:	cd bf       	out	0x3d, r28	; 61
     c56:	ed 01       	movw	r28, r26
     c58:	08 95       	ret

00000c5a <__ftoa_engine>:
     c5a:	28 30       	cpi	r18, 0x08	; 8
     c5c:	08 f0       	brcs	.+2      	; 0xc60 <__ftoa_engine+0x6>
     c5e:	27 e0       	ldi	r18, 0x07	; 7
     c60:	33 27       	eor	r19, r19
     c62:	da 01       	movw	r26, r20
     c64:	99 0f       	add	r25, r25
     c66:	31 1d       	adc	r19, r1
     c68:	87 fd       	sbrc	r24, 7
     c6a:	91 60       	ori	r25, 0x01	; 1
     c6c:	00 96       	adiw	r24, 0x00	; 0
     c6e:	61 05       	cpc	r22, r1
     c70:	71 05       	cpc	r23, r1
     c72:	39 f4       	brne	.+14     	; 0xc82 <__ftoa_engine+0x28>
     c74:	32 60       	ori	r19, 0x02	; 2
     c76:	2e 5f       	subi	r18, 0xFE	; 254
     c78:	3d 93       	st	X+, r19
     c7a:	30 e3       	ldi	r19, 0x30	; 48
     c7c:	2a 95       	dec	r18
     c7e:	e1 f7       	brne	.-8      	; 0xc78 <__ftoa_engine+0x1e>
     c80:	08 95       	ret
     c82:	9f 3f       	cpi	r25, 0xFF	; 255
     c84:	30 f0       	brcs	.+12     	; 0xc92 <__ftoa_engine+0x38>
     c86:	80 38       	cpi	r24, 0x80	; 128
     c88:	71 05       	cpc	r23, r1
     c8a:	61 05       	cpc	r22, r1
     c8c:	09 f0       	breq	.+2      	; 0xc90 <__ftoa_engine+0x36>
     c8e:	3c 5f       	subi	r19, 0xFC	; 252
     c90:	3c 5f       	subi	r19, 0xFC	; 252
     c92:	3d 93       	st	X+, r19
     c94:	91 30       	cpi	r25, 0x01	; 1
     c96:	08 f0       	brcs	.+2      	; 0xc9a <__ftoa_engine+0x40>
     c98:	80 68       	ori	r24, 0x80	; 128
     c9a:	91 1d       	adc	r25, r1
     c9c:	df 93       	push	r29
     c9e:	cf 93       	push	r28
     ca0:	1f 93       	push	r17
     ca2:	0f 93       	push	r16
     ca4:	ff 92       	push	r15
     ca6:	ef 92       	push	r14
     ca8:	19 2f       	mov	r17, r25
     caa:	98 7f       	andi	r25, 0xF8	; 248
     cac:	96 95       	lsr	r25
     cae:	e9 2f       	mov	r30, r25
     cb0:	96 95       	lsr	r25
     cb2:	96 95       	lsr	r25
     cb4:	e9 0f       	add	r30, r25
     cb6:	ff 27       	eor	r31, r31
     cb8:	ea 5e       	subi	r30, 0xEA	; 234
     cba:	fe 4f       	sbci	r31, 0xFE	; 254
     cbc:	99 27       	eor	r25, r25
     cbe:	33 27       	eor	r19, r19
     cc0:	ee 24       	eor	r14, r14
     cc2:	ff 24       	eor	r15, r15
     cc4:	a7 01       	movw	r20, r14
     cc6:	e7 01       	movw	r28, r14
     cc8:	05 90       	lpm	r0, Z+
     cca:	08 94       	sec
     ccc:	07 94       	ror	r0
     cce:	28 f4       	brcc	.+10     	; 0xcda <__ftoa_engine+0x80>
     cd0:	36 0f       	add	r19, r22
     cd2:	e7 1e       	adc	r14, r23
     cd4:	f8 1e       	adc	r15, r24
     cd6:	49 1f       	adc	r20, r25
     cd8:	51 1d       	adc	r21, r1
     cda:	66 0f       	add	r22, r22
     cdc:	77 1f       	adc	r23, r23
     cde:	88 1f       	adc	r24, r24
     ce0:	99 1f       	adc	r25, r25
     ce2:	06 94       	lsr	r0
     ce4:	a1 f7       	brne	.-24     	; 0xcce <__ftoa_engine+0x74>
     ce6:	05 90       	lpm	r0, Z+
     ce8:	07 94       	ror	r0
     cea:	28 f4       	brcc	.+10     	; 0xcf6 <__ftoa_engine+0x9c>
     cec:	e7 0e       	add	r14, r23
     cee:	f8 1e       	adc	r15, r24
     cf0:	49 1f       	adc	r20, r25
     cf2:	56 1f       	adc	r21, r22
     cf4:	c1 1d       	adc	r28, r1
     cf6:	77 0f       	add	r23, r23
     cf8:	88 1f       	adc	r24, r24
     cfa:	99 1f       	adc	r25, r25
     cfc:	66 1f       	adc	r22, r22
     cfe:	06 94       	lsr	r0
     d00:	a1 f7       	brne	.-24     	; 0xcea <__ftoa_engine+0x90>
     d02:	05 90       	lpm	r0, Z+
     d04:	07 94       	ror	r0
     d06:	28 f4       	brcc	.+10     	; 0xd12 <__ftoa_engine+0xb8>
     d08:	f8 0e       	add	r15, r24
     d0a:	49 1f       	adc	r20, r25
     d0c:	56 1f       	adc	r21, r22
     d0e:	c7 1f       	adc	r28, r23
     d10:	d1 1d       	adc	r29, r1
     d12:	88 0f       	add	r24, r24
     d14:	99 1f       	adc	r25, r25
     d16:	66 1f       	adc	r22, r22
     d18:	77 1f       	adc	r23, r23
     d1a:	06 94       	lsr	r0
     d1c:	a1 f7       	brne	.-24     	; 0xd06 <__ftoa_engine+0xac>
     d1e:	05 90       	lpm	r0, Z+
     d20:	07 94       	ror	r0
     d22:	20 f4       	brcc	.+8      	; 0xd2c <__ftoa_engine+0xd2>
     d24:	49 0f       	add	r20, r25
     d26:	56 1f       	adc	r21, r22
     d28:	c7 1f       	adc	r28, r23
     d2a:	d8 1f       	adc	r29, r24
     d2c:	99 0f       	add	r25, r25
     d2e:	66 1f       	adc	r22, r22
     d30:	77 1f       	adc	r23, r23
     d32:	88 1f       	adc	r24, r24
     d34:	06 94       	lsr	r0
     d36:	a9 f7       	brne	.-22     	; 0xd22 <__ftoa_engine+0xc8>
     d38:	84 91       	lpm	r24, Z
     d3a:	10 95       	com	r17
     d3c:	17 70       	andi	r17, 0x07	; 7
     d3e:	41 f0       	breq	.+16     	; 0xd50 <__ftoa_engine+0xf6>
     d40:	d6 95       	lsr	r29
     d42:	c7 95       	ror	r28
     d44:	57 95       	ror	r21
     d46:	47 95       	ror	r20
     d48:	f7 94       	ror	r15
     d4a:	e7 94       	ror	r14
     d4c:	1a 95       	dec	r17
     d4e:	c1 f7       	brne	.-16     	; 0xd40 <__ftoa_engine+0xe6>
     d50:	ec eb       	ldi	r30, 0xBC	; 188
     d52:	f0 e0       	ldi	r31, 0x00	; 0
     d54:	68 94       	set
     d56:	15 90       	lpm	r1, Z+
     d58:	15 91       	lpm	r17, Z+
     d5a:	35 91       	lpm	r19, Z+
     d5c:	65 91       	lpm	r22, Z+
     d5e:	95 91       	lpm	r25, Z+
     d60:	05 90       	lpm	r0, Z+
     d62:	7f e2       	ldi	r23, 0x2F	; 47
     d64:	73 95       	inc	r23
     d66:	e1 18       	sub	r14, r1
     d68:	f1 0a       	sbc	r15, r17
     d6a:	43 0b       	sbc	r20, r19
     d6c:	56 0b       	sbc	r21, r22
     d6e:	c9 0b       	sbc	r28, r25
     d70:	d0 09       	sbc	r29, r0
     d72:	c0 f7       	brcc	.-16     	; 0xd64 <__ftoa_engine+0x10a>
     d74:	e1 0c       	add	r14, r1
     d76:	f1 1e       	adc	r15, r17
     d78:	43 1f       	adc	r20, r19
     d7a:	56 1f       	adc	r21, r22
     d7c:	c9 1f       	adc	r28, r25
     d7e:	d0 1d       	adc	r29, r0
     d80:	7e f4       	brtc	.+30     	; 0xda0 <__ftoa_engine+0x146>
     d82:	70 33       	cpi	r23, 0x30	; 48
     d84:	11 f4       	brne	.+4      	; 0xd8a <__ftoa_engine+0x130>
     d86:	8a 95       	dec	r24
     d88:	e6 cf       	rjmp	.-52     	; 0xd56 <__ftoa_engine+0xfc>
     d8a:	e8 94       	clt
     d8c:	01 50       	subi	r16, 0x01	; 1
     d8e:	30 f0       	brcs	.+12     	; 0xd9c <__ftoa_engine+0x142>
     d90:	08 0f       	add	r16, r24
     d92:	0a f4       	brpl	.+2      	; 0xd96 <__ftoa_engine+0x13c>
     d94:	00 27       	eor	r16, r16
     d96:	02 17       	cp	r16, r18
     d98:	08 f4       	brcc	.+2      	; 0xd9c <__ftoa_engine+0x142>
     d9a:	20 2f       	mov	r18, r16
     d9c:	23 95       	inc	r18
     d9e:	02 2f       	mov	r16, r18
     da0:	7a 33       	cpi	r23, 0x3A	; 58
     da2:	28 f0       	brcs	.+10     	; 0xdae <__ftoa_engine+0x154>
     da4:	79 e3       	ldi	r23, 0x39	; 57
     da6:	7d 93       	st	X+, r23
     da8:	2a 95       	dec	r18
     daa:	e9 f7       	brne	.-6      	; 0xda6 <__ftoa_engine+0x14c>
     dac:	10 c0       	rjmp	.+32     	; 0xdce <__ftoa_engine+0x174>
     dae:	7d 93       	st	X+, r23
     db0:	2a 95       	dec	r18
     db2:	89 f6       	brne	.-94     	; 0xd56 <__ftoa_engine+0xfc>
     db4:	06 94       	lsr	r0
     db6:	97 95       	ror	r25
     db8:	67 95       	ror	r22
     dba:	37 95       	ror	r19
     dbc:	17 95       	ror	r17
     dbe:	17 94       	ror	r1
     dc0:	e1 18       	sub	r14, r1
     dc2:	f1 0a       	sbc	r15, r17
     dc4:	43 0b       	sbc	r20, r19
     dc6:	56 0b       	sbc	r21, r22
     dc8:	c9 0b       	sbc	r28, r25
     dca:	d0 09       	sbc	r29, r0
     dcc:	98 f0       	brcs	.+38     	; 0xdf4 <__ftoa_engine+0x19a>
     dce:	23 95       	inc	r18
     dd0:	7e 91       	ld	r23, -X
     dd2:	73 95       	inc	r23
     dd4:	7a 33       	cpi	r23, 0x3A	; 58
     dd6:	08 f0       	brcs	.+2      	; 0xdda <__ftoa_engine+0x180>
     dd8:	70 e3       	ldi	r23, 0x30	; 48
     dda:	7c 93       	st	X, r23
     ddc:	20 13       	cpse	r18, r16
     dde:	b8 f7       	brcc	.-18     	; 0xdce <__ftoa_engine+0x174>
     de0:	7e 91       	ld	r23, -X
     de2:	70 61       	ori	r23, 0x10	; 16
     de4:	7d 93       	st	X+, r23
     de6:	30 f0       	brcs	.+12     	; 0xdf4 <__ftoa_engine+0x19a>
     de8:	83 95       	inc	r24
     dea:	71 e3       	ldi	r23, 0x31	; 49
     dec:	7d 93       	st	X+, r23
     dee:	70 e3       	ldi	r23, 0x30	; 48
     df0:	2a 95       	dec	r18
     df2:	e1 f7       	brne	.-8      	; 0xdec <__ftoa_engine+0x192>
     df4:	11 24       	eor	r1, r1
     df6:	ef 90       	pop	r14
     df8:	ff 90       	pop	r15
     dfa:	0f 91       	pop	r16
     dfc:	1f 91       	pop	r17
     dfe:	cf 91       	pop	r28
     e00:	df 91       	pop	r29
     e02:	99 27       	eor	r25, r25
     e04:	87 fd       	sbrc	r24, 7
     e06:	90 95       	com	r25
     e08:	08 95       	ret

00000e0a <strnlen_P>:
     e0a:	fc 01       	movw	r30, r24
     e0c:	05 90       	lpm	r0, Z+
     e0e:	61 50       	subi	r22, 0x01	; 1
     e10:	70 40       	sbci	r23, 0x00	; 0
     e12:	01 10       	cpse	r0, r1
     e14:	d8 f7       	brcc	.-10     	; 0xe0c <strnlen_P+0x2>
     e16:	80 95       	com	r24
     e18:	90 95       	com	r25
     e1a:	8e 0f       	add	r24, r30
     e1c:	9f 1f       	adc	r25, r31
     e1e:	08 95       	ret

00000e20 <strcmp>:
     e20:	fb 01       	movw	r30, r22
     e22:	dc 01       	movw	r26, r24
     e24:	8d 91       	ld	r24, X+
     e26:	01 90       	ld	r0, Z+
     e28:	80 19       	sub	r24, r0
     e2a:	01 10       	cpse	r0, r1
     e2c:	d9 f3       	breq	.-10     	; 0xe24 <strcmp+0x4>
     e2e:	99 0b       	sbc	r25, r25
     e30:	08 95       	ret

00000e32 <strnlen>:
     e32:	fc 01       	movw	r30, r24
     e34:	61 50       	subi	r22, 0x01	; 1
     e36:	70 40       	sbci	r23, 0x00	; 0
     e38:	01 90       	ld	r0, Z+
     e3a:	01 10       	cpse	r0, r1
     e3c:	d8 f7       	brcc	.-10     	; 0xe34 <strnlen+0x2>
     e3e:	80 95       	com	r24
     e40:	90 95       	com	r25
     e42:	8e 0f       	add	r24, r30
     e44:	9f 1f       	adc	r25, r31
     e46:	08 95       	ret

00000e48 <fputc>:
     e48:	0f 93       	push	r16
     e4a:	1f 93       	push	r17
     e4c:	cf 93       	push	r28
     e4e:	df 93       	push	r29
     e50:	fb 01       	movw	r30, r22
     e52:	23 81       	ldd	r18, Z+3	; 0x03
     e54:	21 fd       	sbrc	r18, 1
     e56:	03 c0       	rjmp	.+6      	; 0xe5e <fputc+0x16>
     e58:	8f ef       	ldi	r24, 0xFF	; 255
     e5a:	9f ef       	ldi	r25, 0xFF	; 255
     e5c:	2c c0       	rjmp	.+88     	; 0xeb6 <fputc+0x6e>
     e5e:	22 ff       	sbrs	r18, 2
     e60:	16 c0       	rjmp	.+44     	; 0xe8e <fputc+0x46>
     e62:	46 81       	ldd	r20, Z+6	; 0x06
     e64:	57 81       	ldd	r21, Z+7	; 0x07
     e66:	24 81       	ldd	r18, Z+4	; 0x04
     e68:	35 81       	ldd	r19, Z+5	; 0x05
     e6a:	42 17       	cp	r20, r18
     e6c:	53 07       	cpc	r21, r19
     e6e:	44 f4       	brge	.+16     	; 0xe80 <fputc+0x38>
     e70:	a0 81       	ld	r26, Z
     e72:	b1 81       	ldd	r27, Z+1	; 0x01
     e74:	9d 01       	movw	r18, r26
     e76:	2f 5f       	subi	r18, 0xFF	; 255
     e78:	3f 4f       	sbci	r19, 0xFF	; 255
     e7a:	31 83       	std	Z+1, r19	; 0x01
     e7c:	20 83       	st	Z, r18
     e7e:	8c 93       	st	X, r24
     e80:	26 81       	ldd	r18, Z+6	; 0x06
     e82:	37 81       	ldd	r19, Z+7	; 0x07
     e84:	2f 5f       	subi	r18, 0xFF	; 255
     e86:	3f 4f       	sbci	r19, 0xFF	; 255
     e88:	37 83       	std	Z+7, r19	; 0x07
     e8a:	26 83       	std	Z+6, r18	; 0x06
     e8c:	14 c0       	rjmp	.+40     	; 0xeb6 <fputc+0x6e>
     e8e:	8b 01       	movw	r16, r22
     e90:	ec 01       	movw	r28, r24
     e92:	fb 01       	movw	r30, r22
     e94:	00 84       	ldd	r0, Z+8	; 0x08
     e96:	f1 85       	ldd	r31, Z+9	; 0x09
     e98:	e0 2d       	mov	r30, r0
     e9a:	09 95       	icall
     e9c:	89 2b       	or	r24, r25
     e9e:	e1 f6       	brne	.-72     	; 0xe58 <fputc+0x10>
     ea0:	d8 01       	movw	r26, r16
     ea2:	16 96       	adiw	r26, 0x06	; 6
     ea4:	8d 91       	ld	r24, X+
     ea6:	9c 91       	ld	r25, X
     ea8:	17 97       	sbiw	r26, 0x07	; 7
     eaa:	01 96       	adiw	r24, 0x01	; 1
     eac:	17 96       	adiw	r26, 0x07	; 7
     eae:	9c 93       	st	X, r25
     eb0:	8e 93       	st	-X, r24
     eb2:	16 97       	sbiw	r26, 0x06	; 6
     eb4:	ce 01       	movw	r24, r28
     eb6:	df 91       	pop	r29
     eb8:	cf 91       	pop	r28
     eba:	1f 91       	pop	r17
     ebc:	0f 91       	pop	r16
     ebe:	08 95       	ret

00000ec0 <printf>:
     ec0:	a0 e0       	ldi	r26, 0x00	; 0
     ec2:	b0 e0       	ldi	r27, 0x00	; 0
     ec4:	e6 e6       	ldi	r30, 0x66	; 102
     ec6:	f7 e0       	ldi	r31, 0x07	; 7
     ec8:	0c 94 06 06 	jmp	0xc0c	; 0xc0c <__prologue_saves__+0x20>
     ecc:	ae 01       	movw	r20, r28
     ece:	4b 5f       	subi	r20, 0xFB	; 251
     ed0:	5f 4f       	sbci	r21, 0xFF	; 255
     ed2:	fa 01       	movw	r30, r20
     ed4:	61 91       	ld	r22, Z+
     ed6:	71 91       	ld	r23, Z+
     ed8:	af 01       	movw	r20, r30
     eda:	80 91 84 01 	lds	r24, 0x0184	; 0x800184 <__iob+0x2>
     ede:	90 91 85 01 	lds	r25, 0x0185	; 0x800185 <__iob+0x3>
     ee2:	0e 94 79 02 	call	0x4f2	; 0x4f2 <vfprintf>
     ee6:	e2 e0       	ldi	r30, 0x02	; 2
     ee8:	0c 94 22 06 	jmp	0xc44	; 0xc44 <__epilogue_restores__+0x20>

00000eec <puts>:
     eec:	0f 93       	push	r16
     eee:	1f 93       	push	r17
     ef0:	cf 93       	push	r28
     ef2:	df 93       	push	r29
     ef4:	e0 91 84 01 	lds	r30, 0x0184	; 0x800184 <__iob+0x2>
     ef8:	f0 91 85 01 	lds	r31, 0x0185	; 0x800185 <__iob+0x3>
     efc:	23 81       	ldd	r18, Z+3	; 0x03
     efe:	21 ff       	sbrs	r18, 1
     f00:	1b c0       	rjmp	.+54     	; 0xf38 <puts+0x4c>
     f02:	8c 01       	movw	r16, r24
     f04:	d0 e0       	ldi	r29, 0x00	; 0
     f06:	c0 e0       	ldi	r28, 0x00	; 0
     f08:	f8 01       	movw	r30, r16
     f0a:	81 91       	ld	r24, Z+
     f0c:	8f 01       	movw	r16, r30
     f0e:	60 91 84 01 	lds	r22, 0x0184	; 0x800184 <__iob+0x2>
     f12:	70 91 85 01 	lds	r23, 0x0185	; 0x800185 <__iob+0x3>
     f16:	db 01       	movw	r26, r22
     f18:	18 96       	adiw	r26, 0x08	; 8
     f1a:	ed 91       	ld	r30, X+
     f1c:	fc 91       	ld	r31, X
     f1e:	19 97       	sbiw	r26, 0x09	; 9
     f20:	88 23       	and	r24, r24
     f22:	31 f0       	breq	.+12     	; 0xf30 <puts+0x44>
     f24:	09 95       	icall
     f26:	89 2b       	or	r24, r25
     f28:	79 f3       	breq	.-34     	; 0xf08 <puts+0x1c>
     f2a:	df ef       	ldi	r29, 0xFF	; 255
     f2c:	cf ef       	ldi	r28, 0xFF	; 255
     f2e:	ec cf       	rjmp	.-40     	; 0xf08 <puts+0x1c>
     f30:	8a e0       	ldi	r24, 0x0A	; 10
     f32:	09 95       	icall
     f34:	89 2b       	or	r24, r25
     f36:	19 f0       	breq	.+6      	; 0xf3e <puts+0x52>
     f38:	8f ef       	ldi	r24, 0xFF	; 255
     f3a:	9f ef       	ldi	r25, 0xFF	; 255
     f3c:	02 c0       	rjmp	.+4      	; 0xf42 <puts+0x56>
     f3e:	8d 2f       	mov	r24, r29
     f40:	9c 2f       	mov	r25, r28
     f42:	df 91       	pop	r29
     f44:	cf 91       	pop	r28
     f46:	1f 91       	pop	r17
     f48:	0f 91       	pop	r16
     f4a:	08 95       	ret

00000f4c <scanf>:
     f4c:	a0 e0       	ldi	r26, 0x00	; 0
     f4e:	b0 e0       	ldi	r27, 0x00	; 0
     f50:	ec ea       	ldi	r30, 0xAC	; 172
     f52:	f7 e0       	ldi	r31, 0x07	; 7
     f54:	0c 94 06 06 	jmp	0xc0c	; 0xc0c <__prologue_saves__+0x20>
     f58:	ae 01       	movw	r20, r28
     f5a:	4b 5f       	subi	r20, 0xFB	; 251
     f5c:	5f 4f       	sbci	r21, 0xFF	; 255
     f5e:	fa 01       	movw	r30, r20
     f60:	61 91       	ld	r22, Z+
     f62:	71 91       	ld	r23, Z+
     f64:	af 01       	movw	r20, r30
     f66:	80 91 82 01 	lds	r24, 0x0182	; 0x800182 <__iob>
     f6a:	90 91 83 01 	lds	r25, 0x0183	; 0x800183 <__iob+0x1>
     f6e:	0e 94 b6 09 	call	0x136c	; 0x136c <vfscanf>
     f72:	e2 e0       	ldi	r30, 0x02	; 2
     f74:	0c 94 22 06 	jmp	0xc44	; 0xc44 <__epilogue_restores__+0x20>

00000f78 <__ultoa_invert>:
     f78:	fa 01       	movw	r30, r20
     f7a:	aa 27       	eor	r26, r26
     f7c:	28 30       	cpi	r18, 0x08	; 8
     f7e:	51 f1       	breq	.+84     	; 0xfd4 <__ultoa_invert+0x5c>
     f80:	20 31       	cpi	r18, 0x10	; 16
     f82:	81 f1       	breq	.+96     	; 0xfe4 <__ultoa_invert+0x6c>
     f84:	e8 94       	clt
     f86:	6f 93       	push	r22
     f88:	6e 7f       	andi	r22, 0xFE	; 254
     f8a:	6e 5f       	subi	r22, 0xFE	; 254
     f8c:	7f 4f       	sbci	r23, 0xFF	; 255
     f8e:	8f 4f       	sbci	r24, 0xFF	; 255
     f90:	9f 4f       	sbci	r25, 0xFF	; 255
     f92:	af 4f       	sbci	r26, 0xFF	; 255
     f94:	b1 e0       	ldi	r27, 0x01	; 1
     f96:	3e d0       	rcall	.+124    	; 0x1014 <__ultoa_invert+0x9c>
     f98:	b4 e0       	ldi	r27, 0x04	; 4
     f9a:	3c d0       	rcall	.+120    	; 0x1014 <__ultoa_invert+0x9c>
     f9c:	67 0f       	add	r22, r23
     f9e:	78 1f       	adc	r23, r24
     fa0:	89 1f       	adc	r24, r25
     fa2:	9a 1f       	adc	r25, r26
     fa4:	a1 1d       	adc	r26, r1
     fa6:	68 0f       	add	r22, r24
     fa8:	79 1f       	adc	r23, r25
     faa:	8a 1f       	adc	r24, r26
     fac:	91 1d       	adc	r25, r1
     fae:	a1 1d       	adc	r26, r1
     fb0:	6a 0f       	add	r22, r26
     fb2:	71 1d       	adc	r23, r1
     fb4:	81 1d       	adc	r24, r1
     fb6:	91 1d       	adc	r25, r1
     fb8:	a1 1d       	adc	r26, r1
     fba:	20 d0       	rcall	.+64     	; 0xffc <__ultoa_invert+0x84>
     fbc:	09 f4       	brne	.+2      	; 0xfc0 <__ultoa_invert+0x48>
     fbe:	68 94       	set
     fc0:	3f 91       	pop	r19
     fc2:	2a e0       	ldi	r18, 0x0A	; 10
     fc4:	26 9f       	mul	r18, r22
     fc6:	11 24       	eor	r1, r1
     fc8:	30 19       	sub	r19, r0
     fca:	30 5d       	subi	r19, 0xD0	; 208
     fcc:	31 93       	st	Z+, r19
     fce:	de f6       	brtc	.-74     	; 0xf86 <__ultoa_invert+0xe>
     fd0:	cf 01       	movw	r24, r30
     fd2:	08 95       	ret
     fd4:	46 2f       	mov	r20, r22
     fd6:	47 70       	andi	r20, 0x07	; 7
     fd8:	40 5d       	subi	r20, 0xD0	; 208
     fda:	41 93       	st	Z+, r20
     fdc:	b3 e0       	ldi	r27, 0x03	; 3
     fde:	0f d0       	rcall	.+30     	; 0xffe <__ultoa_invert+0x86>
     fe0:	c9 f7       	brne	.-14     	; 0xfd4 <__ultoa_invert+0x5c>
     fe2:	f6 cf       	rjmp	.-20     	; 0xfd0 <__ultoa_invert+0x58>
     fe4:	46 2f       	mov	r20, r22
     fe6:	4f 70       	andi	r20, 0x0F	; 15
     fe8:	40 5d       	subi	r20, 0xD0	; 208
     fea:	4a 33       	cpi	r20, 0x3A	; 58
     fec:	18 f0       	brcs	.+6      	; 0xff4 <__ultoa_invert+0x7c>
     fee:	49 5d       	subi	r20, 0xD9	; 217
     ff0:	31 fd       	sbrc	r19, 1
     ff2:	40 52       	subi	r20, 0x20	; 32
     ff4:	41 93       	st	Z+, r20
     ff6:	02 d0       	rcall	.+4      	; 0xffc <__ultoa_invert+0x84>
     ff8:	a9 f7       	brne	.-22     	; 0xfe4 <__ultoa_invert+0x6c>
     ffa:	ea cf       	rjmp	.-44     	; 0xfd0 <__ultoa_invert+0x58>
     ffc:	b4 e0       	ldi	r27, 0x04	; 4
     ffe:	a6 95       	lsr	r26
    1000:	97 95       	ror	r25
    1002:	87 95       	ror	r24
    1004:	77 95       	ror	r23
    1006:	67 95       	ror	r22
    1008:	ba 95       	dec	r27
    100a:	c9 f7       	brne	.-14     	; 0xffe <__ultoa_invert+0x86>
    100c:	00 97       	sbiw	r24, 0x00	; 0
    100e:	61 05       	cpc	r22, r1
    1010:	71 05       	cpc	r23, r1
    1012:	08 95       	ret
    1014:	9b 01       	movw	r18, r22
    1016:	ac 01       	movw	r20, r24
    1018:	0a 2e       	mov	r0, r26
    101a:	06 94       	lsr	r0
    101c:	57 95       	ror	r21
    101e:	47 95       	ror	r20
    1020:	37 95       	ror	r19
    1022:	27 95       	ror	r18
    1024:	ba 95       	dec	r27
    1026:	c9 f7       	brne	.-14     	; 0x101a <__ultoa_invert+0xa2>
    1028:	62 0f       	add	r22, r18
    102a:	73 1f       	adc	r23, r19
    102c:	84 1f       	adc	r24, r20
    102e:	95 1f       	adc	r25, r21
    1030:	a0 1d       	adc	r26, r0
    1032:	08 95       	ret

00001034 <putval>:
    1034:	20 fd       	sbrc	r18, 0
    1036:	09 c0       	rjmp	.+18     	; 0x104a <putval+0x16>
    1038:	fc 01       	movw	r30, r24
    103a:	23 fd       	sbrc	r18, 3
    103c:	05 c0       	rjmp	.+10     	; 0x1048 <putval+0x14>
    103e:	22 ff       	sbrs	r18, 2
    1040:	02 c0       	rjmp	.+4      	; 0x1046 <putval+0x12>
    1042:	73 83       	std	Z+3, r23	; 0x03
    1044:	62 83       	std	Z+2, r22	; 0x02
    1046:	51 83       	std	Z+1, r21	; 0x01
    1048:	40 83       	st	Z, r20
    104a:	08 95       	ret

0000104c <mulacc>:
    104c:	44 fd       	sbrc	r20, 4
    104e:	17 c0       	rjmp	.+46     	; 0x107e <mulacc+0x32>
    1050:	46 fd       	sbrc	r20, 6
    1052:	17 c0       	rjmp	.+46     	; 0x1082 <mulacc+0x36>
    1054:	ab 01       	movw	r20, r22
    1056:	bc 01       	movw	r22, r24
    1058:	da 01       	movw	r26, r20
    105a:	fb 01       	movw	r30, r22
    105c:	aa 0f       	add	r26, r26
    105e:	bb 1f       	adc	r27, r27
    1060:	ee 1f       	adc	r30, r30
    1062:	ff 1f       	adc	r31, r31
    1064:	10 94       	com	r1
    1066:	d1 f7       	brne	.-12     	; 0x105c <mulacc+0x10>
    1068:	4a 0f       	add	r20, r26
    106a:	5b 1f       	adc	r21, r27
    106c:	6e 1f       	adc	r22, r30
    106e:	7f 1f       	adc	r23, r31
    1070:	cb 01       	movw	r24, r22
    1072:	ba 01       	movw	r22, r20
    1074:	66 0f       	add	r22, r22
    1076:	77 1f       	adc	r23, r23
    1078:	88 1f       	adc	r24, r24
    107a:	99 1f       	adc	r25, r25
    107c:	09 c0       	rjmp	.+18     	; 0x1090 <mulacc+0x44>
    107e:	33 e0       	ldi	r19, 0x03	; 3
    1080:	01 c0       	rjmp	.+2      	; 0x1084 <mulacc+0x38>
    1082:	34 e0       	ldi	r19, 0x04	; 4
    1084:	66 0f       	add	r22, r22
    1086:	77 1f       	adc	r23, r23
    1088:	88 1f       	adc	r24, r24
    108a:	99 1f       	adc	r25, r25
    108c:	31 50       	subi	r19, 0x01	; 1
    108e:	d1 f7       	brne	.-12     	; 0x1084 <mulacc+0x38>
    1090:	62 0f       	add	r22, r18
    1092:	71 1d       	adc	r23, r1
    1094:	81 1d       	adc	r24, r1
    1096:	91 1d       	adc	r25, r1
    1098:	08 95       	ret

0000109a <skip_spaces>:
    109a:	0f 93       	push	r16
    109c:	1f 93       	push	r17
    109e:	cf 93       	push	r28
    10a0:	df 93       	push	r29
    10a2:	8c 01       	movw	r16, r24
    10a4:	c8 01       	movw	r24, r16
    10a6:	0e 94 db 0a 	call	0x15b6	; 0x15b6 <fgetc>
    10aa:	ec 01       	movw	r28, r24
    10ac:	97 fd       	sbrc	r25, 7
    10ae:	08 c0       	rjmp	.+16     	; 0x10c0 <skip_spaces+0x26>
    10b0:	0e 94 c7 0a 	call	0x158e	; 0x158e <isspace>
    10b4:	89 2b       	or	r24, r25
    10b6:	b1 f7       	brne	.-20     	; 0x10a4 <skip_spaces+0xa>
    10b8:	b8 01       	movw	r22, r16
    10ba:	ce 01       	movw	r24, r28
    10bc:	0e 94 19 0b 	call	0x1632	; 0x1632 <ungetc>
    10c0:	ce 01       	movw	r24, r28
    10c2:	df 91       	pop	r29
    10c4:	cf 91       	pop	r28
    10c6:	1f 91       	pop	r17
    10c8:	0f 91       	pop	r16
    10ca:	08 95       	ret

000010cc <conv_int>:
    10cc:	8f 92       	push	r8
    10ce:	9f 92       	push	r9
    10d0:	af 92       	push	r10
    10d2:	bf 92       	push	r11
    10d4:	ef 92       	push	r14
    10d6:	ff 92       	push	r15
    10d8:	0f 93       	push	r16
    10da:	1f 93       	push	r17
    10dc:	cf 93       	push	r28
    10de:	df 93       	push	r29
    10e0:	8c 01       	movw	r16, r24
    10e2:	d6 2f       	mov	r29, r22
    10e4:	7a 01       	movw	r14, r20
    10e6:	b2 2e       	mov	r11, r18
    10e8:	0e 94 db 0a 	call	0x15b6	; 0x15b6 <fgetc>
    10ec:	9c 01       	movw	r18, r24
    10ee:	33 27       	eor	r19, r19
    10f0:	2b 32       	cpi	r18, 0x2B	; 43
    10f2:	31 05       	cpc	r19, r1
    10f4:	31 f0       	breq	.+12     	; 0x1102 <conv_int+0x36>
    10f6:	2d 32       	cpi	r18, 0x2D	; 45
    10f8:	31 05       	cpc	r19, r1
    10fa:	61 f4       	brne	.+24     	; 0x1114 <conv_int+0x48>
    10fc:	8b 2d       	mov	r24, r11
    10fe:	80 68       	ori	r24, 0x80	; 128
    1100:	b8 2e       	mov	r11, r24
    1102:	d1 50       	subi	r29, 0x01	; 1
    1104:	11 f4       	brne	.+4      	; 0x110a <conv_int+0x3e>
    1106:	80 e0       	ldi	r24, 0x00	; 0
    1108:	68 c0       	rjmp	.+208    	; 0x11da <conv_int+0x10e>
    110a:	c8 01       	movw	r24, r16
    110c:	0e 94 db 0a 	call	0x15b6	; 0x15b6 <fgetc>
    1110:	97 fd       	sbrc	r25, 7
    1112:	f9 cf       	rjmp	.-14     	; 0x1106 <conv_int+0x3a>
    1114:	cb 2d       	mov	r28, r11
    1116:	cd 7f       	andi	r28, 0xFD	; 253
    1118:	2b 2d       	mov	r18, r11
    111a:	20 73       	andi	r18, 0x30	; 48
    111c:	09 f5       	brne	.+66     	; 0x1160 <conv_int+0x94>
    111e:	80 33       	cpi	r24, 0x30	; 48
    1120:	f9 f4       	brne	.+62     	; 0x1160 <conv_int+0x94>
    1122:	aa 24       	eor	r10, r10
    1124:	aa 94       	dec	r10
    1126:	ad 0e       	add	r10, r29
    1128:	09 f4       	brne	.+2      	; 0x112c <conv_int+0x60>
    112a:	43 c0       	rjmp	.+134    	; 0x11b2 <conv_int+0xe6>
    112c:	c8 01       	movw	r24, r16
    112e:	0e 94 db 0a 	call	0x15b6	; 0x15b6 <fgetc>
    1132:	97 fd       	sbrc	r25, 7
    1134:	3e c0       	rjmp	.+124    	; 0x11b2 <conv_int+0xe6>
    1136:	9c 01       	movw	r18, r24
    1138:	2f 7d       	andi	r18, 0xDF	; 223
    113a:	33 27       	eor	r19, r19
    113c:	28 35       	cpi	r18, 0x58	; 88
    113e:	31 05       	cpc	r19, r1
    1140:	49 f4       	brne	.+18     	; 0x1154 <conv_int+0x88>
    1142:	c2 64       	ori	r28, 0x42	; 66
    1144:	d2 50       	subi	r29, 0x02	; 2
    1146:	a9 f1       	breq	.+106    	; 0x11b2 <conv_int+0xe6>
    1148:	c8 01       	movw	r24, r16
    114a:	0e 94 db 0a 	call	0x15b6	; 0x15b6 <fgetc>
    114e:	97 ff       	sbrs	r25, 7
    1150:	07 c0       	rjmp	.+14     	; 0x1160 <conv_int+0x94>
    1152:	2f c0       	rjmp	.+94     	; 0x11b2 <conv_int+0xe6>
    1154:	b6 fe       	sbrs	r11, 6
    1156:	02 c0       	rjmp	.+4      	; 0x115c <conv_int+0x90>
    1158:	c2 60       	ori	r28, 0x02	; 2
    115a:	01 c0       	rjmp	.+2      	; 0x115e <conv_int+0x92>
    115c:	c2 61       	ori	r28, 0x12	; 18
    115e:	da 2d       	mov	r29, r10
    1160:	81 2c       	mov	r8, r1
    1162:	91 2c       	mov	r9, r1
    1164:	54 01       	movw	r10, r8
    1166:	20 ed       	ldi	r18, 0xD0	; 208
    1168:	28 0f       	add	r18, r24
    116a:	28 30       	cpi	r18, 0x08	; 8
    116c:	80 f0       	brcs	.+32     	; 0x118e <conv_int+0xc2>
    116e:	c4 ff       	sbrs	r28, 4
    1170:	04 c0       	rjmp	.+8      	; 0x117a <conv_int+0xae>
    1172:	b8 01       	movw	r22, r16
    1174:	0e 94 19 0b 	call	0x1632	; 0x1632 <ungetc>
    1178:	19 c0       	rjmp	.+50     	; 0x11ac <conv_int+0xe0>
    117a:	2a 30       	cpi	r18, 0x0A	; 10
    117c:	40 f0       	brcs	.+16     	; 0x118e <conv_int+0xc2>
    117e:	c6 ff       	sbrs	r28, 6
    1180:	f8 cf       	rjmp	.-16     	; 0x1172 <conv_int+0xa6>
    1182:	2f 7d       	andi	r18, 0xDF	; 223
    1184:	3f ee       	ldi	r19, 0xEF	; 239
    1186:	32 0f       	add	r19, r18
    1188:	36 30       	cpi	r19, 0x06	; 6
    118a:	98 f7       	brcc	.-26     	; 0x1172 <conv_int+0xa6>
    118c:	27 50       	subi	r18, 0x07	; 7
    118e:	4c 2f       	mov	r20, r28
    1190:	c5 01       	movw	r24, r10
    1192:	b4 01       	movw	r22, r8
    1194:	0e 94 26 08 	call	0x104c	; 0x104c <mulacc>
    1198:	4b 01       	movw	r8, r22
    119a:	5c 01       	movw	r10, r24
    119c:	c2 60       	ori	r28, 0x02	; 2
    119e:	d1 50       	subi	r29, 0x01	; 1
    11a0:	59 f0       	breq	.+22     	; 0x11b8 <conv_int+0xec>
    11a2:	c8 01       	movw	r24, r16
    11a4:	0e 94 db 0a 	call	0x15b6	; 0x15b6 <fgetc>
    11a8:	97 ff       	sbrs	r25, 7
    11aa:	dd cf       	rjmp	.-70     	; 0x1166 <conv_int+0x9a>
    11ac:	c1 fd       	sbrc	r28, 1
    11ae:	04 c0       	rjmp	.+8      	; 0x11b8 <conv_int+0xec>
    11b0:	aa cf       	rjmp	.-172    	; 0x1106 <conv_int+0x3a>
    11b2:	81 2c       	mov	r8, r1
    11b4:	91 2c       	mov	r9, r1
    11b6:	54 01       	movw	r10, r8
    11b8:	c7 ff       	sbrs	r28, 7
    11ba:	08 c0       	rjmp	.+16     	; 0x11cc <conv_int+0x100>
    11bc:	b0 94       	com	r11
    11be:	a0 94       	com	r10
    11c0:	90 94       	com	r9
    11c2:	80 94       	com	r8
    11c4:	81 1c       	adc	r8, r1
    11c6:	91 1c       	adc	r9, r1
    11c8:	a1 1c       	adc	r10, r1
    11ca:	b1 1c       	adc	r11, r1
    11cc:	2c 2f       	mov	r18, r28
    11ce:	b5 01       	movw	r22, r10
    11d0:	a4 01       	movw	r20, r8
    11d2:	c7 01       	movw	r24, r14
    11d4:	0e 94 1a 08 	call	0x1034	; 0x1034 <putval>
    11d8:	81 e0       	ldi	r24, 0x01	; 1
    11da:	df 91       	pop	r29
    11dc:	cf 91       	pop	r28
    11de:	1f 91       	pop	r17
    11e0:	0f 91       	pop	r16
    11e2:	ff 90       	pop	r15
    11e4:	ef 90       	pop	r14
    11e6:	bf 90       	pop	r11
    11e8:	af 90       	pop	r10
    11ea:	9f 90       	pop	r9
    11ec:	8f 90       	pop	r8
    11ee:	08 95       	ret

000011f0 <conv_brk>:
    11f0:	a0 e2       	ldi	r26, 0x20	; 32
    11f2:	b0 e0       	ldi	r27, 0x00	; 0
    11f4:	ee ef       	ldi	r30, 0xFE	; 254
    11f6:	f8 e0       	ldi	r31, 0x08	; 8
    11f8:	0c 94 f9 05 	jmp	0xbf2	; 0xbf2 <__prologue_saves__+0x6>
    11fc:	5c 01       	movw	r10, r24
    11fe:	96 2e       	mov	r9, r22
    1200:	7a 01       	movw	r14, r20
    1202:	f9 01       	movw	r30, r18
    1204:	8e 01       	movw	r16, r28
    1206:	0f 5f       	subi	r16, 0xFF	; 255
    1208:	1f 4f       	sbci	r17, 0xFF	; 255
    120a:	68 01       	movw	r12, r16
    120c:	80 e2       	ldi	r24, 0x20	; 32
    120e:	d8 01       	movw	r26, r16
    1210:	1d 92       	st	X+, r1
    1212:	8a 95       	dec	r24
    1214:	e9 f7       	brne	.-6      	; 0x1210 <conv_brk+0x20>
    1216:	d5 01       	movw	r26, r10
    1218:	13 96       	adiw	r26, 0x03	; 3
    121a:	8c 90       	ld	r8, X
    121c:	80 e0       	ldi	r24, 0x00	; 0
    121e:	90 e0       	ldi	r25, 0x00	; 0
    1220:	61 2c       	mov	r6, r1
    1222:	71 2c       	mov	r7, r1
    1224:	30 e0       	ldi	r19, 0x00	; 0
    1226:	61 e0       	ldi	r22, 0x01	; 1
    1228:	70 e0       	ldi	r23, 0x00	; 0
    122a:	83 fc       	sbrc	r8, 3
    122c:	25 91       	lpm	r18, Z+
    122e:	83 fe       	sbrs	r8, 3
    1230:	21 91       	ld	r18, Z+
    1232:	8f 01       	movw	r16, r30
    1234:	52 2e       	mov	r5, r18
    1236:	21 11       	cpse	r18, r1
    1238:	03 c0       	rjmp	.+6      	; 0x1240 <conv_brk+0x50>
    123a:	80 e0       	ldi	r24, 0x00	; 0
    123c:	90 e0       	ldi	r25, 0x00	; 0
    123e:	92 c0       	rjmp	.+292    	; 0x1364 <conv_brk+0x174>
    1240:	2e 35       	cpi	r18, 0x5E	; 94
    1242:	11 f4       	brne	.+4      	; 0x1248 <conv_brk+0x58>
    1244:	00 97       	sbiw	r24, 0x00	; 0
    1246:	51 f1       	breq	.+84     	; 0x129c <conv_brk+0xac>
    1248:	43 2f       	mov	r20, r19
    124a:	50 e0       	ldi	r21, 0x00	; 0
    124c:	48 17       	cp	r20, r24
    124e:	59 07       	cpc	r21, r25
    1250:	3c f4       	brge	.+14     	; 0x1260 <conv_brk+0x70>
    1252:	2d 35       	cpi	r18, 0x5D	; 93
    1254:	59 f1       	breq	.+86     	; 0x12ac <conv_brk+0xbc>
    1256:	2d 32       	cpi	r18, 0x2D	; 45
    1258:	19 f4       	brne	.+6      	; 0x1260 <conv_brk+0x70>
    125a:	77 20       	and	r7, r7
    125c:	09 f1       	breq	.+66     	; 0x12a0 <conv_brk+0xb0>
    125e:	03 c0       	rjmp	.+6      	; 0x1266 <conv_brk+0x76>
    1260:	77 20       	and	r7, r7
    1262:	09 f4       	brne	.+2      	; 0x1266 <conv_brk+0x76>
    1264:	6a c0       	rjmp	.+212    	; 0x133a <conv_brk+0x14a>
    1266:	45 2d       	mov	r20, r5
    1268:	46 95       	lsr	r20
    126a:	46 95       	lsr	r20
    126c:	46 95       	lsr	r20
    126e:	d6 01       	movw	r26, r12
    1270:	a4 0f       	add	r26, r20
    1272:	b1 1d       	adc	r27, r1
    1274:	45 2d       	mov	r20, r5
    1276:	47 70       	andi	r20, 0x07	; 7
    1278:	8b 01       	movw	r16, r22
    127a:	02 c0       	rjmp	.+4      	; 0x1280 <conv_brk+0x90>
    127c:	00 0f       	add	r16, r16
    127e:	11 1f       	adc	r17, r17
    1280:	4a 95       	dec	r20
    1282:	e2 f7       	brpl	.-8      	; 0x127c <conv_brk+0x8c>
    1284:	a8 01       	movw	r20, r16
    1286:	5c 91       	ld	r21, X
    1288:	45 2b       	or	r20, r21
    128a:	4c 93       	st	X, r20
    128c:	65 14       	cp	r6, r5
    128e:	59 f0       	breq	.+22     	; 0x12a6 <conv_brk+0xb6>
    1290:	56 14       	cp	r5, r6
    1292:	10 f4       	brcc	.+4      	; 0x1298 <conv_brk+0xa8>
    1294:	53 94       	inc	r5
    1296:	e7 cf       	rjmp	.-50     	; 0x1266 <conv_brk+0x76>
    1298:	5a 94       	dec	r5
    129a:	e5 cf       	rjmp	.-54     	; 0x1266 <conv_brk+0x76>
    129c:	31 e0       	ldi	r19, 0x01	; 1
    129e:	04 c0       	rjmp	.+8      	; 0x12a8 <conv_brk+0xb8>
    12a0:	77 24       	eor	r7, r7
    12a2:	73 94       	inc	r7
    12a4:	01 c0       	rjmp	.+2      	; 0x12a8 <conv_brk+0xb8>
    12a6:	71 2c       	mov	r7, r1
    12a8:	01 96       	adiw	r24, 0x01	; 1
    12aa:	bf cf       	rjmp	.-130    	; 0x122a <conv_brk+0x3a>
    12ac:	77 20       	and	r7, r7
    12ae:	19 f0       	breq	.+6      	; 0x12b6 <conv_brk+0xc6>
    12b0:	8e 81       	ldd	r24, Y+6	; 0x06
    12b2:	80 62       	ori	r24, 0x20	; 32
    12b4:	8e 83       	std	Y+6, r24	; 0x06
    12b6:	31 11       	cpse	r19, r1
    12b8:	03 c0       	rjmp	.+6      	; 0x12c0 <conv_brk+0xd0>
    12ba:	88 24       	eor	r8, r8
    12bc:	83 94       	inc	r8
    12be:	17 c0       	rjmp	.+46     	; 0x12ee <conv_brk+0xfe>
    12c0:	f6 01       	movw	r30, r12
    12c2:	9e 01       	movw	r18, r28
    12c4:	2f 5d       	subi	r18, 0xDF	; 223
    12c6:	3f 4f       	sbci	r19, 0xFF	; 255
    12c8:	80 81       	ld	r24, Z
    12ca:	80 95       	com	r24
    12cc:	81 93       	st	Z+, r24
    12ce:	2e 17       	cp	r18, r30
    12d0:	3f 07       	cpc	r19, r31
    12d2:	d1 f7       	brne	.-12     	; 0x12c8 <conv_brk+0xd8>
    12d4:	f2 cf       	rjmp	.-28     	; 0x12ba <conv_brk+0xca>
    12d6:	e1 14       	cp	r14, r1
    12d8:	f1 04       	cpc	r15, r1
    12da:	29 f0       	breq	.+10     	; 0x12e6 <conv_brk+0xf6>
    12dc:	d7 01       	movw	r26, r14
    12de:	8c 93       	st	X, r24
    12e0:	f7 01       	movw	r30, r14
    12e2:	31 96       	adiw	r30, 0x01	; 1
    12e4:	7f 01       	movw	r14, r30
    12e6:	9a 94       	dec	r9
    12e8:	81 2c       	mov	r8, r1
    12ea:	99 20       	and	r9, r9
    12ec:	f9 f0       	breq	.+62     	; 0x132c <conv_brk+0x13c>
    12ee:	c5 01       	movw	r24, r10
    12f0:	0e 94 db 0a 	call	0x15b6	; 0x15b6 <fgetc>
    12f4:	97 fd       	sbrc	r25, 7
    12f6:	18 c0       	rjmp	.+48     	; 0x1328 <conv_brk+0x138>
    12f8:	fc 01       	movw	r30, r24
    12fa:	ff 27       	eor	r31, r31
    12fc:	23 e0       	ldi	r18, 0x03	; 3
    12fe:	f5 95       	asr	r31
    1300:	e7 95       	ror	r30
    1302:	2a 95       	dec	r18
    1304:	e1 f7       	brne	.-8      	; 0x12fe <conv_brk+0x10e>
    1306:	ec 0d       	add	r30, r12
    1308:	fd 1d       	adc	r31, r13
    130a:	20 81       	ld	r18, Z
    130c:	30 e0       	ldi	r19, 0x00	; 0
    130e:	ac 01       	movw	r20, r24
    1310:	47 70       	andi	r20, 0x07	; 7
    1312:	55 27       	eor	r21, r21
    1314:	02 c0       	rjmp	.+4      	; 0x131a <conv_brk+0x12a>
    1316:	35 95       	asr	r19
    1318:	27 95       	ror	r18
    131a:	4a 95       	dec	r20
    131c:	e2 f7       	brpl	.-8      	; 0x1316 <conv_brk+0x126>
    131e:	20 fd       	sbrc	r18, 0
    1320:	da cf       	rjmp	.-76     	; 0x12d6 <conv_brk+0xe6>
    1322:	b5 01       	movw	r22, r10
    1324:	0e 94 19 0b 	call	0x1632	; 0x1632 <ungetc>
    1328:	81 10       	cpse	r8, r1
    132a:	87 cf       	rjmp	.-242    	; 0x123a <conv_brk+0x4a>
    132c:	e1 14       	cp	r14, r1
    132e:	f1 04       	cpc	r15, r1
    1330:	11 f0       	breq	.+4      	; 0x1336 <conv_brk+0x146>
    1332:	d7 01       	movw	r26, r14
    1334:	1c 92       	st	X, r1
    1336:	c8 01       	movw	r24, r16
    1338:	15 c0       	rjmp	.+42     	; 0x1364 <conv_brk+0x174>
    133a:	42 2f       	mov	r20, r18
    133c:	46 95       	lsr	r20
    133e:	46 95       	lsr	r20
    1340:	46 95       	lsr	r20
    1342:	d6 01       	movw	r26, r12
    1344:	a4 0f       	add	r26, r20
    1346:	b1 1d       	adc	r27, r1
    1348:	42 2f       	mov	r20, r18
    134a:	47 70       	andi	r20, 0x07	; 7
    134c:	8b 01       	movw	r16, r22
    134e:	02 c0       	rjmp	.+4      	; 0x1354 <conv_brk+0x164>
    1350:	00 0f       	add	r16, r16
    1352:	11 1f       	adc	r17, r17
    1354:	4a 95       	dec	r20
    1356:	e2 f7       	brpl	.-8      	; 0x1350 <conv_brk+0x160>
    1358:	a8 01       	movw	r20, r16
    135a:	5c 91       	ld	r21, X
    135c:	45 2b       	or	r20, r21
    135e:	4c 93       	st	X, r20
    1360:	62 2e       	mov	r6, r18
    1362:	a2 cf       	rjmp	.-188    	; 0x12a8 <conv_brk+0xb8>
    1364:	a0 96       	adiw	r28, 0x20	; 32
    1366:	ef e0       	ldi	r30, 0x0F	; 15
    1368:	0c 94 15 06 	jmp	0xc2a	; 0xc2a <__epilogue_restores__+0x6>

0000136c <vfscanf>:
    136c:	a0 e0       	ldi	r26, 0x00	; 0
    136e:	b0 e0       	ldi	r27, 0x00	; 0
    1370:	ec eb       	ldi	r30, 0xBC	; 188
    1372:	f9 e0       	ldi	r31, 0x09	; 9
    1374:	0c 94 f9 05 	jmp	0xbf2	; 0xbf2 <__prologue_saves__+0x6>
    1378:	6c 01       	movw	r12, r24
    137a:	eb 01       	movw	r28, r22
    137c:	5a 01       	movw	r10, r20
    137e:	fc 01       	movw	r30, r24
    1380:	17 82       	std	Z+7, r1	; 0x07
    1382:	16 82       	std	Z+6, r1	; 0x06
    1384:	51 2c       	mov	r5, r1
    1386:	f6 01       	movw	r30, r12
    1388:	e3 80       	ldd	r14, Z+3	; 0x03
    138a:	fe 01       	movw	r30, r28
    138c:	e3 fc       	sbrc	r14, 3
    138e:	85 91       	lpm	r24, Z+
    1390:	e3 fe       	sbrs	r14, 3
    1392:	81 91       	ld	r24, Z+
    1394:	18 2f       	mov	r17, r24
    1396:	ef 01       	movw	r28, r30
    1398:	88 23       	and	r24, r24
    139a:	09 f4       	brne	.+2      	; 0x139e <vfscanf+0x32>
    139c:	ee c0       	rjmp	.+476    	; 0x157a <vfscanf+0x20e>
    139e:	90 e0       	ldi	r25, 0x00	; 0
    13a0:	0e 94 c7 0a 	call	0x158e	; 0x158e <isspace>
    13a4:	89 2b       	or	r24, r25
    13a6:	21 f0       	breq	.+8      	; 0x13b0 <vfscanf+0x44>
    13a8:	c6 01       	movw	r24, r12
    13aa:	0e 94 4d 08 	call	0x109a	; 0x109a <skip_spaces>
    13ae:	eb cf       	rjmp	.-42     	; 0x1386 <vfscanf+0x1a>
    13b0:	15 32       	cpi	r17, 0x25	; 37
    13b2:	41 f4       	brne	.+16     	; 0x13c4 <vfscanf+0x58>
    13b4:	fe 01       	movw	r30, r28
    13b6:	e3 fc       	sbrc	r14, 3
    13b8:	15 91       	lpm	r17, Z+
    13ba:	e3 fe       	sbrs	r14, 3
    13bc:	11 91       	ld	r17, Z+
    13be:	ef 01       	movw	r28, r30
    13c0:	15 32       	cpi	r17, 0x25	; 37
    13c2:	81 f4       	brne	.+32     	; 0x13e4 <vfscanf+0x78>
    13c4:	c6 01       	movw	r24, r12
    13c6:	0e 94 db 0a 	call	0x15b6	; 0x15b6 <fgetc>
    13ca:	97 fd       	sbrc	r25, 7
    13cc:	d4 c0       	rjmp	.+424    	; 0x1576 <vfscanf+0x20a>
    13ce:	41 2f       	mov	r20, r17
    13d0:	50 e0       	ldi	r21, 0x00	; 0
    13d2:	9c 01       	movw	r18, r24
    13d4:	33 27       	eor	r19, r19
    13d6:	24 17       	cp	r18, r20
    13d8:	35 07       	cpc	r19, r21
    13da:	a9 f2       	breq	.-86     	; 0x1386 <vfscanf+0x1a>
    13dc:	b6 01       	movw	r22, r12
    13de:	0e 94 19 0b 	call	0x1632	; 0x1632 <ungetc>
    13e2:	cb c0       	rjmp	.+406    	; 0x157a <vfscanf+0x20e>
    13e4:	1a 32       	cpi	r17, 0x2A	; 42
    13e6:	39 f4       	brne	.+14     	; 0x13f6 <vfscanf+0x8a>
    13e8:	e3 fc       	sbrc	r14, 3
    13ea:	15 91       	lpm	r17, Z+
    13ec:	e3 fe       	sbrs	r14, 3
    13ee:	11 91       	ld	r17, Z+
    13f0:	ef 01       	movw	r28, r30
    13f2:	01 e0       	ldi	r16, 0x01	; 1
    13f4:	01 c0       	rjmp	.+2      	; 0x13f8 <vfscanf+0x8c>
    13f6:	00 e0       	ldi	r16, 0x00	; 0
    13f8:	f1 2c       	mov	r15, r1
    13fa:	20 ed       	ldi	r18, 0xD0	; 208
    13fc:	21 0f       	add	r18, r17
    13fe:	2a 30       	cpi	r18, 0x0A	; 10
    1400:	80 f4       	brcc	.+32     	; 0x1422 <vfscanf+0xb6>
    1402:	02 60       	ori	r16, 0x02	; 2
    1404:	6f 2d       	mov	r22, r15
    1406:	70 e0       	ldi	r23, 0x00	; 0
    1408:	80 e0       	ldi	r24, 0x00	; 0
    140a:	90 e0       	ldi	r25, 0x00	; 0
    140c:	40 e2       	ldi	r20, 0x20	; 32
    140e:	0e 94 26 08 	call	0x104c	; 0x104c <mulacc>
    1412:	f6 2e       	mov	r15, r22
    1414:	fe 01       	movw	r30, r28
    1416:	e3 fc       	sbrc	r14, 3
    1418:	15 91       	lpm	r17, Z+
    141a:	e3 fe       	sbrs	r14, 3
    141c:	11 91       	ld	r17, Z+
    141e:	ef 01       	movw	r28, r30
    1420:	ec cf       	rjmp	.-40     	; 0x13fa <vfscanf+0x8e>
    1422:	01 ff       	sbrs	r16, 1
    1424:	03 c0       	rjmp	.+6      	; 0x142c <vfscanf+0xc0>
    1426:	f1 10       	cpse	r15, r1
    1428:	03 c0       	rjmp	.+6      	; 0x1430 <vfscanf+0xc4>
    142a:	a7 c0       	rjmp	.+334    	; 0x157a <vfscanf+0x20e>
    142c:	ff 24       	eor	r15, r15
    142e:	fa 94       	dec	r15
    1430:	18 36       	cpi	r17, 0x68	; 104
    1432:	19 f0       	breq	.+6      	; 0x143a <vfscanf+0xce>
    1434:	1c 36       	cpi	r17, 0x6C	; 108
    1436:	51 f0       	breq	.+20     	; 0x144c <vfscanf+0xe0>
    1438:	10 c0       	rjmp	.+32     	; 0x145a <vfscanf+0xee>
    143a:	fe 01       	movw	r30, r28
    143c:	e3 fc       	sbrc	r14, 3
    143e:	15 91       	lpm	r17, Z+
    1440:	e3 fe       	sbrs	r14, 3
    1442:	11 91       	ld	r17, Z+
    1444:	ef 01       	movw	r28, r30
    1446:	18 36       	cpi	r17, 0x68	; 104
    1448:	41 f4       	brne	.+16     	; 0x145a <vfscanf+0xee>
    144a:	08 60       	ori	r16, 0x08	; 8
    144c:	04 60       	ori	r16, 0x04	; 4
    144e:	fe 01       	movw	r30, r28
    1450:	e3 fc       	sbrc	r14, 3
    1452:	15 91       	lpm	r17, Z+
    1454:	e3 fe       	sbrs	r14, 3
    1456:	11 91       	ld	r17, Z+
    1458:	ef 01       	movw	r28, r30
    145a:	11 23       	and	r17, r17
    145c:	09 f4       	brne	.+2      	; 0x1460 <vfscanf+0xf4>
    145e:	8d c0       	rjmp	.+282    	; 0x157a <vfscanf+0x20e>
    1460:	61 2f       	mov	r22, r17
    1462:	70 e0       	ldi	r23, 0x00	; 0
    1464:	86 eb       	ldi	r24, 0xB6	; 182
    1466:	91 e0       	ldi	r25, 0x01	; 1
    1468:	0e 94 d0 0a 	call	0x15a0	; 0x15a0 <strchr_P>
    146c:	89 2b       	or	r24, r25
    146e:	09 f4       	brne	.+2      	; 0x1472 <vfscanf+0x106>
    1470:	84 c0       	rjmp	.+264    	; 0x157a <vfscanf+0x20e>
    1472:	00 fd       	sbrc	r16, 0
    1474:	07 c0       	rjmp	.+14     	; 0x1484 <vfscanf+0x118>
    1476:	f5 01       	movw	r30, r10
    1478:	80 80       	ld	r8, Z
    147a:	91 80       	ldd	r9, Z+1	; 0x01
    147c:	c5 01       	movw	r24, r10
    147e:	02 96       	adiw	r24, 0x02	; 2
    1480:	5c 01       	movw	r10, r24
    1482:	02 c0       	rjmp	.+4      	; 0x1488 <vfscanf+0x11c>
    1484:	81 2c       	mov	r8, r1
    1486:	91 2c       	mov	r9, r1
    1488:	1e 36       	cpi	r17, 0x6E	; 110
    148a:	51 f4       	brne	.+20     	; 0x14a0 <vfscanf+0x134>
    148c:	f6 01       	movw	r30, r12
    148e:	46 81       	ldd	r20, Z+6	; 0x06
    1490:	57 81       	ldd	r21, Z+7	; 0x07
    1492:	60 e0       	ldi	r22, 0x00	; 0
    1494:	70 e0       	ldi	r23, 0x00	; 0
    1496:	20 2f       	mov	r18, r16
    1498:	c4 01       	movw	r24, r8
    149a:	0e 94 1a 08 	call	0x1034	; 0x1034 <putval>
    149e:	73 cf       	rjmp	.-282    	; 0x1386 <vfscanf+0x1a>
    14a0:	13 36       	cpi	r17, 0x63	; 99
    14a2:	a9 f4       	brne	.+42     	; 0x14ce <vfscanf+0x162>
    14a4:	01 fd       	sbrc	r16, 1
    14a6:	02 c0       	rjmp	.+4      	; 0x14ac <vfscanf+0x140>
    14a8:	ff 24       	eor	r15, r15
    14aa:	f3 94       	inc	r15
    14ac:	c6 01       	movw	r24, r12
    14ae:	0e 94 db 0a 	call	0x15b6	; 0x15b6 <fgetc>
    14b2:	97 fd       	sbrc	r25, 7
    14b4:	60 c0       	rjmp	.+192    	; 0x1576 <vfscanf+0x20a>
    14b6:	81 14       	cp	r8, r1
    14b8:	91 04       	cpc	r9, r1
    14ba:	29 f0       	breq	.+10     	; 0x14c6 <vfscanf+0x15a>
    14bc:	f4 01       	movw	r30, r8
    14be:	80 83       	st	Z, r24
    14c0:	c4 01       	movw	r24, r8
    14c2:	01 96       	adiw	r24, 0x01	; 1
    14c4:	4c 01       	movw	r8, r24
    14c6:	fa 94       	dec	r15
    14c8:	f1 10       	cpse	r15, r1
    14ca:	f0 cf       	rjmp	.-32     	; 0x14ac <vfscanf+0x140>
    14cc:	50 c0       	rjmp	.+160    	; 0x156e <vfscanf+0x202>
    14ce:	1b 35       	cpi	r17, 0x5B	; 91
    14d0:	59 f4       	brne	.+22     	; 0x14e8 <vfscanf+0x17c>
    14d2:	9e 01       	movw	r18, r28
    14d4:	a4 01       	movw	r20, r8
    14d6:	6f 2d       	mov	r22, r15
    14d8:	c6 01       	movw	r24, r12
    14da:	0e 94 f8 08 	call	0x11f0	; 0x11f0 <conv_brk>
    14de:	ec 01       	movw	r28, r24
    14e0:	89 2b       	or	r24, r25
    14e2:	09 f0       	breq	.+2      	; 0x14e6 <vfscanf+0x17a>
    14e4:	44 c0       	rjmp	.+136    	; 0x156e <vfscanf+0x202>
    14e6:	3e c0       	rjmp	.+124    	; 0x1564 <vfscanf+0x1f8>
    14e8:	c6 01       	movw	r24, r12
    14ea:	0e 94 4d 08 	call	0x109a	; 0x109a <skip_spaces>
    14ee:	97 fd       	sbrc	r25, 7
    14f0:	42 c0       	rjmp	.+132    	; 0x1576 <vfscanf+0x20a>
    14f2:	1f 36       	cpi	r17, 0x6F	; 111
    14f4:	61 f1       	breq	.+88     	; 0x154e <vfscanf+0x1e2>
    14f6:	28 f4       	brcc	.+10     	; 0x1502 <vfscanf+0x196>
    14f8:	14 36       	cpi	r17, 0x64	; 100
    14fa:	39 f1       	breq	.+78     	; 0x154a <vfscanf+0x1de>
    14fc:	19 36       	cpi	r17, 0x69	; 105
    14fe:	51 f1       	breq	.+84     	; 0x1554 <vfscanf+0x1e8>
    1500:	28 c0       	rjmp	.+80     	; 0x1552 <vfscanf+0x1e6>
    1502:	13 37       	cpi	r17, 0x73	; 115
    1504:	71 f0       	breq	.+28     	; 0x1522 <vfscanf+0x1b6>
    1506:	15 37       	cpi	r17, 0x75	; 117
    1508:	01 f1       	breq	.+64     	; 0x154a <vfscanf+0x1de>
    150a:	23 c0       	rjmp	.+70     	; 0x1552 <vfscanf+0x1e6>
    150c:	81 14       	cp	r8, r1
    150e:	91 04       	cpc	r9, r1
    1510:	29 f0       	breq	.+10     	; 0x151c <vfscanf+0x1b0>
    1512:	f4 01       	movw	r30, r8
    1514:	60 82       	st	Z, r6
    1516:	c4 01       	movw	r24, r8
    1518:	01 96       	adiw	r24, 0x01	; 1
    151a:	4c 01       	movw	r8, r24
    151c:	fa 94       	dec	r15
    151e:	ff 20       	and	r15, r15
    1520:	71 f0       	breq	.+28     	; 0x153e <vfscanf+0x1d2>
    1522:	c6 01       	movw	r24, r12
    1524:	0e 94 db 0a 	call	0x15b6	; 0x15b6 <fgetc>
    1528:	3c 01       	movw	r6, r24
    152a:	97 fd       	sbrc	r25, 7
    152c:	08 c0       	rjmp	.+16     	; 0x153e <vfscanf+0x1d2>
    152e:	0e 94 c7 0a 	call	0x158e	; 0x158e <isspace>
    1532:	89 2b       	or	r24, r25
    1534:	59 f3       	breq	.-42     	; 0x150c <vfscanf+0x1a0>
    1536:	b6 01       	movw	r22, r12
    1538:	c3 01       	movw	r24, r6
    153a:	0e 94 19 0b 	call	0x1632	; 0x1632 <ungetc>
    153e:	81 14       	cp	r8, r1
    1540:	91 04       	cpc	r9, r1
    1542:	a9 f0       	breq	.+42     	; 0x156e <vfscanf+0x202>
    1544:	f4 01       	movw	r30, r8
    1546:	10 82       	st	Z, r1
    1548:	12 c0       	rjmp	.+36     	; 0x156e <vfscanf+0x202>
    154a:	00 62       	ori	r16, 0x20	; 32
    154c:	03 c0       	rjmp	.+6      	; 0x1554 <vfscanf+0x1e8>
    154e:	00 61       	ori	r16, 0x10	; 16
    1550:	01 c0       	rjmp	.+2      	; 0x1554 <vfscanf+0x1e8>
    1552:	00 64       	ori	r16, 0x40	; 64
    1554:	20 2f       	mov	r18, r16
    1556:	a4 01       	movw	r20, r8
    1558:	6f 2d       	mov	r22, r15
    155a:	c6 01       	movw	r24, r12
    155c:	0e 94 66 08 	call	0x10cc	; 0x10cc <conv_int>
    1560:	81 11       	cpse	r24, r1
    1562:	05 c0       	rjmp	.+10     	; 0x156e <vfscanf+0x202>
    1564:	f6 01       	movw	r30, r12
    1566:	83 81       	ldd	r24, Z+3	; 0x03
    1568:	80 73       	andi	r24, 0x30	; 48
    156a:	29 f4       	brne	.+10     	; 0x1576 <vfscanf+0x20a>
    156c:	06 c0       	rjmp	.+12     	; 0x157a <vfscanf+0x20e>
    156e:	00 fd       	sbrc	r16, 0
    1570:	0a cf       	rjmp	.-492    	; 0x1386 <vfscanf+0x1a>
    1572:	53 94       	inc	r5
    1574:	08 cf       	rjmp	.-496    	; 0x1386 <vfscanf+0x1a>
    1576:	55 20       	and	r5, r5
    1578:	19 f0       	breq	.+6      	; 0x1580 <vfscanf+0x214>
    157a:	85 2d       	mov	r24, r5
    157c:	90 e0       	ldi	r25, 0x00	; 0
    157e:	02 c0       	rjmp	.+4      	; 0x1584 <vfscanf+0x218>
    1580:	8f ef       	ldi	r24, 0xFF	; 255
    1582:	9f ef       	ldi	r25, 0xFF	; 255
    1584:	cd b7       	in	r28, 0x3d	; 61
    1586:	de b7       	in	r29, 0x3e	; 62
    1588:	ef e0       	ldi	r30, 0x0F	; 15
    158a:	0c 94 15 06 	jmp	0xc2a	; 0xc2a <__epilogue_restores__+0x6>

0000158e <isspace>:
    158e:	91 11       	cpse	r25, r1
    1590:	0c 94 32 0b 	jmp	0x1664	; 0x1664 <__ctype_isfalse>
    1594:	80 32       	cpi	r24, 0x20	; 32
    1596:	19 f0       	breq	.+6      	; 0x159e <isspace+0x10>
    1598:	89 50       	subi	r24, 0x09	; 9
    159a:	85 50       	subi	r24, 0x05	; 5
    159c:	c8 f7       	brcc	.-14     	; 0x1590 <isspace+0x2>
    159e:	08 95       	ret

000015a0 <strchr_P>:
    15a0:	fc 01       	movw	r30, r24
    15a2:	05 90       	lpm	r0, Z+
    15a4:	06 16       	cp	r0, r22
    15a6:	21 f0       	breq	.+8      	; 0x15b0 <strchr_P+0x10>
    15a8:	00 20       	and	r0, r0
    15aa:	d9 f7       	brne	.-10     	; 0x15a2 <strchr_P+0x2>
    15ac:	c0 01       	movw	r24, r0
    15ae:	08 95       	ret
    15b0:	31 97       	sbiw	r30, 0x01	; 1
    15b2:	cf 01       	movw	r24, r30
    15b4:	08 95       	ret

000015b6 <fgetc>:
    15b6:	cf 93       	push	r28
    15b8:	df 93       	push	r29
    15ba:	ec 01       	movw	r28, r24
    15bc:	2b 81       	ldd	r18, Y+3	; 0x03
    15be:	20 ff       	sbrs	r18, 0
    15c0:	33 c0       	rjmp	.+102    	; 0x1628 <fgetc+0x72>
    15c2:	26 ff       	sbrs	r18, 6
    15c4:	0a c0       	rjmp	.+20     	; 0x15da <fgetc+0x24>
    15c6:	2f 7b       	andi	r18, 0xBF	; 191
    15c8:	2b 83       	std	Y+3, r18	; 0x03
    15ca:	8e 81       	ldd	r24, Y+6	; 0x06
    15cc:	9f 81       	ldd	r25, Y+7	; 0x07
    15ce:	01 96       	adiw	r24, 0x01	; 1
    15d0:	9f 83       	std	Y+7, r25	; 0x07
    15d2:	8e 83       	std	Y+6, r24	; 0x06
    15d4:	8a 81       	ldd	r24, Y+2	; 0x02
    15d6:	90 e0       	ldi	r25, 0x00	; 0
    15d8:	29 c0       	rjmp	.+82     	; 0x162c <fgetc+0x76>
    15da:	22 ff       	sbrs	r18, 2
    15dc:	0f c0       	rjmp	.+30     	; 0x15fc <fgetc+0x46>
    15de:	e8 81       	ld	r30, Y
    15e0:	f9 81       	ldd	r31, Y+1	; 0x01
    15e2:	80 81       	ld	r24, Z
    15e4:	08 2e       	mov	r0, r24
    15e6:	00 0c       	add	r0, r0
    15e8:	99 0b       	sbc	r25, r25
    15ea:	00 97       	sbiw	r24, 0x00	; 0
    15ec:	19 f4       	brne	.+6      	; 0x15f4 <fgetc+0x3e>
    15ee:	20 62       	ori	r18, 0x20	; 32
    15f0:	2b 83       	std	Y+3, r18	; 0x03
    15f2:	1a c0       	rjmp	.+52     	; 0x1628 <fgetc+0x72>
    15f4:	31 96       	adiw	r30, 0x01	; 1
    15f6:	f9 83       	std	Y+1, r31	; 0x01
    15f8:	e8 83       	st	Y, r30
    15fa:	0e c0       	rjmp	.+28     	; 0x1618 <fgetc+0x62>
    15fc:	ea 85       	ldd	r30, Y+10	; 0x0a
    15fe:	fb 85       	ldd	r31, Y+11	; 0x0b
    1600:	09 95       	icall
    1602:	97 ff       	sbrs	r25, 7
    1604:	09 c0       	rjmp	.+18     	; 0x1618 <fgetc+0x62>
    1606:	2b 81       	ldd	r18, Y+3	; 0x03
    1608:	01 96       	adiw	r24, 0x01	; 1
    160a:	11 f0       	breq	.+4      	; 0x1610 <fgetc+0x5a>
    160c:	80 e2       	ldi	r24, 0x20	; 32
    160e:	01 c0       	rjmp	.+2      	; 0x1612 <fgetc+0x5c>
    1610:	80 e1       	ldi	r24, 0x10	; 16
    1612:	82 2b       	or	r24, r18
    1614:	8b 83       	std	Y+3, r24	; 0x03
    1616:	08 c0       	rjmp	.+16     	; 0x1628 <fgetc+0x72>
    1618:	2e 81       	ldd	r18, Y+6	; 0x06
    161a:	3f 81       	ldd	r19, Y+7	; 0x07
    161c:	2f 5f       	subi	r18, 0xFF	; 255
    161e:	3f 4f       	sbci	r19, 0xFF	; 255
    1620:	3f 83       	std	Y+7, r19	; 0x07
    1622:	2e 83       	std	Y+6, r18	; 0x06
    1624:	99 27       	eor	r25, r25
    1626:	02 c0       	rjmp	.+4      	; 0x162c <fgetc+0x76>
    1628:	8f ef       	ldi	r24, 0xFF	; 255
    162a:	9f ef       	ldi	r25, 0xFF	; 255
    162c:	df 91       	pop	r29
    162e:	cf 91       	pop	r28
    1630:	08 95       	ret

00001632 <ungetc>:
    1632:	fb 01       	movw	r30, r22
    1634:	23 81       	ldd	r18, Z+3	; 0x03
    1636:	20 ff       	sbrs	r18, 0
    1638:	12 c0       	rjmp	.+36     	; 0x165e <ungetc+0x2c>
    163a:	26 fd       	sbrc	r18, 6
    163c:	10 c0       	rjmp	.+32     	; 0x165e <ungetc+0x2c>
    163e:	8f 3f       	cpi	r24, 0xFF	; 255
    1640:	3f ef       	ldi	r19, 0xFF	; 255
    1642:	93 07       	cpc	r25, r19
    1644:	61 f0       	breq	.+24     	; 0x165e <ungetc+0x2c>
    1646:	82 83       	std	Z+2, r24	; 0x02
    1648:	2f 7d       	andi	r18, 0xDF	; 223
    164a:	20 64       	ori	r18, 0x40	; 64
    164c:	23 83       	std	Z+3, r18	; 0x03
    164e:	26 81       	ldd	r18, Z+6	; 0x06
    1650:	37 81       	ldd	r19, Z+7	; 0x07
    1652:	21 50       	subi	r18, 0x01	; 1
    1654:	31 09       	sbc	r19, r1
    1656:	37 83       	std	Z+7, r19	; 0x07
    1658:	26 83       	std	Z+6, r18	; 0x06
    165a:	99 27       	eor	r25, r25
    165c:	08 95       	ret
    165e:	8f ef       	ldi	r24, 0xFF	; 255
    1660:	9f ef       	ldi	r25, 0xFF	; 255
    1662:	08 95       	ret

00001664 <__ctype_isfalse>:
    1664:	99 27       	eor	r25, r25
    1666:	88 27       	eor	r24, r24

00001668 <__ctype_istrue>:
    1668:	08 95       	ret

0000166a <_exit>:
    166a:	f8 94       	cli

0000166c <__stop_program>:
    166c:	ff cf       	rjmp	.-2      	; 0x166c <__stop_program>
